{
    "abi": [
        {
            "type": "function",
            "name": "addBlob",
            "inputs": [
                {
                    "name": "params",
                    "type": "tuple",
                    "internalType": "struct AddBlobParams",
                    "components": [
                        {
                            "name": "sponsor",
                            "type": "address",
                            "internalType": "address"
                        },
                        {
                            "name": "source",
                            "type": "string",
                            "internalType": "string"
                        },
                        {
                            "name": "blobHash",
                            "type": "string",
                            "internalType": "string"
                        },
                        {
                            "name": "metadataHash",
                            "type": "string",
                            "internalType": "string"
                        },
                        {
                            "name": "subscriptionId",
                            "type": "string",
                            "internalType": "string"
                        },
                        {
                            "name": "size",
                            "type": "uint64",
                            "internalType": "uint64"
                        },
                        {
                            "name": "ttl",
                            "type": "uint64",
                            "internalType": "uint64"
                        },
                        {
                            "name": "from",
                            "type": "address",
                            "internalType": "address"
                        }
                    ]
                }
            ],
            "outputs": [],
            "stateMutability": "nonpayable"
        },
        {
            "type": "function",
            "name": "deleteBlob",
            "inputs": [
                {
                    "name": "subscriber",
                    "type": "address",
                    "internalType": "address"
                },
                {
                    "name": "blobHash",
                    "type": "string",
                    "internalType": "string"
                },
                {
                    "name": "subscriptionId",
                    "type": "string",
                    "internalType": "string"
                },
                {
                    "name": "from",
                    "type": "address",
                    "internalType": "address"
                }
            ],
            "outputs": [],
            "stateMutability": "nonpayable"
        },
        {
            "type": "function",
            "name": "getAddedBlobs",
            "inputs": [
                {
                    "name": "size",
                    "type": "uint32",
                    "internalType": "uint32"
                }
            ],
            "outputs": [
                {
                    "name": "blobs",
                    "type": "tuple[]",
                    "internalType": "struct BlobTuple[]",
                    "components": [
                        {
                            "name": "blobHash",
                            "type": "string",
                            "internalType": "string"
                        },
                        {
                            "name": "sourceInfo",
                            "type": "tuple[]",
                            "internalType": "struct BlobSourceInfo[]",
                            "components": [
                                {
                                    "name": "subscriber",
                                    "type": "address",
                                    "internalType": "address"
                                },
                                {
                                    "name": "subscriptionId",
                                    "type": "string",
                                    "internalType": "string"
                                },
                                {
                                    "name": "source",
                                    "type": "string",
                                    "internalType": "string"
                                }
                            ]
                        }
                    ]
                }
            ],
            "stateMutability": "view"
        },
        {
            "type": "function",
            "name": "getBlob",
            "inputs": [
                {
                    "name": "blobHash",
                    "type": "string",
                    "internalType": "string"
                }
            ],
            "outputs": [
                {
                    "name": "blob",
                    "type": "tuple",
                    "internalType": "struct Blob",
                    "components": [
                        {
                            "name": "size",
                            "type": "uint64",
                            "internalType": "uint64"
                        },
                        {
                            "name": "metadataHash",
                            "type": "string",
                            "internalType": "string"
                        },
                        {
                            "name": "subscribers",
                            "type": "tuple[]",
                            "internalType": "struct Subscriber[]",
                            "components": [
                                {
                                    "name": "subscriptionId",
                                    "type": "string",
                                    "internalType": "string"
                                },
                                {
                                    "name": "expiry",
                                    "type": "uint64",
                                    "internalType": "uint64"
                                }
                            ]
                        },
                        {
                            "name": "status",
                            "type": "uint8",
                            "internalType": "enum BlobStatus"
                        }
                    ]
                }
            ],
            "stateMutability": "view"
        },
        {
            "type": "function",
            "name": "getBlobStatus",
            "inputs": [
                {
                    "name": "subscriber",
                    "type": "address",
                    "internalType": "address"
                },
                {
                    "name": "blobHash",
                    "type": "string",
                    "internalType": "string"
                },
                {
                    "name": "subscriptionId",
                    "type": "string",
                    "internalType": "string"
                }
            ],
            "outputs": [
                {
                    "name": "status",
                    "type": "uint8",
                    "internalType": "enum BlobStatus"
                }
            ],
            "stateMutability": "view"
        },
        {
            "type": "function",
            "name": "getPendingBlobs",
            "inputs": [
                {
                    "name": "size",
                    "type": "uint32",
                    "internalType": "uint32"
                }
            ],
            "outputs": [
                {
                    "name": "blobs",
                    "type": "tuple[]",
                    "internalType": "struct BlobTuple[]",
                    "components": [
                        {
                            "name": "blobHash",
                            "type": "string",
                            "internalType": "string"
                        },
                        {
                            "name": "sourceInfo",
                            "type": "tuple[]",
                            "internalType": "struct BlobSourceInfo[]",
                            "components": [
                                {
                                    "name": "subscriber",
                                    "type": "address",
                                    "internalType": "address"
                                },
                                {
                                    "name": "subscriptionId",
                                    "type": "string",
                                    "internalType": "string"
                                },
                                {
                                    "name": "source",
                                    "type": "string",
                                    "internalType": "string"
                                }
                            ]
                        }
                    ]
                }
            ],
            "stateMutability": "view"
        },
        {
            "type": "function",
            "name": "getPendingBlobsCount",
            "inputs": [],
            "outputs": [
                {
                    "name": "",
                    "type": "uint64",
                    "internalType": "uint64"
                }
            ],
            "stateMutability": "view"
        },
        {
            "type": "function",
            "name": "getPendingBytesCount",
            "inputs": [],
            "outputs": [
                {
                    "name": "",
                    "type": "uint64",
                    "internalType": "uint64"
                }
            ],
            "stateMutability": "view"
        },
        {
            "type": "function",
            "name": "getStorageStats",
            "inputs": [],
            "outputs": [
                {
                    "name": "stats",
                    "type": "tuple",
                    "internalType": "struct StorageStats",
                    "components": [
                        {
                            "name": "capacityFree",
                            "type": "uint64",
                            "internalType": "uint64"
                        },
                        {
                            "name": "capacityUsed",
                            "type": "uint64",
                            "internalType": "uint64"
                        },
                        {
                            "name": "numBlobs",
                            "type": "uint64",
                            "internalType": "uint64"
                        },
                        {
                            "name": "numResolving",
                            "type": "uint64",
                            "internalType": "uint64"
                        },
                        {
                            "name": "numAccounts",
                            "type": "uint64",
                            "internalType": "uint64"
                        },
                        {
                            "name": "bytesResolving",
                            "type": "uint64",
                            "internalType": "uint64"
                        },
                        {
                            "name": "numAdded",
                            "type": "uint64",
                            "internalType": "uint64"
                        },
                        {
                            "name": "bytesAdded",
                            "type": "uint64",
                            "internalType": "uint64"
                        }
                    ]
                }
            ],
            "stateMutability": "view"
        },
        {
            "type": "function",
            "name": "getStorageUsage",
            "inputs": [
                {
                    "name": "addr",
                    "type": "address",
                    "internalType": "address"
                }
            ],
            "outputs": [
                {
                    "name": "",
                    "type": "uint256",
                    "internalType": "uint256"
                }
            ],
            "stateMutability": "view"
        },
        {
            "type": "function",
            "name": "getSubnetStats",
            "inputs": [],
            "outputs": [
                {
                    "name": "stats",
                    "type": "tuple",
                    "internalType": "struct SubnetStats",
                    "components": [
                        {
                            "name": "balance",
                            "type": "uint256",
                            "internalType": "uint256"
                        },
                        {
                            "name": "capacityFree",
                            "type": "uint64",
                            "internalType": "uint64"
                        },
                        {
                            "name": "capacityUsed",
                            "type": "uint64",
                            "internalType": "uint64"
                        },
                        {
                            "name": "creditSold",
                            "type": "uint256",
                            "internalType": "uint256"
                        },
                        {
                            "name": "creditCommitted",
                            "type": "uint256",
                            "internalType": "uint256"
                        },
                        {
                            "name": "creditDebited",
                            "type": "uint256",
                            "internalType": "uint256"
                        },
                        {
                            "name": "tokenCreditRate",
                            "type": "uint256",
                            "internalType": "uint256"
                        },
                        {
                            "name": "numAccounts",
                            "type": "uint64",
                            "internalType": "uint64"
                        },
                        {
                            "name": "numBlobs",
                            "type": "uint64",
                            "internalType": "uint64"
                        },
                        {
                            "name": "numAdded",
                            "type": "uint64",
                            "internalType": "uint64"
                        },
                        {
                            "name": "bytesAdded",
                            "type": "uint64",
                            "internalType": "uint64"
                        },
                        {
                            "name": "numResolving",
                            "type": "uint64",
                            "internalType": "uint64"
                        },
                        {
                            "name": "bytesResolving",
                            "type": "uint64",
                            "internalType": "uint64"
                        }
                    ]
                }
            ],
            "stateMutability": "view"
        },
        {
            "type": "function",
            "name": "overwriteBlob",
            "inputs": [
                {
                    "name": "oldHash",
                    "type": "string",
                    "internalType": "string"
                },
                {
                    "name": "params",
                    "type": "tuple",
                    "internalType": "struct AddBlobParams",
                    "components": [
                        {
                            "name": "sponsor",
                            "type": "address",
                            "internalType": "address"
                        },
                        {
                            "name": "source",
                            "type": "string",
                            "internalType": "string"
                        },
                        {
                            "name": "blobHash",
                            "type": "string",
                            "internalType": "string"
                        },
                        {
                            "name": "metadataHash",
                            "type": "string",
                            "internalType": "string"
                        },
                        {
                            "name": "subscriptionId",
                            "type": "string",
                            "internalType": "string"
                        },
                        {
                            "name": "size",
                            "type": "uint64",
                            "internalType": "uint64"
                        },
                        {
                            "name": "ttl",
                            "type": "uint64",
                            "internalType": "uint64"
                        },
                        {
                            "name": "from",
                            "type": "address",
                            "internalType": "address"
                        }
                    ]
                }
            ],
            "outputs": [],
            "stateMutability": "nonpayable"
        }
    ],
    "bytecode": {
        "object": "0x6080806040523460155761190d908161001a8239f35b5f80fdfe60806040526004361015610011575f80fd5b5f803560e01c80631f196da014610ee857806346877db8146106e05780634c26323014610d68578063537b633a14610b7f578063554df0f8146109fe57806367f6c7101461077a5780637525f96d146106e55780639d69985d146106e0578063bf1a5af7146105fa578063c7fded601461051a578063e7923ebb1461043b5763f4a89bd01461009e575f80fd5b346104385760207ffffffffffffffffffffffffffffffffffffffffffffffffffffffffffffffffc3601126104385760043567ffffffffffffffff81116104345790806100f261014d93369060040161111d565b8160606040516101018161106a565b8281528160208201528160408201520152604051809481927ff4a89bd00000000000000000000000000000000000000000000000000000000083526020600484015260248301906112ae565b038173__$e990d9c4ebd8dc1dd043363d95ee352ae8$__5af4918215610427578192610283575b50906040519182916020835267ffffffffffffffff81511660208401526101aa60208201516080604086015260a08501906112ae565b916040820151927fffffffffffffffffffffffffffffffffffffffffffffffffffffffffffffffe0858203016060860152835190818152602081016020808460051b840101960193915b8383106102145787808861021060608a01516080840190611727565b0390f35b91939650919394602080827fffffffffffffffffffffffffffffffffffffffffffffffffffffffffffffffe085600195030186528951908267ffffffffffffffff8161026985516040865260408601906112ae565b9401511691015298019301930190928796959492936101f4565b9091503d8083833e61029581836110a2565b81019060208183031261037e5780519067ffffffffffffffff8211610423570160808183031261037e57604051916102cc8361106a565b6102d5826118c2565b8352602082015167ffffffffffffffff811161041f57816102f79184016118a8565b6020840152604082015167ffffffffffffffff811161041f57820181601f8201121561041f5780519061032982611890565b9261033760405194856110a2565b82845260208085019360051b8301019181831161041b5760208101935b838510610382575050505050604083015260600151600481101561037e576060820152905f610174565b8280fd5b845167ffffffffffffffff81116104175782019060407fffffffffffffffffffffffffffffffffffffffffffffffffffffffffffffffe0838603011261041757604051906103cf82611086565b60208301519167ffffffffffffffff8311610413576104046040856103fc896020809998819901016118a8565b8452016118c2565b83820152815201940193610354565b8b80fd5b8980fd5b8780fd5b8480fd5b8380fd5b50604051903d90823e3d90fd5b5080fd5b80fd5b503461043857807ffffffffffffffffffffffffffffffffffffffffffffffffffffffffffffffffc36011261043857604051907fe7923ebb00000000000000000000000000000000000000000000000000000000825260208260048173__$e990d9c4ebd8dc1dd043363d95ee352ae8$__5af490811561050e5780916104d1575b60208267ffffffffffffffff60405191168152f35b90506020823d602011610506575b816104ec602093836110a2565b8101031261043857506105006020916118c2565b5f6104bc565b3d91506104df565b604051903d90823e3d90fd5b50346104385760207ffffffffffffffffffffffffffffffffffffffffffffffffffffffffffffffffc360112610438576004358167ffffffffffffffff82116104385761056e6105a99236906004016111bc565b604051809381927fd6e1de600000000000000000000000000000000000000000000000000000000083526020600484015260248301906117d1565b038173__$e990d9c4ebd8dc1dd043363d95ee352ae8$__5af480156105ef576105d0575080f35b6105eb903d8084833e6105e381836110a2565b810190611797565b5080f35b6040513d84823e3d90fd5b50346104385760207ffffffffffffffffffffffffffffffffffffffffffffffffffffffffffffffffc36011261043857610632611163565b73ffffffffffffffffffffffffffffffffffffffff604051917fbf1a5af700000000000000000000000000000000000000000000000000000000835216600482015260208160248173__$e990d9c4ebd8dc1dd043363d95ee352ae8$__5af49081156105ef5782916106aa575b602082604051908152f35b90506020813d6020116106d8575b816106c5602093836110a2565b810103126104345760209150515f61069f565b3d91506106b8565b6112f1565b503461043857807ffffffffffffffffffffffffffffffffffffffffffffffffffffffffffffffffc36011261043857604051907f7525f96d00000000000000000000000000000000000000000000000000000000825260208260048173__$e990d9c4ebd8dc1dd043363d95ee352ae8$__5af490811561050e5780916104d15760208267ffffffffffffffff60405191168152f35b503461043857807ffffffffffffffffffffffffffffffffffffffffffffffffffffffffffffffffc36011261043857806101806040516107b98161104d565b8281528260208201528260408201528260608201528260808201528260a08201528260c08201528260e08201528261010082015282610120820152826101408201528261016082015201526040517f67f6c7100000000000000000000000000000000000000000000000000000000081526101a08160048173__$e990d9c4ebd8dc1dd043363d95ee352ae8$__5af49081156105ef5782916108fd575b6101a08267ffffffffffffffff6101806040519280518452826020820151166020850152826040820151166040850152606081015160608501526080810151608085015260a081015160a085015260c081015160c08501528260e08201511660e08501528261010082015116610100850152826101208201511661012085015282610140820151166101408501528261016082015116610160850152015116610180820152f35b90506101a0813d82116109f6575b816109196101a093836110a2565b81010312610434576101a091506109ea610180604051926109398461104d565b80518452610949602082016118c2565b602085015261095a604082016118c2565b6040850152606081015160608501526080810151608085015260a081015160a085015260c081015160c085015261099360e082016118c2565b60e08501526109a561010082016118c2565b6101008501526109b861012082016118c2565b6101208501526109cb61014082016118c2565b6101408501526109de61016082016118c2565b610160850152016118c2565b6101808201525f610856565b3d915061090b565b50346104385760607ffffffffffffffffffffffffffffffffffffffffffffffffffffffffffffffffc36011261043857610a36611163565b60243567ffffffffffffffff811161037e57610a5690369060040161111d565b9060443567ffffffffffffffff811161042357602091610b07610a9273ffffffffffffffffffffffffffffffffffffffff93369060040161111d565b610ad760405196879586957f554df0f80000000000000000000000000000000000000000000000000000000087521660048601526060602486015260648501906112ae565b907ffffffffffffffffffffffffffffffffffffffffffffffffffffffffffffffffc8483030160448501526112ae565b038173__$e990d9c4ebd8dc1dd043363d95ee352ae8$__5af49081156105ef578291610b40575b602082610b3e6040518092611727565bf35b90506020813d602011610b77575b81610b5b602093836110a2565b810103126104345751600481101561043457602091505f610b2e565b3d9150610b4e565b503461043857807ffffffffffffffffffffffffffffffffffffffffffffffffffffffffffffffffc360112610438578060e0604051610bbd81611003565b8281528260208201528260408201528260608201528260808201528260a08201528260c082015201526040517f537b633a0000000000000000000000000000000000000000000000000000000081526101008160048173__$e990d9c4ebd8dc1dd043363d95ee352ae8$__5af49081156105ef578291610ca3575b6101008267ffffffffffffffff60e0604051928281511684528260208201511660208501528260408201511660408501528260608201511660608501528260808201511660808501528260a08201511660a08501528260c08201511660c085015201511660e0820152f35b9050610100813d8211610d60575b81610cbf61010093836110a2565b81010312610434576101009150610d5560e060405192610cde84611003565b610ce7816118c2565b8452610cf5602082016118c2565b6020850152610d06604082016118c2565b6040850152610d17606082016118c2565b6060850152610d28608082016118c2565b6080850152610d3960a082016118c2565b60a0850152610d4a60c082016118c2565b60c0850152016118c2565b60e08201525f610c38565b3d9150610cb1565b5034610ee45760807ffffffffffffffffffffffffffffffffffffffffffffffffffffffffffffffffc360112610ee457610da0611163565b60243567ffffffffffffffff8111610ee457610dc090369060040161111d565b60443567ffffffffffffffff8111610ee457610de090369060040161111d565b906064359173ffffffffffffffffffffffffffffffffffffffff8316809303610ee45773__$e990d9c4ebd8dc1dd043363d95ee352ae8$__90813b15610ee457610e83945f94610eb373ffffffffffffffffffffffffffffffffffffffff93604051988997889687967f4c2632300000000000000000000000000000000000000000000000000000000088521660048701526080602487015260848601906112ae565b907ffffffffffffffffffffffffffffffffffffffffffffffffffffffffffffffffc8583030160448601526112ae565b90606483015203915af48015610ed957610ecb575080f35b610ed791505f906110a2565b005b6040513d5f823e3d90fd5b5f80fd5b34610ee45760407ffffffffffffffffffffffffffffffffffffffffffffffffffffffffffffffffc360112610ee45760043567ffffffffffffffff8111610ee457610f3790369060040161111d565b60243567ffffffffffffffff8111610ee457610f9b610f5b5f9236906004016111bc565b92610fcb60405194859384937fdfd878ed0000000000000000000000000000000000000000000000000000000085526040600486015260448501906112ae565b907ffffffffffffffffffffffffffffffffffffffffffffffffffffffffffffffffc8483030160248501526117d1565b038173__$e990d9c4ebd8dc1dd043363d95ee352ae8$__5af48015610ed957610ff057005b610ed7903d805f833e6105e381836110a2565b610100810190811067ffffffffffffffff82111761102057604052565b7f4e487b71000000000000000000000000000000000000000000000000000000005f52604160045260245ffd5b6101a0810190811067ffffffffffffffff82111761102057604052565b6080810190811067ffffffffffffffff82111761102057604052565b6040810190811067ffffffffffffffff82111761102057604052565b90601f7fffffffffffffffffffffffffffffffffffffffffffffffffffffffffffffffe0910116810190811067ffffffffffffffff82111761102057604052565b67ffffffffffffffff811161102057601f017fffffffffffffffffffffffffffffffffffffffffffffffffffffffffffffffe01660200190565b81601f82011215610ee457803590611134826110e3565b9261114260405194856110a2565b82845260208383010111610ee457815f926020809301838601378301015290565b6004359073ffffffffffffffffffffffffffffffffffffffff82168203610ee457565b359073ffffffffffffffffffffffffffffffffffffffff82168203610ee457565b359067ffffffffffffffff82168203610ee457565b91909161010081840312610ee457604051906111d782611003565b81936111e282611186565b8352602082013567ffffffffffffffff8111610ee4578161120491840161111d565b6020840152604082013567ffffffffffffffff8111610ee4578161122991840161111d565b6040840152606082013567ffffffffffffffff8111610ee4578161124e91840161111d565b606084015260808201359067ffffffffffffffff8211610ee4578261127c60e094926112a99486940161111d565b608086015261128d60a082016111a7565b60a086015261129e60c082016111a7565b60c086015201611186565b910152565b907fffffffffffffffffffffffffffffffffffffffffffffffffffffffffffffffe0601f602080948051918291828752018686015e5f8582860101520116010190565b34610ee45760207ffffffffffffffffffffffffffffffffffffffffffffffffffffffffffffffffc360112610ee45760043563ffffffff8116809103610ee457604051907f9d69985d00000000000000000000000000000000000000000000000000000000825260048201525f8160248173__$e990d9c4ebd8dc1dd043363d95ee352ae8$__5af4908115610ed9575f916114d2575b506040518091602082016020835281518091526040830190602060408260051b8601019301915f905b8282106113bf57505050500390f35b91939092947fffffffffffffffffffffffffffffffffffffffffffffffffffffffffffffffc09082030182528451602061140282516040855260408501906112ae565b910151916020818303910152815180825260208201906020808260051b8501019401925f5b82811061144957505050505060208060019296019201920185949391926113b0565b90919293946020806114c5837fffffffffffffffffffffffffffffffffffffffffffffffffffffffffffffffe0876001960301895289519073ffffffffffffffffffffffffffffffffffffffff825116815260406114b48584015160608785015260608401906112ae565b9201519060408184039101526112ae565b9701950193929101611427565b90503d805f833e6114e381836110a2565b810190602081830312610ee45780519067ffffffffffffffff8211610ee457019080601f83011215610ee45781519161151b83611890565b9261152960405194856110a2565b80845260208085019160051b83010191838311610ee45760208101915b8383106115585750505050505f611387565b825167ffffffffffffffff8111610ee457820160407fffffffffffffffffffffffffffffffffffffffffffffffffffffffffffffffe08288030112610ee457604051906115a482611086565b602081015167ffffffffffffffff8111610ee4578760206115c7928401016118a8565b8252604081015167ffffffffffffffff8111610ee457602091010186601f82011215610ee4578051906115f982611890565b9161160760405193846110a2565b80835260208084019160051b83010191898311610ee45760208101915b838310611644575050505091816020938480940152815201920191611546565b82519067ffffffffffffffff8211610ee45760607fffffffffffffffffffffffffffffffffffffffffffffffffffffffffffffffe08d9385018094030112610ee457604051906060820182811067ffffffffffffffff82111761102057604052602083015173ffffffffffffffffffffffffffffffffffffffff81168103610ee4578252604083015167ffffffffffffffff8111610ee4578d60206116eb928601016118a8565b602083015260608301519167ffffffffffffffff8311610ee4576117178e6020809695819601016118a8565b6040820152815201920191611624565b9060048210156117345752565b7f4e487b71000000000000000000000000000000000000000000000000000000005f52602160045260245ffd5b92919261176d826110e3565b9161177b60405193846110a2565b829481845281830111610ee4578281602093845f96015e010152565b602081830312610ee45780519067ffffffffffffffff8211610ee457019080601f83011215610ee45781516117ce92602001611761565b90565b9073ffffffffffffffffffffffffffffffffffffffff825116815260e073ffffffffffffffffffffffffffffffffffffffff8161185e61184c61183a611828602089015161010060208a01526101008901906112ae565b604089015188820360408a01526112ae565b606088015187820360608901526112ae565b608087015186820360808801526112ae565b9467ffffffffffffffff60a08201511660a086015267ffffffffffffffff60c08201511660c086015201511691015290565b67ffffffffffffffff81116110205760051b60200190565b9080601f83011215610ee45781516117ce92602001611761565b519067ffffffffffffffff82168203610ee45756fea2646970667358221220750dc6b75f48bf2bc2595d1cbaf4e50ece69f8bd94cdeb29f4f5a0fa4299c53364736f6c634300081a0033",
        "linkReferences": {
            "src/wrappers/LibBlob.sol": {
                "LibBlob": [
                    {
                        "start": 363,
                        "length": 20
                    },
                    {
                        "start": 1203,
                        "length": 20
                    },
                    {
                        "start": 1479,
                        "length": 20
                    },
                    {
                        "start": 1686,
                        "length": 20
                    },
                    {
                        "start": 1885,
                        "length": 20
                    },
                    {
                        "start": 2125,
                        "length": 20
                    },
                    {
                        "start": 2853,
                        "length": 20
                    },
                    {
                        "start": 3119,
                        "length": 20
                    },
                    {
                        "start": 3615,
                        "length": 20
                    },
                    {
                        "start": 4073,
                        "length": 20
                    },
                    {
                        "start": 4990,
                        "length": 20
                    }
                ]
            }
        }
    },
    "methodIdentifiers": {
        "addBlob((address,string,string,string,string,uint64,uint64,address))": "c7fded60",
        "deleteBlob(address,string,string,address)": "4c263230",
        "getAddedBlobs(uint32)": "46877db8",
        "getBlob(string)": "f4a89bd0",
        "getBlobStatus(address,string,string)": "554df0f8",
        "getPendingBlobs(uint32)": "9d69985d",
        "getPendingBlobsCount()": "e7923ebb",
        "getPendingBytesCount()": "7525f96d",
        "getStorageStats()": "537b633a",
        "getStorageUsage(address)": "bf1a5af7",
        "getSubnetStats()": "67f6c710",
        "overwriteBlob(string,(address,string,string,string,string,uint64,uint64,address))": "1f196da0"
    },
    "storageLayout": {
        "storage": [],
        "types": {}
    },
    "id": 176
}