{
    "abi": [
        {
            "type": "function",
            "name": "addBlob",
            "inputs": [
                {
                    "name": "params",
                    "type": "tuple",
                    "internalType": "struct AddBlobParams",
                    "components": [
                        {
                            "name": "sponsor",
                            "type": "address",
                            "internalType": "address"
                        },
                        {
                            "name": "source",
                            "type": "string",
                            "internalType": "string"
                        },
                        {
                            "name": "blobHash",
                            "type": "string",
                            "internalType": "string"
                        },
                        {
                            "name": "metadataHash",
                            "type": "string",
                            "internalType": "string"
                        },
                        {
                            "name": "subscriptionId",
                            "type": "string",
                            "internalType": "string"
                        },
                        {
                            "name": "size",
                            "type": "uint64",
                            "internalType": "uint64"
                        },
                        {
                            "name": "ttl",
                            "type": "uint64",
                            "internalType": "uint64"
                        }
                    ]
                }
            ],
            "outputs": [],
            "stateMutability": "nonpayable"
        },
        {
            "type": "function",
            "name": "deleteBlob",
            "inputs": [
                {
                    "name": "subscriber",
                    "type": "address",
                    "internalType": "address"
                },
                {
                    "name": "blobHash",
                    "type": "string",
                    "internalType": "string"
                },
                {
                    "name": "subscriptionId",
                    "type": "string",
                    "internalType": "string"
                }
            ],
            "outputs": [],
            "stateMutability": "nonpayable"
        },
        {
            "type": "function",
            "name": "getAddedBlobs",
            "inputs": [
                {
                    "name": "size",
                    "type": "uint32",
                    "internalType": "uint32"
                }
            ],
            "outputs": [
                {
                    "name": "blobs",
                    "type": "tuple[]",
                    "internalType": "struct BlobTuple[]",
                    "components": [
                        {
                            "name": "blobHash",
                            "type": "string",
                            "internalType": "string"
                        },
                        {
                            "name": "sourceInfo",
                            "type": "tuple[]",
                            "internalType": "struct BlobSourceInfo[]",
                            "components": [
                                {
                                    "name": "subscriber",
                                    "type": "address",
                                    "internalType": "address"
                                },
                                {
                                    "name": "subscriptionId",
                                    "type": "string",
                                    "internalType": "string"
                                },
                                {
                                    "name": "source",
                                    "type": "string",
                                    "internalType": "string"
                                }
                            ]
                        }
                    ]
                }
            ],
            "stateMutability": "view"
        },
        {
            "type": "function",
            "name": "getBlob",
            "inputs": [
                {
                    "name": "blobHash",
                    "type": "string",
                    "internalType": "string"
                }
            ],
            "outputs": [
                {
                    "name": "blob",
                    "type": "tuple",
                    "internalType": "struct Blob",
                    "components": [
                        {
                            "name": "size",
                            "type": "uint64",
                            "internalType": "uint64"
                        },
                        {
                            "name": "metadataHash",
                            "type": "string",
                            "internalType": "string"
                        },
                        {
                            "name": "subscribers",
                            "type": "tuple[]",
                            "internalType": "struct Subscriber[]",
                            "components": [
                                {
                                    "name": "subscriber",
                                    "type": "address",
                                    "internalType": "address"
                                },
                                {
                                    "name": "subscriptionGroup",
                                    "type": "tuple[]",
                                    "internalType": "struct SubscriptionGroup[]",
                                    "components": [
                                        {
                                            "name": "subscriptionId",
                                            "type": "string",
                                            "internalType": "string"
                                        },
                                        {
                                            "name": "subscription",
                                            "type": "tuple",
                                            "internalType": "struct Subscription",
                                            "components": [
                                                {
                                                    "name": "added",
                                                    "type": "uint64",
                                                    "internalType": "uint64"
                                                },
                                                {
                                                    "name": "expiry",
                                                    "type": "uint64",
                                                    "internalType": "uint64"
                                                },
                                                {
                                                    "name": "source",
                                                    "type": "string",
                                                    "internalType": "string"
                                                },
                                                {
                                                    "name": "delegate",
                                                    "type": "address",
                                                    "internalType": "address"
                                                },
                                                {
                                                    "name": "failed",
                                                    "type": "bool",
                                                    "internalType": "bool"
                                                }
                                            ]
                                        }
                                    ]
                                }
                            ]
                        },
                        {
                            "name": "status",
                            "type": "uint8",
                            "internalType": "enum BlobStatus"
                        }
                    ]
                }
            ],
            "stateMutability": "view"
        },
        {
            "type": "function",
            "name": "getBlobStatus",
            "inputs": [
                {
                    "name": "subscriber",
                    "type": "address",
                    "internalType": "address"
                },
                {
                    "name": "blobHash",
                    "type": "string",
                    "internalType": "string"
                },
                {
                    "name": "subscriptionId",
                    "type": "string",
                    "internalType": "string"
                }
            ],
            "outputs": [
                {
                    "name": "status",
                    "type": "uint8",
                    "internalType": "enum BlobStatus"
                }
            ],
            "stateMutability": "view"
        },
        {
            "type": "function",
            "name": "getPendingBlobs",
            "inputs": [
                {
                    "name": "size",
                    "type": "uint32",
                    "internalType": "uint32"
                }
            ],
            "outputs": [
                {
                    "name": "blobs",
                    "type": "tuple[]",
                    "internalType": "struct BlobTuple[]",
                    "components": [
                        {
                            "name": "blobHash",
                            "type": "string",
                            "internalType": "string"
                        },
                        {
                            "name": "sourceInfo",
                            "type": "tuple[]",
                            "internalType": "struct BlobSourceInfo[]",
                            "components": [
                                {
                                    "name": "subscriber",
                                    "type": "address",
                                    "internalType": "address"
                                },
                                {
                                    "name": "subscriptionId",
                                    "type": "string",
                                    "internalType": "string"
                                },
                                {
                                    "name": "source",
                                    "type": "string",
                                    "internalType": "string"
                                }
                            ]
                        }
                    ]
                }
            ],
            "stateMutability": "view"
        },
        {
            "type": "function",
            "name": "getPendingBlobsCount",
            "inputs": [],
            "outputs": [
                {
                    "name": "",
                    "type": "uint64",
                    "internalType": "uint64"
                }
            ],
            "stateMutability": "view"
        },
        {
            "type": "function",
            "name": "getPendingBytesCount",
            "inputs": [],
            "outputs": [
                {
                    "name": "",
                    "type": "uint64",
                    "internalType": "uint64"
                }
            ],
            "stateMutability": "view"
        },
        {
            "type": "function",
            "name": "getStorageStats",
            "inputs": [],
            "outputs": [
                {
                    "name": "stats",
                    "type": "tuple",
                    "internalType": "struct StorageStats",
                    "components": [
                        {
                            "name": "capacityFree",
                            "type": "uint64",
                            "internalType": "uint64"
                        },
                        {
                            "name": "capacityUsed",
                            "type": "uint64",
                            "internalType": "uint64"
                        },
                        {
                            "name": "numBlobs",
                            "type": "uint64",
                            "internalType": "uint64"
                        },
                        {
                            "name": "numResolving",
                            "type": "uint64",
                            "internalType": "uint64"
                        },
                        {
                            "name": "numAccounts",
                            "type": "uint64",
                            "internalType": "uint64"
                        },
                        {
                            "name": "bytesResolving",
                            "type": "uint64",
                            "internalType": "uint64"
                        },
                        {
                            "name": "numAdded",
                            "type": "uint64",
                            "internalType": "uint64"
                        },
                        {
                            "name": "bytesAdded",
                            "type": "uint64",
                            "internalType": "uint64"
                        }
                    ]
                }
            ],
            "stateMutability": "view"
        },
        {
            "type": "function",
            "name": "getStorageUsage",
            "inputs": [
                {
                    "name": "addr",
                    "type": "address",
                    "internalType": "address"
                }
            ],
            "outputs": [
                {
                    "name": "",
                    "type": "uint256",
                    "internalType": "uint256"
                }
            ],
            "stateMutability": "view"
        },
        {
            "type": "function",
            "name": "getSubnetStats",
            "inputs": [],
            "outputs": [
                {
                    "name": "stats",
                    "type": "tuple",
                    "internalType": "struct SubnetStats",
                    "components": [
                        {
                            "name": "balance",
                            "type": "uint256",
                            "internalType": "uint256"
                        },
                        {
                            "name": "capacityFree",
                            "type": "uint64",
                            "internalType": "uint64"
                        },
                        {
                            "name": "capacityUsed",
                            "type": "uint64",
                            "internalType": "uint64"
                        },
                        {
                            "name": "creditSold",
                            "type": "uint256",
                            "internalType": "uint256"
                        },
                        {
                            "name": "creditCommitted",
                            "type": "uint256",
                            "internalType": "uint256"
                        },
                        {
                            "name": "creditDebited",
                            "type": "uint256",
                            "internalType": "uint256"
                        },
                        {
                            "name": "tokenCreditRate",
                            "type": "uint256",
                            "internalType": "uint256"
                        },
                        {
                            "name": "numAccounts",
                            "type": "uint64",
                            "internalType": "uint64"
                        },
                        {
                            "name": "numBlobs",
                            "type": "uint64",
                            "internalType": "uint64"
                        },
                        {
                            "name": "numAdded",
                            "type": "uint64",
                            "internalType": "uint64"
                        },
                        {
                            "name": "bytesAdded",
                            "type": "uint64",
                            "internalType": "uint64"
                        },
                        {
                            "name": "numResolving",
                            "type": "uint64",
                            "internalType": "uint64"
                        },
                        {
                            "name": "bytesResolving",
                            "type": "uint64",
                            "internalType": "uint64"
                        }
                    ]
                }
            ],
            "stateMutability": "view"
        },
        {
            "type": "function",
            "name": "overwriteBlob",
            "inputs": [
                {
                    "name": "oldHash",
                    "type": "string",
                    "internalType": "string"
                },
                {
                    "name": "params",
                    "type": "tuple",
                    "internalType": "struct AddBlobParams",
                    "components": [
                        {
                            "name": "sponsor",
                            "type": "address",
                            "internalType": "address"
                        },
                        {
                            "name": "source",
                            "type": "string",
                            "internalType": "string"
                        },
                        {
                            "name": "blobHash",
                            "type": "string",
                            "internalType": "string"
                        },
                        {
                            "name": "metadataHash",
                            "type": "string",
                            "internalType": "string"
                        },
                        {
                            "name": "subscriptionId",
                            "type": "string",
                            "internalType": "string"
                        },
                        {
                            "name": "size",
                            "type": "uint64",
                            "internalType": "uint64"
                        },
                        {
                            "name": "ttl",
                            "type": "uint64",
                            "internalType": "uint64"
                        }
                    ]
                }
            ],
            "outputs": [],
            "stateMutability": "nonpayable"
        },
        {
            "type": "event",
            "name": "AddBlob",
            "inputs": [
                {
                    "name": "caller",
                    "type": "address",
                    "indexed": true,
                    "internalType": "address"
                },
                {
                    "name": "sponsor",
                    "type": "address",
                    "indexed": true,
                    "internalType": "address"
                },
                {
                    "name": "blobHash",
                    "type": "string",
                    "indexed": false,
                    "internalType": "string"
                },
                {
                    "name": "subscriptionId",
                    "type": "string",
                    "indexed": false,
                    "internalType": "string"
                }
            ],
            "anonymous": false
        },
        {
            "type": "event",
            "name": "DeleteBlob",
            "inputs": [
                {
                    "name": "caller",
                    "type": "address",
                    "indexed": true,
                    "internalType": "address"
                },
                {
                    "name": "subscriber",
                    "type": "address",
                    "indexed": true,
                    "internalType": "address"
                },
                {
                    "name": "blobHash",
                    "type": "string",
                    "indexed": false,
                    "internalType": "string"
                },
                {
                    "name": "subscriptionId",
                    "type": "string",
                    "indexed": false,
                    "internalType": "string"
                }
            ],
            "anonymous": false
        },
        {
            "type": "event",
            "name": "OverwriteBlob",
            "inputs": [
                {
                    "name": "caller",
                    "type": "address",
                    "indexed": true,
                    "internalType": "address"
                },
                {
                    "name": "oldHash",
                    "type": "string",
                    "indexed": false,
                    "internalType": "string"
                },
                {
                    "name": "newHash",
                    "type": "string",
                    "indexed": false,
                    "internalType": "string"
                },
                {
                    "name": "subscriptionId",
                    "type": "string",
                    "indexed": false,
                    "internalType": "string"
                }
            ],
            "anonymous": false
        }
    ],
    "bytecode": {
        "object": "0x60808060405234601557611727908161001a8239f35b5f80fdfe60806040526004361015610011575f80fd5b5f803560e01c80633024b06414610e0857806346877db8146107f2578063537b633a14610c5c578063554df0f814610bb85780636312deb814610ad357806367f6c7101461088c5780637525f96d146107f75780639d69985d146107f2578063b9d64bde1461072d578063bf1a5af71461067c578063e7923ebb146105d55763f4a89bd01461009e575f80fd5b346105d25760203660031901126105d2576004356001600160401b0381116105ce5790806100d3610115933690600401610ffb565b8160606040516100e281610f89565b828152816020820152816040820152015260405180948192630f4a89bd60e41b835260206004840152602483019061114d565b038173__$e990d9c4ebd8dc1dd043363d95ee352ae8$__5af49182156105c15781926102ba575b5060405190602082526001600160401b03835116602083015261016e60208401516080604085015260a084019061114d565b92604081015191601f19848603016060850152825180865260208601916020808360051b890101950192815b8383106101ba578780886101b660608a0151608084019061152a565b0390f35b9091929395601f198982030183528651906020604082019260018060a01b0381511683520151916040602083015282518091526060820190602060608260051b850101940192855b8281106102235750505050506020806001929801930193019193929061019a565b9091929394602080600192605f1986820301885288518261024d825160408552604085019061114d565b91015191838183039101526001600160401b0382511681526001600160401b03838301511683820152608080610292604085015160a0604086015260a085019061114d565b93878060a01b0360608201511660608501520151151591015297019501910192919092610202565b9091503d8083833e6102cc8183610fbf565b8101906020818303126103b4578051906001600160401b0382116105bd57016080818303126103b4576040519061030282610f89565b61030b81611682565b825260208101516001600160401b0381116105b9578361032c918301611654565b602083015260408101516001600160401b0381116105b95781019280601f850112156105b957835161035d8161163d565b9161036b6040519384610fbf565b81835260208084019260051b870101958187116105b55760208101925b8784106103b8575050505082935060406060930152015160048110156103b4576060820152905f61013c565b8280fd5b83516001600160401b0381116105b15782016040818503601f1901126105b157604051906103e582610fa4565b6103f16020820161166e565b825260408101516001600160401b0381116105ad57602091010184601f820112156105a95780516104218161163d565b9161042f6040519384610fbf565b81835260208084019260051b820101908782116105a55760208101925b82841061046c575050505091816020938480940152815201930192610388565b83516001600160401b0381116105a15782016040818b03601f1901126105a1576040519061049982610fa4565b60208101516001600160401b038111610577578b60206104bb92840101611654565b825260408101516001600160401b0381116105775760209101019160a0838c031261059c576040519260a084018481106001600160401b038211176105845760405261050681611682565b845261051460208201611682565b60208501526040810151906001600160401b03821161057d5761053b8d6080938301611654565b604086015261054c6060820161166e565b606086015201519182151583036105775783602094936080869501528382015281520193019261044c565b50508f80fd5b5050508f80fd5b5050505060248f634e487b7160e01b81526041600452fd5b508f80fd5b8f80fd5b8d80fd5b8a80fd5b8b80fd5b8980fd5b8780fd5b8480fd5b8380fd5b50604051903d90823e3d90fd5b5080fd5b80fd5b50346105d257806003193601126105d25760405163e7923ebb60e01b81529060208260048173__$e990d9c4ebd8dc1dd043363d95ee352ae8$__5af4908115610670578091610633575b6020826001600160401b0360405191168152f35b90506020823d602011610668575b8161064e60209383610fbf565b810103126105d25750610662602091611682565b5f61061f565b3d9150610641565b604051903d90823e3d90fd5b50346105d25760203660031901126105d2576004356001600160a01b038116908190036105ce576040519063bf1a5af760e01b8252600482015260208160248173__$e990d9c4ebd8dc1dd043363d95ee352ae8$__5af49081156107225782916106ec575b602082604051908152f35b90506020813d60201161071a575b8161070760209383610fbf565b810103126105ce5760209150515f6106e1565b3d91506106fa565b6040513d84823e3d90fd5b50346107ee5761073c366114ca565b9173__$e990d9c4ebd8dc1dd043363d95ee352ae8$__803b156107ee575f6040518092635ceb25ef60e11b8252818061077a89898960048501611696565b03915af480156107e3576107cc575b506107c67ffc0b88b10f3dacbc1ef1a05b1b2f07f791b079f92de0d1e464b51c394125208f9160405191829160018060a01b0316953395836116cc565b0390a380f35b6107d99194505f90610fbf565b5f926107c6610789565b6040513d5f823e3d90fd5b5f80fd5b611171565b346107ee575f3660031901126107ee57604051637525f96d60e01b815260208160048173__$e990d9c4ebd8dc1dd043363d95ee352ae8$__5af480156107e3575f90610852575b6020906001600160401b0360405191168152f35b506020813d602011610884575b8161086c60209383610fbf565b810103126107ee5761087f602091611682565b61083e565b3d915061085f565b346107ee575f3660031901126107ee575f6101806040516108ac81610f6d565b8281528260208201528260408201528260608201528260808201528260a08201528260c08201528260e082015282610100820152826101208201528261014082015282610160820152015260405163067f6c7160e41b81526101a08160048173__$e990d9c4ebd8dc1dd043363d95ee352ae8$__5af480156107e3575f906109d5575b6101a0906001600160401b036101806040519280518452826020820151166020850152826040820151166040850152606081015160608501526080810151608085015260a081015160a085015260c081015160c08501528260e08201511660e08501528261010082015116610100850152826101208201511661012085015282610140820151166101408501528261016082015116610160850152015116610180820152f35b506101a0813d8211610acb575b816109f06101a09383610fbf565b810103126107ee576101a090610ac061018060405192610a0f84610f6d565b80518452610a1f60208201611682565b6020850152610a3060408201611682565b6040850152606081015160608501526080810151608085015260a081015160a085015260c081015160c0850152610a6960e08201611682565b60e0850152610a7b6101008201611682565b610100850152610a8e6101208201611682565b610120850152610aa16101408201611682565b610140850152610ab46101608201611682565b61016085015201611682565b61018082015261092f565b3d91506109e2565b346107ee5760203660031901126107ee576004356001600160401b0381116107ee57610b03903690600401611055565b6040516306b70ef360e51b8152602060048201525f8180610b2760248201866115b7565b038173__$e990d9c4ebd8dc1dd043363d95ee352ae8$__5af480156107e357610b98575b5060018060a01b03815116907fc6d59e590b1d011b1c8c1d8dc181321d5a6a46d233e4ccfbb53242c3926cf6d7610b93608060408401519301516040519182913395836116cc565b0390a3005b610bb3903d805f833e610bab8183610fbf565b810190611581565b610b4b565b346107ee576020610bc8366114ca565b9291610be86040519485938493630aa9be1f60e31b855260048501611696565b038173__$e990d9c4ebd8dc1dd043363d95ee352ae8$__5af480156107e3575f90610c20575b602090610c1e604051809261152a565bf35b506020813d602011610c54575b81610c3a60209383610fbf565b810103126107ee575160048110156107ee57602090610c0e565b3d9150610c2d565b346107ee575f3660031901126107ee575f60e0604051610c7b81610f3d565b8281528260208201528260408201528260608201528260808201528260a08201528260c082015201526040516329bdb19d60e11b81526101008160048173__$e990d9c4ebd8dc1dd043363d95ee352ae8$__5af480156107e3575f90610d46575b610100906001600160401b0360e0604051928281511684528260208201511660208501528260408201511660408501528260608201511660608501528260808201511660808501528260a08201511660a08501528260c08201511660c085015201511660e0820152f35b50610100813d8211610e00575b81610d616101009383610fbf565b810103126107ee5761010090610df660e060405192610d7f84610f3d565b610d8881611682565b8452610d9660208201611682565b6020850152610da760408201611682565b6040850152610db860608201611682565b6060850152610dc960808201611682565b6080850152610dda60a08201611682565b60a0850152610deb60c08201611682565b60c085015201611682565b60e0820152610cdc565b3d9150610d53565b346107ee5760403660031901126107ee576004356001600160401b0381116107ee57610e38903690600401610ffb565b6024356001600160401b0381116107ee57610e57903690600401611055565b906040519063dfd878ed60e01b8252604060048301525f8280610e92610e80604483018661114d565b828103600319016024840152876115b7565b038173__$e990d9c4ebd8dc1dd043363d95ee352ae8$__5af49081156107e3577fa0926267b9d3ecf6bfeca3c26eba50c219cc76721ec8f94692034b6de9d14e0a92610f0392610f25575b50610f20610f11608060408701519601519560405194859460608652606086019061114d565b90848203602086015261114d565b8281036040840152339561114d565b0390a2005b610f38903d805f833e610bab8183610fbf565b610edd565b61010081019081106001600160401b03821117610f5957604052565b634e487b7160e01b5f52604160045260245ffd5b6101a081019081106001600160401b03821117610f5957604052565b608081019081106001600160401b03821117610f5957604052565b604081019081106001600160401b03821117610f5957604052565b90601f801991011681019081106001600160401b03821117610f5957604052565b6001600160401b038111610f5957601f01601f191660200190565b81601f820112156107ee5780359061101282610fe0565b926110206040519485610fbf565b828452602083830101116107ee57815f926020809301838601378301015290565b35906001600160401b03821682036107ee57565b91909160e0818403126107ee576040519060e082018281106001600160401b03821117610f5957604052909283919081356001600160a01b03811681036107ee57835260208201356001600160401b0381116107ee57816110b7918401610ffb565b602084015260408201356001600160401b0381116107ee57816110db918401610ffb565b604084015260608201356001600160401b0381116107ee57816110ff918401610ffb565b60608401526080820135906001600160401b0382116107ee578261112c60c0949261114894869401610ffb565b608086015261113d60a08201611041565b60a086015201611041565b910152565b805180835260209291819084018484015e5f828201840152601f01601f1916010190565b346107ee5760203660031901126107ee5760043563ffffffff81168091036107ee5760405190639d69985d60e01b825260048201525f8160248173__$e990d9c4ebd8dc1dd043363d95ee352ae8$__5af49081156107e3575f916112d1575b506040518091602082016020835281518091526040830190602060408260051b8601019301915f905b82821061120857505050500390f35b919390929450603f198682030182528451602061122e825160408552604085019061114d565b910151916020818303910152815180825260208201906020808260051b8501019401925f5b82811061127557505050505060208060019296019201920185949391926111f9565b90919293946020806112c4600193601f19878203018952895190858060a01b03825116815260406112b385840151606087850152606084019061114d565b92015190604081840391015261114d565b9701950193929101611253565b90503d805f833e6112e28183610fbf565b8101906020818303126107ee578051906001600160401b0382116107ee57019080601f830112156107ee578151916113198361163d565b926113276040519485610fbf565b80845260208085019160051b830101918383116107ee5760208101915b8383106113565750505050505f6111d0565b82516001600160401b0381116107ee5782016040818703601f1901126107ee576040519061138382610fa4565b60208101516001600160401b0381116107ee578760206113a592840101611654565b825260408101516001600160401b0381116107ee57602091010186601f820112156107ee578051906113d68261163d565b916113e46040519384610fbf565b80835260208084019160051b830101918983116107ee5760208101915b838310611421575050505091816020938480940152815201920191611344565b82516001600160401b0381116107ee578201906060828d03601f1901126107ee5760405190606082018281106001600160401b03821117610f595760405261146b6020840161166e565b825260408301516001600160401b0381116107ee578d602061148f92860101611654565b60208301526060830151916001600160401b0383116107ee576114ba8e602080969581960101611654565b6040820152815201920191611401565b60606003198201126107ee576004356001600160a01b03811681036107ee57916024356001600160401b0381116107ee578261150891600401610ffb565b91604435906001600160401b0382116107ee5761152791600401610ffb565b90565b9060048210156115375752565b634e487b7160e01b5f52602160045260245ffd5b92919261155782610fe0565b916115656040519384610fbf565b8294818452818301116107ee578281602093845f96015e010152565b6020818303126107ee578051906001600160401b0382116107ee57019080601f830112156107ee5781516115279260200161154b565b9060018060a01b03825116815260c06001600160401b03816116276116156116036115f1602089015160e060208a015260e089019061114d565b604089015188820360408a015261114d565b6060880151878203606089015261114d565b6080870151868203608088015261114d565b948260a08201511660a086015201511691015290565b6001600160401b038111610f595760051b60200190565b9080601f830112156107ee5781516115279260200161154b565b51906001600160a01b03821682036107ee57565b51906001600160401b03821682036107ee57565b6001600160a01b0390911681526060602082018190526115279391926116be9184019061114d565b91604081840391015261114d565b90916116e36115279360408452604084019061114d565b91602081840391015261114d56fea2646970667358221220913e4fb4d9cd395466027ea1ae4cfef82c46ca3e6f661f95796c3dc89da3f18c64736f6c634300081a0033",
        "linkReferences": {
            "src/wrappers/LibBlob.sol": {
                "LibBlob": [
                    {
                        "start": 307,
                        "length": 20
                    },
                    {
                        "start": 1558,
                        "length": 20
                    },
                    {
                        "start": 1752,
                        "length": 20
                    },
                    {
                        "start": 1881,
                        "length": 20
                    },
                    {
                        "start": 2102,
                        "length": 20
                    },
                    {
                        "start": 2343,
                        "length": 20
                    },
                    {
                        "start": 2885,
                        "length": 20
                    },
                    {
                        "start": 3078,
                        "length": 20
                    },
                    {
                        "start": 3284,
                        "length": 20
                    },
                    {
                        "start": 3760,
                        "length": 20
                    },
                    {
                        "start": 4551,
                        "length": 20
                    }
                ]
            }
        }
    },
    "methodIdentifiers": {
        "addBlob((address,string,string,string,string,uint64,uint64))": "6312deb8",
        "deleteBlob(address,string,string)": "b9d64bde",
        "getAddedBlobs(uint32)": "46877db8",
        "getBlob(string)": "f4a89bd0",
        "getBlobStatus(address,string,string)": "554df0f8",
        "getPendingBlobs(uint32)": "9d69985d",
        "getPendingBlobsCount()": "e7923ebb",
        "getPendingBytesCount()": "7525f96d",
        "getStorageStats()": "537b633a",
        "getStorageUsage(address)": "bf1a5af7",
        "getSubnetStats()": "67f6c710",
        "overwriteBlob(string,(address,string,string,string,string,uint64,uint64))": "3024b064"
    },
    "storageLayout": {
        "storage": [],
        "types": {}
    },
    "id": 54
}