{
    "abi": [
        {
            "type": "function",
            "name": "addObject",
            "inputs": [
                {
                    "name": "bucket",
                    "type": "address",
                    "internalType": "address"
                },
                {
                    "name": "params",
                    "type": "tuple",
                    "internalType": "struct AddObjectParams",
                    "components": [
                        {
                            "name": "source",
                            "type": "string",
                            "internalType": "string"
                        },
                        {
                            "name": "key",
                            "type": "string",
                            "internalType": "string"
                        },
                        {
                            "name": "blobHash",
                            "type": "string",
                            "internalType": "string"
                        },
                        {
                            "name": "recoveryHash",
                            "type": "string",
                            "internalType": "string"
                        },
                        {
                            "name": "size",
                            "type": "uint64",
                            "internalType": "uint64"
                        },
                        {
                            "name": "ttl",
                            "type": "uint64",
                            "internalType": "uint64"
                        },
                        {
                            "name": "metadata",
                            "type": "tuple[]",
                            "internalType": "struct KeyValue[]",
                            "components": [
                                {
                                    "name": "key",
                                    "type": "string",
                                    "internalType": "string"
                                },
                                {
                                    "name": "value",
                                    "type": "string",
                                    "internalType": "string"
                                }
                            ]
                        },
                        {
                            "name": "overwrite",
                            "type": "bool",
                            "internalType": "bool"
                        }
                    ]
                }
            ],
            "outputs": [],
            "stateMutability": "nonpayable"
        },
        {
            "type": "function",
            "name": "addObject",
            "inputs": [
                {
                    "name": "bucket",
                    "type": "address",
                    "internalType": "address"
                },
                {
                    "name": "source",
                    "type": "string",
                    "internalType": "string"
                },
                {
                    "name": "key",
                    "type": "string",
                    "internalType": "string"
                },
                {
                    "name": "blobHash",
                    "type": "string",
                    "internalType": "string"
                },
                {
                    "name": "recoveryHash",
                    "type": "string",
                    "internalType": "string"
                },
                {
                    "name": "size",
                    "type": "uint64",
                    "internalType": "uint64"
                }
            ],
            "outputs": [],
            "stateMutability": "nonpayable"
        },
        {
            "type": "function",
            "name": "createBucket",
            "inputs": [],
            "outputs": [],
            "stateMutability": "nonpayable"
        },
        {
            "type": "function",
            "name": "createBucket",
            "inputs": [
                {
                    "name": "owner",
                    "type": "address",
                    "internalType": "address"
                },
                {
                    "name": "metadata",
                    "type": "tuple[]",
                    "internalType": "struct KeyValue[]",
                    "components": [
                        {
                            "name": "key",
                            "type": "string",
                            "internalType": "string"
                        },
                        {
                            "name": "value",
                            "type": "string",
                            "internalType": "string"
                        }
                    ]
                }
            ],
            "outputs": [],
            "stateMutability": "nonpayable"
        },
        {
            "type": "function",
            "name": "createBucket",
            "inputs": [
                {
                    "name": "owner",
                    "type": "address",
                    "internalType": "address"
                }
            ],
            "outputs": [],
            "stateMutability": "nonpayable"
        },
        {
            "type": "function",
            "name": "deleteObject",
            "inputs": [
                {
                    "name": "bucket",
                    "type": "address",
                    "internalType": "address"
                },
                {
                    "name": "key",
                    "type": "string",
                    "internalType": "string"
                }
            ],
            "outputs": [],
            "stateMutability": "nonpayable"
        },
        {
            "type": "function",
            "name": "getObject",
            "inputs": [
                {
                    "name": "bucket",
                    "type": "address",
                    "internalType": "address"
                },
                {
                    "name": "key",
                    "type": "string",
                    "internalType": "string"
                }
            ],
            "outputs": [
                {
                    "name": "",
                    "type": "tuple",
                    "internalType": "struct ObjectValue",
                    "components": [
                        {
                            "name": "blobHash",
                            "type": "string",
                            "internalType": "string"
                        },
                        {
                            "name": "recoveryHash",
                            "type": "string",
                            "internalType": "string"
                        },
                        {
                            "name": "size",
                            "type": "uint64",
                            "internalType": "uint64"
                        },
                        {
                            "name": "expiry",
                            "type": "uint64",
                            "internalType": "uint64"
                        },
                        {
                            "name": "metadata",
                            "type": "tuple[]",
                            "internalType": "struct KeyValue[]",
                            "components": [
                                {
                                    "name": "key",
                                    "type": "string",
                                    "internalType": "string"
                                },
                                {
                                    "name": "value",
                                    "type": "string",
                                    "internalType": "string"
                                }
                            ]
                        }
                    ]
                }
            ],
            "stateMutability": "view"
        },
        {
            "type": "function",
            "name": "listBuckets",
            "inputs": [],
            "outputs": [
                {
                    "name": "",
                    "type": "tuple[]",
                    "internalType": "struct Machine[]",
                    "components": [
                        {
                            "name": "kind",
                            "type": "uint8",
                            "internalType": "enum Kind"
                        },
                        {
                            "name": "addr",
                            "type": "address",
                            "internalType": "address"
                        },
                        {
                            "name": "metadata",
                            "type": "tuple[]",
                            "internalType": "struct KeyValue[]",
                            "components": [
                                {
                                    "name": "key",
                                    "type": "string",
                                    "internalType": "string"
                                },
                                {
                                    "name": "value",
                                    "type": "string",
                                    "internalType": "string"
                                }
                            ]
                        }
                    ]
                }
            ],
            "stateMutability": "view"
        },
        {
            "type": "function",
            "name": "listBuckets",
            "inputs": [
                {
                    "name": "owner",
                    "type": "address",
                    "internalType": "address"
                }
            ],
            "outputs": [
                {
                    "name": "",
                    "type": "tuple[]",
                    "internalType": "struct Machine[]",
                    "components": [
                        {
                            "name": "kind",
                            "type": "uint8",
                            "internalType": "enum Kind"
                        },
                        {
                            "name": "addr",
                            "type": "address",
                            "internalType": "address"
                        },
                        {
                            "name": "metadata",
                            "type": "tuple[]",
                            "internalType": "struct KeyValue[]",
                            "components": [
                                {
                                    "name": "key",
                                    "type": "string",
                                    "internalType": "string"
                                },
                                {
                                    "name": "value",
                                    "type": "string",
                                    "internalType": "string"
                                }
                            ]
                        }
                    ]
                }
            ],
            "stateMutability": "view"
        },
        {
            "type": "function",
            "name": "queryObjects",
            "inputs": [
                {
                    "name": "bucket",
                    "type": "address",
                    "internalType": "address"
                }
            ],
            "outputs": [
                {
                    "name": "",
                    "type": "tuple",
                    "internalType": "struct Query",
                    "components": [
                        {
                            "name": "objects",
                            "type": "tuple[]",
                            "internalType": "struct Object[]",
                            "components": [
                                {
                                    "name": "key",
                                    "type": "string",
                                    "internalType": "string"
                                },
                                {
                                    "name": "state",
                                    "type": "tuple",
                                    "internalType": "struct ObjectState",
                                    "components": [
                                        {
                                            "name": "blobHash",
                                            "type": "string",
                                            "internalType": "string"
                                        },
                                        {
                                            "name": "size",
                                            "type": "uint64",
                                            "internalType": "uint64"
                                        },
                                        {
                                            "name": "metadata",
                                            "type": "tuple[]",
                                            "internalType": "struct KeyValue[]",
                                            "components": [
                                                {
                                                    "name": "key",
                                                    "type": "string",
                                                    "internalType": "string"
                                                },
                                                {
                                                    "name": "value",
                                                    "type": "string",
                                                    "internalType": "string"
                                                }
                                            ]
                                        }
                                    ]
                                }
                            ]
                        },
                        {
                            "name": "commonPrefixes",
                            "type": "string[]",
                            "internalType": "string[]"
                        },
                        {
                            "name": "nextKey",
                            "type": "string",
                            "internalType": "string"
                        }
                    ]
                }
            ],
            "stateMutability": "view"
        },
        {
            "type": "function",
            "name": "queryObjects",
            "inputs": [
                {
                    "name": "bucket",
                    "type": "address",
                    "internalType": "address"
                },
                {
                    "name": "prefix",
                    "type": "string",
                    "internalType": "string"
                },
                {
                    "name": "delimiter",
                    "type": "string",
                    "internalType": "string"
                },
                {
                    "name": "startKey",
                    "type": "string",
                    "internalType": "string"
                },
                {
                    "name": "limit",
                    "type": "uint64",
                    "internalType": "uint64"
                }
            ],
            "outputs": [
                {
                    "name": "",
                    "type": "tuple",
                    "internalType": "struct Query",
                    "components": [
                        {
                            "name": "objects",
                            "type": "tuple[]",
                            "internalType": "struct Object[]",
                            "components": [
                                {
                                    "name": "key",
                                    "type": "string",
                                    "internalType": "string"
                                },
                                {
                                    "name": "state",
                                    "type": "tuple",
                                    "internalType": "struct ObjectState",
                                    "components": [
                                        {
                                            "name": "blobHash",
                                            "type": "string",
                                            "internalType": "string"
                                        },
                                        {
                                            "name": "size",
                                            "type": "uint64",
                                            "internalType": "uint64"
                                        },
                                        {
                                            "name": "metadata",
                                            "type": "tuple[]",
                                            "internalType": "struct KeyValue[]",
                                            "components": [
                                                {
                                                    "name": "key",
                                                    "type": "string",
                                                    "internalType": "string"
                                                },
                                                {
                                                    "name": "value",
                                                    "type": "string",
                                                    "internalType": "string"
                                                }
                                            ]
                                        }
                                    ]
                                }
                            ]
                        },
                        {
                            "name": "commonPrefixes",
                            "type": "string[]",
                            "internalType": "string[]"
                        },
                        {
                            "name": "nextKey",
                            "type": "string",
                            "internalType": "string"
                        }
                    ]
                }
            ],
            "stateMutability": "view"
        },
        {
            "type": "function",
            "name": "queryObjects",
            "inputs": [
                {
                    "name": "bucket",
                    "type": "address",
                    "internalType": "address"
                },
                {
                    "name": "prefix",
                    "type": "string",
                    "internalType": "string"
                },
                {
                    "name": "delimiter",
                    "type": "string",
                    "internalType": "string"
                }
            ],
            "outputs": [
                {
                    "name": "",
                    "type": "tuple",
                    "internalType": "struct Query",
                    "components": [
                        {
                            "name": "objects",
                            "type": "tuple[]",
                            "internalType": "struct Object[]",
                            "components": [
                                {
                                    "name": "key",
                                    "type": "string",
                                    "internalType": "string"
                                },
                                {
                                    "name": "state",
                                    "type": "tuple",
                                    "internalType": "struct ObjectState",
                                    "components": [
                                        {
                                            "name": "blobHash",
                                            "type": "string",
                                            "internalType": "string"
                                        },
                                        {
                                            "name": "size",
                                            "type": "uint64",
                                            "internalType": "uint64"
                                        },
                                        {
                                            "name": "metadata",
                                            "type": "tuple[]",
                                            "internalType": "struct KeyValue[]",
                                            "components": [
                                                {
                                                    "name": "key",
                                                    "type": "string",
                                                    "internalType": "string"
                                                },
                                                {
                                                    "name": "value",
                                                    "type": "string",
                                                    "internalType": "string"
                                                }
                                            ]
                                        }
                                    ]
                                }
                            ]
                        },
                        {
                            "name": "commonPrefixes",
                            "type": "string[]",
                            "internalType": "string[]"
                        },
                        {
                            "name": "nextKey",
                            "type": "string",
                            "internalType": "string"
                        }
                    ]
                }
            ],
            "stateMutability": "view"
        },
        {
            "type": "function",
            "name": "queryObjects",
            "inputs": [
                {
                    "name": "bucket",
                    "type": "address",
                    "internalType": "address"
                },
                {
                    "name": "prefix",
                    "type": "string",
                    "internalType": "string"
                },
                {
                    "name": "delimiter",
                    "type": "string",
                    "internalType": "string"
                },
                {
                    "name": "startKey",
                    "type": "string",
                    "internalType": "string"
                }
            ],
            "outputs": [
                {
                    "name": "",
                    "type": "tuple",
                    "internalType": "struct Query",
                    "components": [
                        {
                            "name": "objects",
                            "type": "tuple[]",
                            "internalType": "struct Object[]",
                            "components": [
                                {
                                    "name": "key",
                                    "type": "string",
                                    "internalType": "string"
                                },
                                {
                                    "name": "state",
                                    "type": "tuple",
                                    "internalType": "struct ObjectState",
                                    "components": [
                                        {
                                            "name": "blobHash",
                                            "type": "string",
                                            "internalType": "string"
                                        },
                                        {
                                            "name": "size",
                                            "type": "uint64",
                                            "internalType": "uint64"
                                        },
                                        {
                                            "name": "metadata",
                                            "type": "tuple[]",
                                            "internalType": "struct KeyValue[]",
                                            "components": [
                                                {
                                                    "name": "key",
                                                    "type": "string",
                                                    "internalType": "string"
                                                },
                                                {
                                                    "name": "value",
                                                    "type": "string",
                                                    "internalType": "string"
                                                }
                                            ]
                                        }
                                    ]
                                }
                            ]
                        },
                        {
                            "name": "commonPrefixes",
                            "type": "string[]",
                            "internalType": "string[]"
                        },
                        {
                            "name": "nextKey",
                            "type": "string",
                            "internalType": "string"
                        }
                    ]
                }
            ],
            "stateMutability": "view"
        },
        {
            "type": "function",
            "name": "queryObjects",
            "inputs": [
                {
                    "name": "bucket",
                    "type": "address",
                    "internalType": "address"
                },
                {
                    "name": "prefix",
                    "type": "string",
                    "internalType": "string"
                }
            ],
            "outputs": [
                {
                    "name": "",
                    "type": "tuple",
                    "internalType": "struct Query",
                    "components": [
                        {
                            "name": "objects",
                            "type": "tuple[]",
                            "internalType": "struct Object[]",
                            "components": [
                                {
                                    "name": "key",
                                    "type": "string",
                                    "internalType": "string"
                                },
                                {
                                    "name": "state",
                                    "type": "tuple",
                                    "internalType": "struct ObjectState",
                                    "components": [
                                        {
                                            "name": "blobHash",
                                            "type": "string",
                                            "internalType": "string"
                                        },
                                        {
                                            "name": "size",
                                            "type": "uint64",
                                            "internalType": "uint64"
                                        },
                                        {
                                            "name": "metadata",
                                            "type": "tuple[]",
                                            "internalType": "struct KeyValue[]",
                                            "components": [
                                                {
                                                    "name": "key",
                                                    "type": "string",
                                                    "internalType": "string"
                                                },
                                                {
                                                    "name": "value",
                                                    "type": "string",
                                                    "internalType": "string"
                                                }
                                            ]
                                        }
                                    ]
                                }
                            ]
                        },
                        {
                            "name": "commonPrefixes",
                            "type": "string[]",
                            "internalType": "string[]"
                        },
                        {
                            "name": "nextKey",
                            "type": "string",
                            "internalType": "string"
                        }
                    ]
                }
            ],
            "stateMutability": "view"
        },
        {
            "type": "event",
            "name": "AddObject",
            "inputs": [
                {
                    "name": "owner",
                    "type": "address",
                    "indexed": true,
                    "internalType": "address"
                },
                {
                    "name": "bucket",
                    "type": "address",
                    "indexed": true,
                    "internalType": "address"
                },
                {
                    "name": "key",
                    "type": "string",
                    "indexed": false,
                    "internalType": "string"
                }
            ],
            "anonymous": false
        },
        {
            "type": "event",
            "name": "CreateBucket",
            "inputs": [
                {
                    "name": "owner",
                    "type": "address",
                    "indexed": true,
                    "internalType": "address"
                },
                {
                    "name": "data",
                    "type": "bytes",
                    "indexed": false,
                    "internalType": "bytes"
                }
            ],
            "anonymous": false
        },
        {
            "type": "event",
            "name": "DeleteObject",
            "inputs": [
                {
                    "name": "owner",
                    "type": "address",
                    "indexed": true,
                    "internalType": "address"
                },
                {
                    "name": "bucket",
                    "type": "address",
                    "indexed": true,
                    "internalType": "address"
                },
                {
                    "name": "key",
                    "type": "string",
                    "indexed": false,
                    "internalType": "string"
                }
            ],
            "anonymous": false
        }
    ],
    "bytecode": {
        "object": "0x608080604052346015576119b4908161001a8239f35b5f80fdfe60806040526004361015610011575f80fd5b5f803560e01c806312b4479c14610cd15780632353af6214610bff57806325b7fce014610a0757806333b53e981461095357806337e8b418146108185780633a4db777146107675780634aa82ff5146106b557806363c244c2146106565780638e809340146104bb5780639b441b7f1461038a578063b7e95402146102a1578063d120303f146101fc578063e129ed90146101be5763f6d6c420146100b4575f80fd5b346101bb5760203660031901126101bb576100f46100d0610e99565b826100d96117e3565b6040518094819263f206e32160e01b83528560048401611860565b038173__$1ad8b8a9c6f6ac41ab106f129b56be3ece$__5af49182156101b0578392610166575b5060405160208082526001600160a01b03909216927f05bc02a9a3b7080221f0f458a764574b0caab9042740eeb5df34ee1bd3b9f35692829161016091830190610ff4565b0390a280f35b7f05bc02a9a3b7080221f0f458a764574b0caab9042740eeb5df34ee1bd3b9f3569192506101a8610160913d8087833e6101a08183610f30565b81019061182a565b92915061011b565b6040513d85823e3d90fd5b80fd5b50346101bb5760403660031901126101bb576101d8610e99565b60243590826001600160401b0383116101bb576100d96100f49336906004016111f3565b50346101bb5760203660031901126101bb57610216610e99565b60405163d120303f60e01b81526001600160a01b039091166004820152818160248173__$1ad8b8a9c6f6ac41ab106f129b56be3ece$__5af4908115610296578261026f9392610273575b5050604051918291826112cc565b0390f35b61028f92503d8091833e6102878183610f30565b810190611882565b5f80610261565b6040513d84823e3d90fd5b50346101bb57806102b136610fb2565b91906102bb6114cc565b506040516306fd168360e31b81526001600160a01b03909116600482015260a06024820152918290602090610318906102f89060a4850190610ff4565b83810360031901604485015260018152602f60f81b602082015260400190565b83838203916003198301606486015252836084840152018173__$1ad8b8a9c6f6ac41ab106f129b56be3ece$__5af4908115610296578261026f9392610367575b505060405191829182611090565b61038392503d8091833e61037b8183610f30565b8101906114eb565b5f80610359565b50346101bb5760803660031901126101bb576103a4610e99565b816024356001600160401b0381116104b7576103c4903690600401610f6c565b6044356001600160401b0381116104b3576103e3903690600401610f6c565b926064356001600160401b0381116104af5761044d9461045f61040d610471933690600401610f6c565b916104166114cc565b506040516306fd168360e31b81526001600160a01b03909516600486015260a06024860152939687958695919060a4870190610ff4565b85810360031901604487015290610ff4565b83810360031901606485015290610ff4565b836084830152038173__$1ad8b8a9c6f6ac41ab106f129b56be3ece$__5af4908115610296578261026f939261036757505060405191829182611090565b8380fd5b8280fd5b5080fd5b50346101bb5760c03660031901126101bb576104d5610e99565b6024356001600160401b0381116104b3576104f4903690600401610f6c565b826044356001600160401b0381116104b757610514903690600401610f6c565b916064356001600160401b0381116104b357610534903690600401610f6c565b6084356001600160401b0381116104af57610553903690600401610f6c565b60a435906001600160401b038216809203610652576105706117e3565b926040519461057e86610ede565b85528660208601526040850152606084015260808301528260a083015260c08201528160e082015273__$1ad8b8a9c6f6ac41ab106f129b56be3ece$__803b156104b3576105e49183916040518080958194630a6c169360e01b83528a6004840161171f565b03915af480156102965761063d575b50507fcda9a9bb40602c412f87daedd3deaa81e79ca199887f6946bd16e3264656ff17604051926020845260018060a01b0316928061063733946020830190610ff4565b0390a380f35b8161064791610f30565b6104b357825f6105f3565b8480fd5b50346101bb57806003193601126101bb5760405163d120303f60e01b8152336004820152818160248173__$1ad8b8a9c6f6ac41ab106f129b56be3ece$__5af4908115610296578261026f9392610273575050604051918291826112cc565b50346101bb57806003193601126101bb576106ed816106d26117e3565b6040518093819263f206e32160e01b83523360048401611860565b038173__$1ad8b8a9c6f6ac41ab106f129b56be3ece$__5af490811561029657829161074d575b507f05bc02a9a3b7080221f0f458a764574b0caab9042740eeb5df34ee1bd3b9f356604051602081528061016033946020830190610ff4565b61076191503d8084833e6101a08183610f30565b5f610714565b50346101bb5760603660031901126101bb57610781610e99565b816024356001600160401b0381116104b7576107a1903690600401610f6c565b916044356001600160401b0381116104b3576103186107c66020923690600401610f6c565b6107ce6114cc565b506040516306fd168360e31b81526001600160a01b03909416600485015260a0602485015292948593906108069060a4860190610ff4565b84810360031901604486015290610ff4565b50346101bb5760a03660031901126101bb57610832610e99565b816024356001600160401b0381116104b757610852903690600401610f6c565b6044356001600160401b0381116104b357610871903690600401610f6c565b926064356001600160401b0381116104af57610891903690600401610f6c565b93608435906001600160401b038216809203610652576108f195610903610915926108ba6114cc565b506040516306fd168360e31b81526001600160a01b03909616600487015260a06024870152949788968796919060a4880190610ff4565b86810360031901604488015290610ff4565b84810360031901606486015290610ff4565b906084830152038173__$1ad8b8a9c6f6ac41ab106f129b56be3ece$__5af4908115610296578261026f939261036757505060405191829182611090565b50346101bb5761096236610fb2565b8273__$1ad8b8a9c6f6ac41ab106f129b56be3ece$__803b156104b757816040518092630676a7d360e31b8252818061099f888a600484016114aa565b03915af48015610296576109f2575b50507facbc02397b6f33e9b67a7bb173e9d24268e0579acd9fdf021b3485cf85c7338d604051926020845260018060a01b0316928061063733946020830190610ff4565b816109fc91610f30565b6104b357825f6109ae565b5034610bfb576040366003190112610bfb57610a21610e99565b6024356001600160401b038111610bfb576101006003198236030112610bfb57604051610a4d81610ede565b81600401356001600160401b038111610bfb57610a709060043691850101610f6c565b815260248201356001600160401b038111610bfb57610a959060043691850101610f6c565b916020820192835260448101356001600160401b038111610bfb57610ac09060043691840101610f6c565b604083015260648101356001600160401b038111610bfb57610ae89060043691840101610f6c565b6060830152610af9608482016111c8565b6080830152610b0a60a482016111c8565b60a083015260c4810135906001600160401b038211610bfb57610b3560e492600436918401016111f3565b60c084015201358015158103610bfb5760e082015273__$1ad8b8a9c6f6ac41ab106f129b56be3ece$__803b15610bfb57610b88915f916040518080958194630a6c169360e01b8352896004840161171f565b03915af48015610bf057610bdb575b50517fcda9a9bb40602c412f87daedd3deaa81e79ca199887f6946bd16e3264656ff17604051926020845260018060a01b0316928061063733946020830190610ff4565b610be89193505f90610f30565b5f915f610b97565b6040513d5f823e3d90fd5b5f80fd5b34610bfb576020366003190112610bfb57610c18610e99565b610c206114cc565b506040516306fd168360e31b81526001600160a01b0391909116600482015260a060248201525f60a4820181905260c06044830152600160c4830152602f60f81b60e48301526101006064830152610104820181905260848201819052816101248173__$1ad8b8a9c6f6ac41ab106f129b56be3ece$__5af48015610bf05761026f915f91610cb7575b5060405191829182611090565b610ccb91503d805f833e61037b8183610f30565b82610caa565b34610bfb57610d255f610ce336610fb2565b9060606080604051610cf481610eaf565b8281528260208201528560408201528583820152015260405193849283926304ad11e760e21b8452600484016114aa565b038173__$1ad8b8a9c6f6ac41ab106f129b56be3ece$__5af48015610bf0575f90610dc3575b61026f90604051918291602083526080610d8a610d74835160a0602088015260c0870190610ff4565b6020840151868203601f19016040880152610ff4565b916001600160401b0360408201511660608601526001600160401b03606082015116828601520151601f198483030160a0850152611018565b503d805f833e610dd38183610f30565b810190602081830312610bfb578051906001600160401b038211610bfb570160a081830312610bfb5760405190610e0982610eaf565b80516001600160401b038111610bfb5783610e259183016113a3565b825260208101516001600160401b038111610bfb5783610e469183016113a3565b6020830152610e57604082016113bd565b6040830152610e68606082016113bd565b60608301526080810151926001600160401b038411610bfb5761026f93610e8f92016113d1565b6080820152610d4b565b600435906001600160a01b0382168203610bfb57565b60a081019081106001600160401b03821117610eca57604052565b634e487b7160e01b5f52604160045260245ffd5b61010081019081106001600160401b03821117610eca57604052565b604081019081106001600160401b03821117610eca57604052565b606081019081106001600160401b03821117610eca57604052565b90601f801991011681019081106001600160401b03821117610eca57604052565b6001600160401b038111610eca57601f01601f191660200190565b81601f82011215610bfb57803590610f8382610f51565b92610f916040519485610f30565b82845260208383010111610bfb57815f926020809301838601378301015290565b906040600319830112610bfb576004356001600160a01b0381168103610bfb5791602435906001600160401b038211610bfb57610ff191600401610f6c565b90565b805180835260209291819084018484015e5f828201840152601f01601f1916010190565b9080602083519182815201916020808360051b8301019401925f915b83831061104357505050505090565b9091929394602080611081600193601f19868203018752895190836110718351604084526040840190610ff4565b9201519084818403910152610ff4565b97019301930191939290611034565b91909160208152608081019083519160606020830152825180915260a0820190602060a08260051b8501019401915f905b82821061114c5750505050602084015191601f19828203016040830152825180825260208201916020808360051b8301019501925f915b83831061111f5750505050506040610ff193940151906060601f1982850301910152610ff4565b909192939560208061113d600193601f198682030187528a51610ff4565b980193019301919392906110f8565b909192946020806111ba600193609f198982030186528951836111788251604085526040850190610ff4565b910151918481830391015260406111988351606084526060840190610ff4565b926001600160401b038682015116868401520151906040818403910152611018565b9701920192019092916110c1565b35906001600160401b0382168203610bfb57565b6001600160401b038111610eca5760051b60200190565b9080601f83011215610bfb5781359161120b836111dc565b926112196040519485610f30565b80845260208085019160051b83010191838311610bfb5760208101915b83831061124557505050505090565b82356001600160401b038111610bfb578201906040828703601f190112610bfb576040519061127382610efa565b60208301356001600160401b038111610bfb5787602061129592860101610f6c565b82526040830135916001600160401b038311610bfb576112bd88602080969581960101610f6c565b83820152815201920191611236565b602081016020825282518091526040820190602060408260051b8501019401925f905b8282106112fe57505050505090565b9091929394603f1982820301855285519081519160028310156113595761134c826060604060209594600197879652878060a01b038682015116868501520151918160408201520190611018565b97019501939201906112ef565b634e487b7160e01b5f52602160045260245ffd5b92919261137982610f51565b916113876040519384610f30565b829481845281830111610bfb578281602093845f96015e010152565b9080601f83011215610bfb578151610ff19260200161136d565b51906001600160401b0382168203610bfb57565b9080601f83011215610bfb578151916113e9836111dc565b926113f76040519485610f30565b80845260208085019160051b83010191838311610bfb5760208101915b83831061142357505050505090565b82516001600160401b038111610bfb578201906040828703601f190112610bfb576040519061145182610efa565b60208301516001600160401b038111610bfb57876020611473928601016113a3565b82526040830151916001600160401b038311610bfb5761149b886020809695819601016113a3565b83820152815201920191611414565b6001600160a01b039091168152604060208201819052610ff192910190610ff4565b604051906114d982610f15565b60606040838281528260208201520152565b602081830312610bfb578051906001600160401b038211610bfb5701606081830312610bfb576040519161151e83610f15565b81516001600160401b038111610bfb57820181601f82011215610bfb57805190611547826111dc565b916115556040519384610f30565b80835260208084019160051b83010191848311610bfb5760208101915b8383106116375750505050835260208201516001600160401b038111610bfb57820181601f82011215610bfb5780516115aa816111dc565b916115b86040519384610f30565b81835260208084019260051b82010191848311610bfb5760208201905b83821061160a5750505050602084015260408201516001600160401b038111610bfb5761160292016113a3565b604082015290565b81516001600160401b038111610bfb5760209161162c888480948801016113a3565b8152019101906115d5565b82516001600160401b038111610bfb578201906040828803601f190112610bfb576040519161166583610efa565b60208101516001600160401b038111610bfb57886020611687928401016113a3565b835260408101516001600160401b038111610bfb57602091010190606082890312610bfb57604051926116b984610f15565b82516001600160401b038111610bfb57896116d59185016113a3565b84526116e3602084016113bd565b60208501526040830151936001600160401b038511610bfb5761170b8a6020968796016113d1565b604082015283820152815201920191611572565b9060018060a01b031681526040602082015261012060e06117d861179c61178661177061175a885161010060408a0152610140890190610ff4565b6020890151888203603f190160608a0152610ff4565b6040880151878203603f19016080890152610ff4565b6060870151868203603f190160a0880152610ff4565b6001600160401b0360808701511660c08601526001600160401b0360a0870151168386015260c0860151603f1986830301610100870152611018565b930151151591015290565b604051906117f2602083610f30565b5f80835282815b82811061180557505050565b60209060405161181481610efa565b60608152606083820152828285010152016117f9565b602081830312610bfb578051906001600160401b038211610bfb57019080601f83011215610bfb578151610ff19260200161136d565b6001600160a01b039091168152604060208201819052610ff192910190611018565b602081830312610bfb578051906001600160401b038211610bfb57019080601f83011215610bfb578151916118b6836111dc565b926118c46040519485610f30565b80845260208085019160051b83010191838311610bfb5760208101915b8383106118f057505050505090565b82516001600160401b038111610bfb578201906060828703601f190112610bfb576040519061191e82610f15565b60208301516002811015610bfb57825260408301516001600160a01b0381168103610bfb5760208301526060830151916001600160401b038311610bfb5761196e886020809695819601016113d1565b60408201528152019201916118e156fea2646970667358221220cf92741d37ece5d7a11651e51bc21b82d9614e4164184ad561c2bfb8ab2a7e6064736f6c634300081a0033",
        "linkReferences": {
            "src/wrappers/LibBucket.sol": {
                "LibBucket": [
                    {
                        "start": 274,
                        "length": 20
                    },
                    {
                        "start": 596,
                        "length": 20
                    },
                    {
                        "start": 844,
                        "length": 20
                    },
                    {
                        "start": 1173,
                        "length": 20
                    },
                    {
                        "start": 1474,
                        "length": 20
                    },
                    {
                        "start": 1691,
                        "length": 20
                    },
                    {
                        "start": 1803,
                        "length": 20
                    },
                    {
                        "start": 2361,
                        "length": 20
                    },
                    {
                        "start": 2431,
                        "length": 20
                    },
                    {
                        "start": 2918,
                        "length": 20
                    },
                    {
                        "start": 3230,
                        "length": 20
                    },
                    {
                        "start": 3395,
                        "length": 20
                    }
                ]
            }
        }
    },
    "methodIdentifiers": {
        "addObject(address,(string,string,string,string,uint64,uint64,(string,string)[],bool))": "25b7fce0",
        "addObject(address,string,string,string,string,uint64)": "8e809340",
        "createBucket()": "4aa82ff5",
        "createBucket(address)": "f6d6c420",
        "createBucket(address,(string,string)[])": "e129ed90",
        "deleteObject(address,string)": "33b53e98",
        "getObject(address,string)": "12b4479c",
        "listBuckets()": "63c244c2",
        "listBuckets(address)": "d120303f",
        "queryObjects(address)": "2353af62",
        "queryObjects(address,string)": "b7e95402",
        "queryObjects(address,string,string)": "3a4db777",
        "queryObjects(address,string,string,string)": "9b441b7f",
        "queryObjects(address,string,string,string,uint64)": "37e8b418"
    },
    "storageLayout": {
        "storage": [],
        "types": {}
    },
    "id": 55
}