{
    "abi": [
        {
            "type": "function",
            "name": "addObject",
            "inputs": [
                {
                    "name": "bucket",
                    "type": "address",
                    "internalType": "address"
                },
                {
                    "name": "source",
                    "type": "string",
                    "internalType": "string"
                },
                {
                    "name": "key",
                    "type": "string",
                    "internalType": "string"
                },
                {
                    "name": "blobHash",
                    "type": "string",
                    "internalType": "string"
                },
                {
                    "name": "recoveryHash",
                    "type": "string",
                    "internalType": "string"
                },
                {
                    "name": "size",
                    "type": "uint64",
                    "internalType": "uint64"
                },
                {
                    "name": "from",
                    "type": "address",
                    "internalType": "address"
                }
            ],
            "outputs": [],
            "stateMutability": "nonpayable"
        },
        {
            "type": "function",
            "name": "addObject",
            "inputs": [
                {
                    "name": "bucket",
                    "type": "address",
                    "internalType": "address"
                },
                {
                    "name": "params",
                    "type": "tuple",
                    "internalType": "struct AddObjectParams",
                    "components": [
                        {
                            "name": "source",
                            "type": "string",
                            "internalType": "string"
                        },
                        {
                            "name": "key",
                            "type": "string",
                            "internalType": "string"
                        },
                        {
                            "name": "blobHash",
                            "type": "string",
                            "internalType": "string"
                        },
                        {
                            "name": "recoveryHash",
                            "type": "string",
                            "internalType": "string"
                        },
                        {
                            "name": "size",
                            "type": "uint64",
                            "internalType": "uint64"
                        },
                        {
                            "name": "ttl",
                            "type": "uint64",
                            "internalType": "uint64"
                        },
                        {
                            "name": "metadata",
                            "type": "tuple[]",
                            "internalType": "struct KeyValue[]",
                            "components": [
                                {
                                    "name": "key",
                                    "type": "string",
                                    "internalType": "string"
                                },
                                {
                                    "name": "value",
                                    "type": "string",
                                    "internalType": "string"
                                }
                            ]
                        },
                        {
                            "name": "overwrite",
                            "type": "bool",
                            "internalType": "bool"
                        },
                        {
                            "name": "from",
                            "type": "address",
                            "internalType": "address"
                        }
                    ]
                }
            ],
            "outputs": [],
            "stateMutability": "nonpayable"
        },
        {
            "type": "function",
            "name": "createBucket",
            "inputs": [],
            "outputs": [],
            "stateMutability": "nonpayable"
        },
        {
            "type": "function",
            "name": "createBucket",
            "inputs": [
                {
                    "name": "owner",
                    "type": "address",
                    "internalType": "address"
                },
                {
                    "name": "metadata",
                    "type": "tuple[]",
                    "internalType": "struct KeyValue[]",
                    "components": [
                        {
                            "name": "key",
                            "type": "string",
                            "internalType": "string"
                        },
                        {
                            "name": "value",
                            "type": "string",
                            "internalType": "string"
                        }
                    ]
                }
            ],
            "outputs": [],
            "stateMutability": "nonpayable"
        },
        {
            "type": "function",
            "name": "createBucket",
            "inputs": [
                {
                    "name": "owner",
                    "type": "address",
                    "internalType": "address"
                }
            ],
            "outputs": [],
            "stateMutability": "nonpayable"
        },
        {
            "type": "function",
            "name": "deleteObject",
            "inputs": [
                {
                    "name": "bucket",
                    "type": "address",
                    "internalType": "address"
                },
                {
                    "name": "key",
                    "type": "string",
                    "internalType": "string"
                },
                {
                    "name": "from",
                    "type": "address",
                    "internalType": "address"
                }
            ],
            "outputs": [],
            "stateMutability": "nonpayable"
        },
        {
            "type": "function",
            "name": "getObject",
            "inputs": [
                {
                    "name": "bucket",
                    "type": "address",
                    "internalType": "address"
                },
                {
                    "name": "key",
                    "type": "string",
                    "internalType": "string"
                }
            ],
            "outputs": [
                {
                    "name": "",
                    "type": "tuple",
                    "internalType": "struct ObjectValue",
                    "components": [
                        {
                            "name": "blobHash",
                            "type": "string",
                            "internalType": "string"
                        },
                        {
                            "name": "recoveryHash",
                            "type": "string",
                            "internalType": "string"
                        },
                        {
                            "name": "size",
                            "type": "uint64",
                            "internalType": "uint64"
                        },
                        {
                            "name": "expiry",
                            "type": "uint64",
                            "internalType": "uint64"
                        },
                        {
                            "name": "metadata",
                            "type": "tuple[]",
                            "internalType": "struct KeyValue[]",
                            "components": [
                                {
                                    "name": "key",
                                    "type": "string",
                                    "internalType": "string"
                                },
                                {
                                    "name": "value",
                                    "type": "string",
                                    "internalType": "string"
                                }
                            ]
                        }
                    ]
                }
            ],
            "stateMutability": "view"
        },
        {
            "type": "function",
            "name": "listBuckets",
            "inputs": [],
            "outputs": [
                {
                    "name": "",
                    "type": "tuple[]",
                    "internalType": "struct Machine[]",
                    "components": [
                        {
                            "name": "kind",
                            "type": "uint8",
                            "internalType": "enum Kind"
                        },
                        {
                            "name": "addr",
                            "type": "address",
                            "internalType": "address"
                        },
                        {
                            "name": "metadata",
                            "type": "tuple[]",
                            "internalType": "struct KeyValue[]",
                            "components": [
                                {
                                    "name": "key",
                                    "type": "string",
                                    "internalType": "string"
                                },
                                {
                                    "name": "value",
                                    "type": "string",
                                    "internalType": "string"
                                }
                            ]
                        }
                    ]
                }
            ],
            "stateMutability": "view"
        },
        {
            "type": "function",
            "name": "listBuckets",
            "inputs": [
                {
                    "name": "owner",
                    "type": "address",
                    "internalType": "address"
                }
            ],
            "outputs": [
                {
                    "name": "",
                    "type": "tuple[]",
                    "internalType": "struct Machine[]",
                    "components": [
                        {
                            "name": "kind",
                            "type": "uint8",
                            "internalType": "enum Kind"
                        },
                        {
                            "name": "addr",
                            "type": "address",
                            "internalType": "address"
                        },
                        {
                            "name": "metadata",
                            "type": "tuple[]",
                            "internalType": "struct KeyValue[]",
                            "components": [
                                {
                                    "name": "key",
                                    "type": "string",
                                    "internalType": "string"
                                },
                                {
                                    "name": "value",
                                    "type": "string",
                                    "internalType": "string"
                                }
                            ]
                        }
                    ]
                }
            ],
            "stateMutability": "view"
        },
        {
            "type": "function",
            "name": "queryObjects",
            "inputs": [
                {
                    "name": "bucket",
                    "type": "address",
                    "internalType": "address"
                }
            ],
            "outputs": [
                {
                    "name": "",
                    "type": "tuple",
                    "internalType": "struct Query",
                    "components": [
                        {
                            "name": "objects",
                            "type": "tuple[]",
                            "internalType": "struct Object[]",
                            "components": [
                                {
                                    "name": "key",
                                    "type": "string",
                                    "internalType": "string"
                                },
                                {
                                    "name": "state",
                                    "type": "tuple",
                                    "internalType": "struct ObjectState",
                                    "components": [
                                        {
                                            "name": "blobHash",
                                            "type": "string",
                                            "internalType": "string"
                                        },
                                        {
                                            "name": "size",
                                            "type": "uint64",
                                            "internalType": "uint64"
                                        },
                                        {
                                            "name": "expiry",
                                            "type": "uint64",
                                            "internalType": "uint64"
                                        },
                                        {
                                            "name": "metadata",
                                            "type": "tuple[]",
                                            "internalType": "struct KeyValue[]",
                                            "components": [
                                                {
                                                    "name": "key",
                                                    "type": "string",
                                                    "internalType": "string"
                                                },
                                                {
                                                    "name": "value",
                                                    "type": "string",
                                                    "internalType": "string"
                                                }
                                            ]
                                        }
                                    ]
                                }
                            ]
                        },
                        {
                            "name": "commonPrefixes",
                            "type": "string[]",
                            "internalType": "string[]"
                        },
                        {
                            "name": "nextKey",
                            "type": "string",
                            "internalType": "string"
                        }
                    ]
                }
            ],
            "stateMutability": "view"
        },
        {
            "type": "function",
            "name": "queryObjects",
            "inputs": [
                {
                    "name": "bucket",
                    "type": "address",
                    "internalType": "address"
                },
                {
                    "name": "prefix",
                    "type": "string",
                    "internalType": "string"
                },
                {
                    "name": "delimiter",
                    "type": "string",
                    "internalType": "string"
                },
                {
                    "name": "startKey",
                    "type": "string",
                    "internalType": "string"
                },
                {
                    "name": "limit",
                    "type": "uint64",
                    "internalType": "uint64"
                }
            ],
            "outputs": [
                {
                    "name": "",
                    "type": "tuple",
                    "internalType": "struct Query",
                    "components": [
                        {
                            "name": "objects",
                            "type": "tuple[]",
                            "internalType": "struct Object[]",
                            "components": [
                                {
                                    "name": "key",
                                    "type": "string",
                                    "internalType": "string"
                                },
                                {
                                    "name": "state",
                                    "type": "tuple",
                                    "internalType": "struct ObjectState",
                                    "components": [
                                        {
                                            "name": "blobHash",
                                            "type": "string",
                                            "internalType": "string"
                                        },
                                        {
                                            "name": "size",
                                            "type": "uint64",
                                            "internalType": "uint64"
                                        },
                                        {
                                            "name": "expiry",
                                            "type": "uint64",
                                            "internalType": "uint64"
                                        },
                                        {
                                            "name": "metadata",
                                            "type": "tuple[]",
                                            "internalType": "struct KeyValue[]",
                                            "components": [
                                                {
                                                    "name": "key",
                                                    "type": "string",
                                                    "internalType": "string"
                                                },
                                                {
                                                    "name": "value",
                                                    "type": "string",
                                                    "internalType": "string"
                                                }
                                            ]
                                        }
                                    ]
                                }
                            ]
                        },
                        {
                            "name": "commonPrefixes",
                            "type": "string[]",
                            "internalType": "string[]"
                        },
                        {
                            "name": "nextKey",
                            "type": "string",
                            "internalType": "string"
                        }
                    ]
                }
            ],
            "stateMutability": "view"
        },
        {
            "type": "function",
            "name": "queryObjects",
            "inputs": [
                {
                    "name": "bucket",
                    "type": "address",
                    "internalType": "address"
                },
                {
                    "name": "prefix",
                    "type": "string",
                    "internalType": "string"
                },
                {
                    "name": "delimiter",
                    "type": "string",
                    "internalType": "string"
                }
            ],
            "outputs": [
                {
                    "name": "",
                    "type": "tuple",
                    "internalType": "struct Query",
                    "components": [
                        {
                            "name": "objects",
                            "type": "tuple[]",
                            "internalType": "struct Object[]",
                            "components": [
                                {
                                    "name": "key",
                                    "type": "string",
                                    "internalType": "string"
                                },
                                {
                                    "name": "state",
                                    "type": "tuple",
                                    "internalType": "struct ObjectState",
                                    "components": [
                                        {
                                            "name": "blobHash",
                                            "type": "string",
                                            "internalType": "string"
                                        },
                                        {
                                            "name": "size",
                                            "type": "uint64",
                                            "internalType": "uint64"
                                        },
                                        {
                                            "name": "expiry",
                                            "type": "uint64",
                                            "internalType": "uint64"
                                        },
                                        {
                                            "name": "metadata",
                                            "type": "tuple[]",
                                            "internalType": "struct KeyValue[]",
                                            "components": [
                                                {
                                                    "name": "key",
                                                    "type": "string",
                                                    "internalType": "string"
                                                },
                                                {
                                                    "name": "value",
                                                    "type": "string",
                                                    "internalType": "string"
                                                }
                                            ]
                                        }
                                    ]
                                }
                            ]
                        },
                        {
                            "name": "commonPrefixes",
                            "type": "string[]",
                            "internalType": "string[]"
                        },
                        {
                            "name": "nextKey",
                            "type": "string",
                            "internalType": "string"
                        }
                    ]
                }
            ],
            "stateMutability": "view"
        },
        {
            "type": "function",
            "name": "queryObjects",
            "inputs": [
                {
                    "name": "bucket",
                    "type": "address",
                    "internalType": "address"
                },
                {
                    "name": "prefix",
                    "type": "string",
                    "internalType": "string"
                },
                {
                    "name": "delimiter",
                    "type": "string",
                    "internalType": "string"
                },
                {
                    "name": "startKey",
                    "type": "string",
                    "internalType": "string"
                }
            ],
            "outputs": [
                {
                    "name": "",
                    "type": "tuple",
                    "internalType": "struct Query",
                    "components": [
                        {
                            "name": "objects",
                            "type": "tuple[]",
                            "internalType": "struct Object[]",
                            "components": [
                                {
                                    "name": "key",
                                    "type": "string",
                                    "internalType": "string"
                                },
                                {
                                    "name": "state",
                                    "type": "tuple",
                                    "internalType": "struct ObjectState",
                                    "components": [
                                        {
                                            "name": "blobHash",
                                            "type": "string",
                                            "internalType": "string"
                                        },
                                        {
                                            "name": "size",
                                            "type": "uint64",
                                            "internalType": "uint64"
                                        },
                                        {
                                            "name": "expiry",
                                            "type": "uint64",
                                            "internalType": "uint64"
                                        },
                                        {
                                            "name": "metadata",
                                            "type": "tuple[]",
                                            "internalType": "struct KeyValue[]",
                                            "components": [
                                                {
                                                    "name": "key",
                                                    "type": "string",
                                                    "internalType": "string"
                                                },
                                                {
                                                    "name": "value",
                                                    "type": "string",
                                                    "internalType": "string"
                                                }
                                            ]
                                        }
                                    ]
                                }
                            ]
                        },
                        {
                            "name": "commonPrefixes",
                            "type": "string[]",
                            "internalType": "string[]"
                        },
                        {
                            "name": "nextKey",
                            "type": "string",
                            "internalType": "string"
                        }
                    ]
                }
            ],
            "stateMutability": "view"
        },
        {
            "type": "function",
            "name": "queryObjects",
            "inputs": [
                {
                    "name": "bucket",
                    "type": "address",
                    "internalType": "address"
                },
                {
                    "name": "prefix",
                    "type": "string",
                    "internalType": "string"
                }
            ],
            "outputs": [
                {
                    "name": "",
                    "type": "tuple",
                    "internalType": "struct Query",
                    "components": [
                        {
                            "name": "objects",
                            "type": "tuple[]",
                            "internalType": "struct Object[]",
                            "components": [
                                {
                                    "name": "key",
                                    "type": "string",
                                    "internalType": "string"
                                },
                                {
                                    "name": "state",
                                    "type": "tuple",
                                    "internalType": "struct ObjectState",
                                    "components": [
                                        {
                                            "name": "blobHash",
                                            "type": "string",
                                            "internalType": "string"
                                        },
                                        {
                                            "name": "size",
                                            "type": "uint64",
                                            "internalType": "uint64"
                                        },
                                        {
                                            "name": "expiry",
                                            "type": "uint64",
                                            "internalType": "uint64"
                                        },
                                        {
                                            "name": "metadata",
                                            "type": "tuple[]",
                                            "internalType": "struct KeyValue[]",
                                            "components": [
                                                {
                                                    "name": "key",
                                                    "type": "string",
                                                    "internalType": "string"
                                                },
                                                {
                                                    "name": "value",
                                                    "type": "string",
                                                    "internalType": "string"
                                                }
                                            ]
                                        }
                                    ]
                                }
                            ]
                        },
                        {
                            "name": "commonPrefixes",
                            "type": "string[]",
                            "internalType": "string[]"
                        },
                        {
                            "name": "nextKey",
                            "type": "string",
                            "internalType": "string"
                        }
                    ]
                }
            ],
            "stateMutability": "view"
        },
        {
            "type": "function",
            "name": "updateObjectMetadata",
            "inputs": [
                {
                    "name": "bucket",
                    "type": "address",
                    "internalType": "address"
                },
                {
                    "name": "key",
                    "type": "string",
                    "internalType": "string"
                },
                {
                    "name": "metadata",
                    "type": "tuple[]",
                    "internalType": "struct KeyValue[]",
                    "components": [
                        {
                            "name": "key",
                            "type": "string",
                            "internalType": "string"
                        },
                        {
                            "name": "value",
                            "type": "string",
                            "internalType": "string"
                        }
                    ]
                },
                {
                    "name": "from",
                    "type": "address",
                    "internalType": "address"
                }
            ],
            "outputs": [],
            "stateMutability": "nonpayable"
        }
    ],
    "bytecode": {
        "object": "0x608080604052346015576121b0908161001a8239f35b5f80fdfe60806040526004361015610011575f80fd5b5f803560e01c806312b4479c1461115c5780632353af621461108a57806337e8b41814610ed35780633a4db77714610d3c57806341e5e03614610c155780634aa82ff514610ba657806363c244c214610b105780639b441b7f146109685780639daae91414610805578063b7e95402146106a2578063d120303f146105c5578063e129ed9014610564578063e2866d3e146103c6578063e34868611461018b5763f6d6c420146100bf575f80fd5b346101885760207ffffffffffffffffffffffffffffffffffffffffffffffffffffffffffffffffc36011261018857610137816100fa6113a3565b610102611e38565b9060405193849283927ff206e32100000000000000000000000000000000000000000000000000000000845260048401611eb6565b038173__$1ad8b8a9c6f6ac41ab106f129b56be3ece$__5af4801561017d5761015e575080f35b610179903d8084833e6101718183611464565b810190611e7f565b5080f35b6040513d84823e3d90fd5b80fd5b50346101885760407ffffffffffffffffffffffffffffffffffffffffffffffffffffffffffffffffc360112610188576101c36113a3565b60243567ffffffffffffffff81116103c2576101207ffffffffffffffffffffffffffffffffffffffffffffffffffffffffffffffffc82360301126103c2576040519061020f8261140f565b806004013567ffffffffffffffff81116103be5761023390600436918401016114df565b8252602481013567ffffffffffffffff81116103be5761025990600436918401016114df565b6020830152604481013567ffffffffffffffff81116103be5761028290600436918401016114df565b6040830152606481013567ffffffffffffffff81116103be576102ab90600436918401016114df565b60608301526102bc6084820161182e565b60808301526102cd60a4820161182e565b60a083015260c481013567ffffffffffffffff81116103be576102f69060043691840101611942565b60c083015260e48101359081151582036103be576101049160e084015201359173ffffffffffffffffffffffffffffffffffffffff831683036103ba57839261010083015273__$1ad8b8a9c6f6ac41ab106f129b56be3ece$__91823b156103b5576103939284926040518095819482937f0a6c16930000000000000000000000000000000000000000000000000000000084526004840161200d565b03915af4801561017d576103a45750f35b816103ae91611464565b6101885780f35b505050fd5b5f80fd5b8480fd5b8280fd5b50346101885760e07ffffffffffffffffffffffffffffffffffffffffffffffffffffffffffffffffc36011261018857806103ff6113a3565b60243567ffffffffffffffff81116105605761041f9036906004016114df565b9060443567ffffffffffffffff81116103b5576104409036906004016114df565b60643567ffffffffffffffff81116103be576104609036906004016114df565b9060843567ffffffffffffffff811161055c576104819036906004016114df565b60a4359067ffffffffffffffff82168092036105585760c4359373ffffffffffffffffffffffffffffffffffffffff8516809503610554576104c1611e38565b93604051976104cf8961140f565b885260208801526040870152606086015260808501528460a085015260c08401528360e084015261010083015273__$1ad8b8a9c6f6ac41ab106f129b56be3ece$__91823b156103b5576103939284926040518095819482937f0a6c16930000000000000000000000000000000000000000000000000000000084526004840161200d565b8780fd5b8680fd5b8580fd5b5050fd5b50346101885760407ffffffffffffffffffffffffffffffffffffffffffffffffffffffffffffffffc3601126101885761059c6113a3565b816024359167ffffffffffffffff83116105c157610102610137933690600401611942565b5080fd5b50346101885760207ffffffffffffffffffffffffffffffffffffffffffffffffffffffffffffffffc360112610188576105fd6113a3565b73ffffffffffffffffffffffffffffffffffffffff604051917fd120303f000000000000000000000000000000000000000000000000000000008352166004820152818160248173__$1ad8b8a9c6f6ac41ab106f129b56be3ece$__5af490811561017d578261067b939261067f575b505060405191829182611843565b0390f35b61069b92503d8091833e6106938183611464565b810190611ee3565b5f8061066d565b50346101885773ffffffffffffffffffffffffffffffffffffffff8161071b60206107756106cf36611525565b6106da949194611b9b565b506040519687957f37e8b41800000000000000000000000000000000000000000000000000000000875216600486015260a0602486015260a4850190611593565b8381037ffffffffffffffffffffffffffffffffffffffffffffffffffffffffffffffffc016044850152600181527f2f00000000000000000000000000000000000000000000000000000000000000602082015260400190565b83838203917ffffffffffffffffffffffffffffffffffffffffffffffffffffffffffffffffc8301606486015252836084840152018173__$1ad8b8a9c6f6ac41ab106f129b56be3ece$__5af490811561017d578261067b93926107e2575b50506040519182918261166c565b6107fe92503d8091833e6107f68183611464565b810190611bba565b5f806107d4565b50346101885760807ffffffffffffffffffffffffffffffffffffffffffffffffffffffffffffffffc360112610188578061083e6113a3565b60243567ffffffffffffffff81116105605761085e9036906004016114df565b60443567ffffffffffffffff81116103b55761087e903690600401611942565b906064359173ffffffffffffffffffffffffffffffffffffffff83168093036103be5773__$1ad8b8a9c6f6ac41ab106f129b56be3ece$__90813b1561055c5761092194869461095173ffffffffffffffffffffffffffffffffffffffff93604051988997889687967fffc66f25000000000000000000000000000000000000000000000000000000008852166004870152608060248701526084860190611593565b907ffffffffffffffffffffffffffffffffffffffffffffffffffffffffffffffffc8583030160448601526115d6565b90606483015203915af4801561017d576103a45750f35b50346101885760807ffffffffffffffffffffffffffffffffffffffffffffffffffffffffffffffffc360112610188576109a06113a3565b8160243567ffffffffffffffff81116105c1576109c19036906004016114df565b9160443567ffffffffffffffff81116103c2576109e29036906004016114df565b9060643567ffffffffffffffff8111610b0c5773ffffffffffffffffffffffffffffffffffffffff92610a9e610a1f610ace9336906004016114df565b91610a28611b9b565b50610a6e60405198899788977f37e8b41800000000000000000000000000000000000000000000000000000000895216600488015260a0602488015260a4870190611593565b907ffffffffffffffffffffffffffffffffffffffffffffffffffffffffffffffffc868303016044870152611593565b907ffffffffffffffffffffffffffffffffffffffffffffffffffffffffffffffffc848303016064850152611593565b836084830152038173__$1ad8b8a9c6f6ac41ab106f129b56be3ece$__5af490811561017d578261067b93926107e25750506040519182918261166c565b8380fd5b503461018857807ffffffffffffffffffffffffffffffffffffffffffffffffffffffffffffffffc360112610188576040517fd120303f000000000000000000000000000000000000000000000000000000008152336004820152818160248173__$1ad8b8a9c6f6ac41ab106f129b56be3ece$__5af490811561017d578261067b939261067f57505060405191829182611843565b503461018857807ffffffffffffffffffffffffffffffffffffffffffffffffffffffffffffffffc3601126101885761013781610be1611e38565b604051809381927ff206e3210000000000000000000000000000000000000000000000000000000083523360048401611eb6565b50346103ba5760607ffffffffffffffffffffffffffffffffffffffffffffffffffffffffffffffffc3601126103ba57610c4d6113a3565b60243567ffffffffffffffff81116103ba57610c6d9036906004016114df565b906044359173ffffffffffffffffffffffffffffffffffffffff83168093036103ba5773__$1ad8b8a9c6f6ac41ab106f129b56be3ece$__803b156103ba5773ffffffffffffffffffffffffffffffffffffffff5f93610d0b95604051968795869485947f41e5e036000000000000000000000000000000000000000000000000000000008652166004850152606060248501526064840190611593565b90604483015203915af48015610d3157610d23575080f35b610d2f91505f90611464565b005b6040513d5f823e3d90fd5b346103ba5760607ffffffffffffffffffffffffffffffffffffffffffffffffffffffffffffffffc3601126103ba57610d736113a3565b60243567ffffffffffffffff81116103ba57610d939036906004016114df565b906044359067ffffffffffffffff82116103ba576020610e4e73ffffffffffffffffffffffffffffffffffffffff94610e1e610dd45f9636906004016114df565b91610ddd611b9b565b506040519788967f37e8b41800000000000000000000000000000000000000000000000000000000885216600487015260a0602487015260a4860190611593565b907ffffffffffffffffffffffffffffffffffffffffffffffffffffffffffffffffc858303016044860152611593565b83838203917ffffffffffffffffffffffffffffffffffffffffffffffffffffffffffffffffc8301606486015252836084840152018173__$1ad8b8a9c6f6ac41ab106f129b56be3ece$__5af48015610d315761067b915f91610eb9575b506040519182918261166c565b610ecd91503d805f833e6107f68183611464565b82610eac565b346103ba5760a07ffffffffffffffffffffffffffffffffffffffffffffffffffffffffffffffffc3601126103ba57610f0a6113a3565b60243567ffffffffffffffff81116103ba57610f2a9036906004016114df565b9060443567ffffffffffffffff81116103ba57610f4b9036906004016114df565b9060643567ffffffffffffffff81116103ba57610f6c9036906004016114df565b9060843567ffffffffffffffff81168091036103ba5761104e73ffffffffffffffffffffffffffffffffffffffff9361101e5f96610fa8611b9b565b50610fee604051998a9889987f37e8b418000000000000000000000000000000000000000000000000000000008a5216600489015260a0602489015260a4880190611593565b907ffffffffffffffffffffffffffffffffffffffffffffffffffffffffffffffffc878303016044880152611593565b907ffffffffffffffffffffffffffffffffffffffffffffffffffffffffffffffffc858303016064860152611593565b906084830152038173__$1ad8b8a9c6f6ac41ab106f129b56be3ece$__5af48015610d315761067b915f91610eb957506040519182918261166c565b346103ba5760207ffffffffffffffffffffffffffffffffffffffffffffffffffffffffffffffffc3601126103ba576110c16113a3565b6110c9611b9b565b5073ffffffffffffffffffffffffffffffffffffffff604051917f37e8b41800000000000000000000000000000000000000000000000000000000835216600482015260a060248201525f60a482015260c060448201525f816020610e4e60c48301604090600181527f2f0000000000000000000000000000000000000000000000000000000000000060208201520190565b346103ba5773ffffffffffffffffffffffffffffffffffffffff5f61118036611525565b929060606080604051611192816113c6565b828152826020820152856040820152858382015201526111ed60405194859384937f12b4479c000000000000000000000000000000000000000000000000000000008552166004840152604060248401526044830190611593565b038173__$1ad8b8a9c6f6ac41ab106f129b56be3ece$__5af48015610d31575f906112c9575b61067b9060405191829160208352608061127061123c835160a0602088015260c0870190611593565b60208401517fffffffffffffffffffffffffffffffffffffffffffffffffffffffffffffffe0878303016040880152611593565b9167ffffffffffffffff604082015116606086015267ffffffffffffffff6060820151168286015201517fffffffffffffffffffffffffffffffffffffffffffffffffffffffffffffffe08483030160a08501526115d6565b503d805f833e6112d98183611464565b8101906020818303126103ba5780519067ffffffffffffffff82116103ba570160a0818303126103ba5760405190611310826113c6565b805167ffffffffffffffff81116103ba578361132d918301611a72565b8252602081015167ffffffffffffffff81116103ba578361134f918301611a72565b602083015261136060408201611a8c565b604083015261137160608201611a8c565b606083015260808101519267ffffffffffffffff84116103ba5761067b936113999201611aa1565b6080820152611213565b6004359073ffffffffffffffffffffffffffffffffffffffff821682036103ba57565b60a0810190811067ffffffffffffffff8211176113e257604052565b7f4e487b71000000000000000000000000000000000000000000000000000000005f52604160045260245ffd5b610120810190811067ffffffffffffffff8211176113e257604052565b6040810190811067ffffffffffffffff8211176113e257604052565b6060810190811067ffffffffffffffff8211176113e257604052565b90601f7fffffffffffffffffffffffffffffffffffffffffffffffffffffffffffffffe0910116810190811067ffffffffffffffff8211176113e257604052565b67ffffffffffffffff81116113e257601f017fffffffffffffffffffffffffffffffffffffffffffffffffffffffffffffffe01660200190565b81601f820112156103ba578035906114f6826114a5565b926115046040519485611464565b828452602083830101116103ba57815f926020809301838601378301015290565b9060407ffffffffffffffffffffffffffffffffffffffffffffffffffffffffffffffffc8301126103ba5760043573ffffffffffffffffffffffffffffffffffffffff811681036103ba57916024359067ffffffffffffffff82116103ba57611590916004016114df565b90565b907fffffffffffffffffffffffffffffffffffffffffffffffffffffffffffffffe0601f602080948051918291828752018686015e5f8582860101520116010190565b9080602083519182815201916020808360051b8301019401925f915b83831061160157505050505090565b909192939460208061165d837fffffffffffffffffffffffffffffffffffffffffffffffffffffffffffffffe086600196030187528951908361164d8351604084526040840190611593565b9201519084818403910152611593565b970193019301919392906115f2565b919060208352608083019281519360606020830152845180915260a0820190602060a08260051b8501019601915f905b82821061177f57505050506020820151917fffffffffffffffffffffffffffffffffffffffffffffffffffffffffffffffe0828603016040830152825180865260208601906020808260051b8901019501915f905b8282106117365750505050611590939450604001519060607fffffffffffffffffffffffffffffffffffffffffffffffffffffffffffffffe082850301910152611593565b90919295602080611771837fffffffffffffffffffffffffffffffffffffffffffffffffffffffffffffffe08d600196030186528a51611593565b9801920192019092916116f1565b90919296602080611820837fffffffffffffffffffffffffffffffffffffffffffffffffffffffffffffff6089600196030186528b51836117c98251604085526040850190611593565b910151918481830391015260606117e98351608084526080840190611593565b9267ffffffffffffffff86820151168684015267ffffffffffffffff604082015116604084015201519060608184039101526115d6565b99019201920190929161169c565b359067ffffffffffffffff821682036103ba57565b602081016020825282518091526040820190602060408260051b8501019401925f905b82821061187557505050505090565b90919293947fffffffffffffffffffffffffffffffffffffffffffffffffffffffffffffffc082820301855285519081519160028310156118fd576118f082606060406020959460019787965273ffffffffffffffffffffffffffffffffffffffff86820151168685015201519181604082015201906115d6565b9701950193920190611866565b7f4e487b71000000000000000000000000000000000000000000000000000000005f52602160045260245ffd5b67ffffffffffffffff81116113e25760051b60200190565b9080601f830112156103ba5781359161195a8361192a565b926119686040519485611464565b80845260208085019160051b830101918383116103ba5760208101915b83831061199457505050505090565b823567ffffffffffffffff81116103ba5782019060407fffffffffffffffffffffffffffffffffffffffffffffffffffffffffffffffe083880301126103ba57604051906119e18261142c565b602083013567ffffffffffffffff81116103ba57876020611a04928601016114df565b825260408301359167ffffffffffffffff83116103ba57611a2d886020809695819601016114df565b83820152815201920191611985565b929192611a48826114a5565b91611a566040519384611464565b8294818452818301116103ba578281602093845f96015e010152565b9080601f830112156103ba57815161159092602001611a3c565b519067ffffffffffffffff821682036103ba57565b9080601f830112156103ba57815191611ab98361192a565b92611ac76040519485611464565b80845260208085019160051b830101918383116103ba5760208101915b838310611af357505050505090565b825167ffffffffffffffff81116103ba5782019060407fffffffffffffffffffffffffffffffffffffffffffffffffffffffffffffffe083880301126103ba5760405190611b408261142c565b602083015167ffffffffffffffff81116103ba57876020611b6392860101611a72565b825260408301519167ffffffffffffffff83116103ba57611b8c88602080969581960101611a72565b83820152815201920191611ae4565b60405190611ba882611448565b60606040838281528260208201520152565b6020818303126103ba5780519067ffffffffffffffff82116103ba57016060818303126103ba5760405191611bee83611448565b815167ffffffffffffffff81116103ba57820181601f820112156103ba57805190611c188261192a565b91611c266040519384611464565b80835260208084019160051b830101918483116103ba5760208101915b838310611d0b57505050508352602082015167ffffffffffffffff81116103ba57820181601f820112156103ba578051611c7c8161192a565b91611c8a6040519384611464565b81835260208084019260051b820101918483116103ba5760208201905b838210611cdd57505050506020840152604082015167ffffffffffffffff81116103ba57611cd59201611a72565b604082015290565b815167ffffffffffffffff81116103ba57602091611d0088848094880101611a72565b815201910190611ca7565b825167ffffffffffffffff81116103ba5782019060407fffffffffffffffffffffffffffffffffffffffffffffffffffffffffffffffe083890301126103ba5760405191611d588361142c565b602081015167ffffffffffffffff81116103ba57886020611d7b92840101611a72565b8352604081015167ffffffffffffffff81116103ba576020910101906080828903126103ba57604051926080840184811067ffffffffffffffff8211176113e257604052825167ffffffffffffffff81116103ba5789611ddc918501611a72565b8452611dea60208401611a8c565b6020850152611dfb60408401611a8c565b604085015260608301519367ffffffffffffffff85116103ba57611e248a602096879601611aa1565b606082015283820152815201920191611c43565b60405190611e47602083611464565b5f80835282815b828110611e5a57505050565b602090604051611e698161142c565b6060815260608382015282828501015201611e4e565b6020818303126103ba5780519067ffffffffffffffff82116103ba57019080601f830112156103ba57815161159092602001611a3c565b60409073ffffffffffffffffffffffffffffffffffffffff611590949316815281602082015201906115d6565b6020818303126103ba5780519067ffffffffffffffff82116103ba57019080601f830112156103ba57815191611f188361192a565b92611f266040519485611464565b80845260208085019160051b830101918383116103ba5760208101915b838310611f5257505050505090565b825167ffffffffffffffff81116103ba5782019060607fffffffffffffffffffffffffffffffffffffffffffffffffffffffffffffffe083880301126103ba5760405190611f9f82611448565b602083015160028110156103ba578252604083015173ffffffffffffffffffffffffffffffffffffffff811681036103ba57602083015260608301519167ffffffffffffffff83116103ba57611ffd88602080969581960101611aa1565b6040820152815201920191611f43565b9073ffffffffffffffffffffffffffffffffffffffff1681526040602082015261014073ffffffffffffffffffffffffffffffffffffffff6101006121636121086120d46120a061206c895161012060408b01526101608a0190611593565b60208a01517fffffffffffffffffffffffffffffffffffffffffffffffffffffffffffffffc08a83030160608b0152611593565b60408901517fffffffffffffffffffffffffffffffffffffffffffffffffffffffffffffffc08983030160808a0152611593565b60608801517fffffffffffffffffffffffffffffffffffffffffffffffffffffffffffffffc08883030160a0890152611593565b67ffffffffffffffff60808801511660c087015267ffffffffffffffff60a08801511660e087015260c08701517fffffffffffffffffffffffffffffffffffffffffffffffffffffffffffffffc087830301848801526115d6565b9460e081015115156101208601520151169101529056fea2646970667358221220e2a9e75f4a4b0dafe7b52142c7004f4c2da502d6a7db41efef53aecbc881d07c64736f6c634300081a0033",
        "linkReferences": {
            "src/wrappers/LibBucket.sol": {
                "LibBucket": [
                    {
                        "start": 341,
                        "length": 20
                    },
                    {
                        "start": 855,
                        "length": 20
                    },
                    {
                        "start": 1304,
                        "length": 20
                    },
                    {
                        "start": 1632,
                        "length": 20
                    },
                    {
                        "start": 1991,
                        "length": 20
                    },
                    {
                        "start": 2237,
                        "length": 20
                    },
                    {
                        "start": 2802,
                        "length": 20
                    },
                    {
                        "start": 2956,
                        "length": 20
                    },
                    {
                        "start": 3244,
                        "length": 20
                    },
                    {
                        "start": 3744,
                        "length": 20
                    },
                    {
                        "start": 4210,
                        "length": 20
                    },
                    {
                        "start": 4619,
                        "length": 20
                    }
                ]
            }
        }
    },
    "methodIdentifiers": {
        "addObject(address,(string,string,string,string,uint64,uint64,(string,string)[],bool,address))": "e3486861",
        "addObject(address,string,string,string,string,uint64,address)": "e2866d3e",
        "createBucket()": "4aa82ff5",
        "createBucket(address)": "f6d6c420",
        "createBucket(address,(string,string)[])": "e129ed90",
        "deleteObject(address,string,address)": "41e5e036",
        "getObject(address,string)": "12b4479c",
        "listBuckets()": "63c244c2",
        "listBuckets(address)": "d120303f",
        "queryObjects(address)": "2353af62",
        "queryObjects(address,string)": "b7e95402",
        "queryObjects(address,string,string)": "3a4db777",
        "queryObjects(address,string,string,string)": "9b441b7f",
        "queryObjects(address,string,string,string,uint64)": "37e8b418",
        "updateObjectMetadata(address,string,(string,string)[],address)": "9daae914"
    },
    "storageLayout": {
        "storage": [],
        "types": {}
    },
    "id": 177
}