{
    "abi": [
        {
            "type": "function",
            "name": "approveCredit",
            "inputs": [
                {
                    "name": "to",
                    "type": "address",
                    "internalType": "address"
                }
            ],
            "outputs": [],
            "stateMutability": "nonpayable"
        },
        {
            "type": "function",
            "name": "approveCredit",
            "inputs": [
                {
                    "name": "from",
                    "type": "address",
                    "internalType": "address"
                },
                {
                    "name": "to",
                    "type": "address",
                    "internalType": "address"
                },
                {
                    "name": "caller",
                    "type": "address[]",
                    "internalType": "address[]"
                }
            ],
            "outputs": [],
            "stateMutability": "nonpayable"
        },
        {
            "type": "function",
            "name": "approveCredit",
            "inputs": [
                {
                    "name": "from",
                    "type": "address",
                    "internalType": "address"
                },
                {
                    "name": "to",
                    "type": "address",
                    "internalType": "address"
                },
                {
                    "name": "caller",
                    "type": "address[]",
                    "internalType": "address[]"
                },
                {
                    "name": "creditLimit",
                    "type": "uint256",
                    "internalType": "uint256"
                },
                {
                    "name": "gasFeeLimit",
                    "type": "uint256",
                    "internalType": "uint256"
                },
                {
                    "name": "ttl",
                    "type": "uint64",
                    "internalType": "uint64"
                }
            ],
            "outputs": [],
            "stateMutability": "nonpayable"
        },
        {
            "type": "function",
            "name": "approveCredit",
            "inputs": [
                {
                    "name": "from",
                    "type": "address",
                    "internalType": "address"
                },
                {
                    "name": "to",
                    "type": "address",
                    "internalType": "address"
                }
            ],
            "outputs": [],
            "stateMutability": "nonpayable"
        },
        {
            "type": "function",
            "name": "buyCredit",
            "inputs": [],
            "outputs": [],
            "stateMutability": "payable"
        },
        {
            "type": "function",
            "name": "buyCredit",
            "inputs": [
                {
                    "name": "recipient",
                    "type": "address",
                    "internalType": "address"
                }
            ],
            "outputs": [],
            "stateMutability": "payable"
        },
        {
            "type": "function",
            "name": "getAccount",
            "inputs": [
                {
                    "name": "addr",
                    "type": "address",
                    "internalType": "address"
                }
            ],
            "outputs": [
                {
                    "name": "account",
                    "type": "tuple",
                    "internalType": "struct Account",
                    "components": [
                        {
                            "name": "capacityUsed",
                            "type": "uint64",
                            "internalType": "uint64"
                        },
                        {
                            "name": "creditFree",
                            "type": "uint256",
                            "internalType": "uint256"
                        },
                        {
                            "name": "creditCommitted",
                            "type": "uint256",
                            "internalType": "uint256"
                        },
                        {
                            "name": "creditSponsor",
                            "type": "address",
                            "internalType": "address"
                        },
                        {
                            "name": "lastDebitEpoch",
                            "type": "uint64",
                            "internalType": "uint64"
                        },
                        {
                            "name": "approvalsTo",
                            "type": "tuple[]",
                            "internalType": "struct Approval[]",
                            "components": [
                                {
                                    "name": "addr",
                                    "type": "address",
                                    "internalType": "address"
                                },
                                {
                                    "name": "approval",
                                    "type": "tuple",
                                    "internalType": "struct CreditApproval",
                                    "components": [
                                        {
                                            "name": "creditLimit",
                                            "type": "uint256",
                                            "internalType": "uint256"
                                        },
                                        {
                                            "name": "gasFeeLimit",
                                            "type": "uint256",
                                            "internalType": "uint256"
                                        },
                                        {
                                            "name": "expiry",
                                            "type": "uint64",
                                            "internalType": "uint64"
                                        },
                                        {
                                            "name": "creditUsed",
                                            "type": "uint256",
                                            "internalType": "uint256"
                                        },
                                        {
                                            "name": "gasFeeUsed",
                                            "type": "uint256",
                                            "internalType": "uint256"
                                        }
                                    ]
                                }
                            ]
                        },
                        {
                            "name": "approvalsFrom",
                            "type": "tuple[]",
                            "internalType": "struct Approval[]",
                            "components": [
                                {
                                    "name": "addr",
                                    "type": "address",
                                    "internalType": "address"
                                },
                                {
                                    "name": "approval",
                                    "type": "tuple",
                                    "internalType": "struct CreditApproval",
                                    "components": [
                                        {
                                            "name": "creditLimit",
                                            "type": "uint256",
                                            "internalType": "uint256"
                                        },
                                        {
                                            "name": "gasFeeLimit",
                                            "type": "uint256",
                                            "internalType": "uint256"
                                        },
                                        {
                                            "name": "expiry",
                                            "type": "uint64",
                                            "internalType": "uint64"
                                        },
                                        {
                                            "name": "creditUsed",
                                            "type": "uint256",
                                            "internalType": "uint256"
                                        },
                                        {
                                            "name": "gasFeeUsed",
                                            "type": "uint256",
                                            "internalType": "uint256"
                                        }
                                    ]
                                }
                            ]
                        },
                        {
                            "name": "maxTtl",
                            "type": "uint64",
                            "internalType": "uint64"
                        },
                        {
                            "name": "gasAllowance",
                            "type": "uint256",
                            "internalType": "uint256"
                        }
                    ]
                }
            ],
            "stateMutability": "view"
        },
        {
            "type": "function",
            "name": "getCreditApproval",
            "inputs": [
                {
                    "name": "from",
                    "type": "address",
                    "internalType": "address"
                },
                {
                    "name": "to",
                    "type": "address",
                    "internalType": "address"
                }
            ],
            "outputs": [
                {
                    "name": "approval",
                    "type": "tuple",
                    "internalType": "struct CreditApproval",
                    "components": [
                        {
                            "name": "creditLimit",
                            "type": "uint256",
                            "internalType": "uint256"
                        },
                        {
                            "name": "gasFeeLimit",
                            "type": "uint256",
                            "internalType": "uint256"
                        },
                        {
                            "name": "expiry",
                            "type": "uint64",
                            "internalType": "uint64"
                        },
                        {
                            "name": "creditUsed",
                            "type": "uint256",
                            "internalType": "uint256"
                        },
                        {
                            "name": "gasFeeUsed",
                            "type": "uint256",
                            "internalType": "uint256"
                        }
                    ]
                }
            ],
            "stateMutability": "view"
        },
        {
            "type": "function",
            "name": "getCreditBalance",
            "inputs": [
                {
                    "name": "addr",
                    "type": "address",
                    "internalType": "address"
                }
            ],
            "outputs": [
                {
                    "name": "balance",
                    "type": "tuple",
                    "internalType": "struct Balance",
                    "components": [
                        {
                            "name": "creditFree",
                            "type": "uint256",
                            "internalType": "uint256"
                        },
                        {
                            "name": "creditCommitted",
                            "type": "uint256",
                            "internalType": "uint256"
                        },
                        {
                            "name": "creditSponsor",
                            "type": "address",
                            "internalType": "address"
                        },
                        {
                            "name": "lastDebitEpoch",
                            "type": "uint64",
                            "internalType": "uint64"
                        },
                        {
                            "name": "approvalsTo",
                            "type": "tuple[]",
                            "internalType": "struct Approval[]",
                            "components": [
                                {
                                    "name": "addr",
                                    "type": "address",
                                    "internalType": "address"
                                },
                                {
                                    "name": "approval",
                                    "type": "tuple",
                                    "internalType": "struct CreditApproval",
                                    "components": [
                                        {
                                            "name": "creditLimit",
                                            "type": "uint256",
                                            "internalType": "uint256"
                                        },
                                        {
                                            "name": "gasFeeLimit",
                                            "type": "uint256",
                                            "internalType": "uint256"
                                        },
                                        {
                                            "name": "expiry",
                                            "type": "uint64",
                                            "internalType": "uint64"
                                        },
                                        {
                                            "name": "creditUsed",
                                            "type": "uint256",
                                            "internalType": "uint256"
                                        },
                                        {
                                            "name": "gasFeeUsed",
                                            "type": "uint256",
                                            "internalType": "uint256"
                                        }
                                    ]
                                }
                            ]
                        },
                        {
                            "name": "approvalsFrom",
                            "type": "tuple[]",
                            "internalType": "struct Approval[]",
                            "components": [
                                {
                                    "name": "addr",
                                    "type": "address",
                                    "internalType": "address"
                                },
                                {
                                    "name": "approval",
                                    "type": "tuple",
                                    "internalType": "struct CreditApproval",
                                    "components": [
                                        {
                                            "name": "creditLimit",
                                            "type": "uint256",
                                            "internalType": "uint256"
                                        },
                                        {
                                            "name": "gasFeeLimit",
                                            "type": "uint256",
                                            "internalType": "uint256"
                                        },
                                        {
                                            "name": "expiry",
                                            "type": "uint64",
                                            "internalType": "uint64"
                                        },
                                        {
                                            "name": "creditUsed",
                                            "type": "uint256",
                                            "internalType": "uint256"
                                        },
                                        {
                                            "name": "gasFeeUsed",
                                            "type": "uint256",
                                            "internalType": "uint256"
                                        }
                                    ]
                                }
                            ]
                        },
                        {
                            "name": "gasAllowance",
                            "type": "uint256",
                            "internalType": "uint256"
                        }
                    ]
                }
            ],
            "stateMutability": "view"
        },
        {
            "type": "function",
            "name": "getCreditStats",
            "inputs": [],
            "outputs": [
                {
                    "name": "stats",
                    "type": "tuple",
                    "internalType": "struct CreditStats",
                    "components": [
                        {
                            "name": "balance",
                            "type": "uint256",
                            "internalType": "uint256"
                        },
                        {
                            "name": "creditSold",
                            "type": "uint256",
                            "internalType": "uint256"
                        },
                        {
                            "name": "creditCommitted",
                            "type": "uint256",
                            "internalType": "uint256"
                        },
                        {
                            "name": "creditDebited",
                            "type": "uint256",
                            "internalType": "uint256"
                        },
                        {
                            "name": "tokenCreditRate",
                            "type": "uint256",
                            "internalType": "uint256"
                        },
                        {
                            "name": "numAccounts",
                            "type": "uint64",
                            "internalType": "uint64"
                        }
                    ]
                }
            ],
            "stateMutability": "view"
        },
        {
            "type": "function",
            "name": "revokeCredit",
            "inputs": [
                {
                    "name": "from",
                    "type": "address",
                    "internalType": "address"
                },
                {
                    "name": "to",
                    "type": "address",
                    "internalType": "address"
                }
            ],
            "outputs": [],
            "stateMutability": "nonpayable"
        },
        {
            "type": "function",
            "name": "revokeCredit",
            "inputs": [
                {
                    "name": "to",
                    "type": "address",
                    "internalType": "address"
                }
            ],
            "outputs": [],
            "stateMutability": "nonpayable"
        },
        {
            "type": "function",
            "name": "revokeCredit",
            "inputs": [
                {
                    "name": "from",
                    "type": "address",
                    "internalType": "address"
                },
                {
                    "name": "to",
                    "type": "address",
                    "internalType": "address"
                },
                {
                    "name": "caller",
                    "type": "address",
                    "internalType": "address"
                }
            ],
            "outputs": [],
            "stateMutability": "nonpayable"
        },
        {
            "type": "function",
            "name": "setAccountSponsor",
            "inputs": [
                {
                    "name": "from",
                    "type": "address",
                    "internalType": "address"
                },
                {
                    "name": "sponsor",
                    "type": "address",
                    "internalType": "address"
                }
            ],
            "outputs": [],
            "stateMutability": "nonpayable"
        }
    ],
    "bytecode": {
        "object": "0x60808060405234601557611530908161001a8239f35b5f80fdfe60806040526004361015610011575f80fd5b5f803560e01c806301e98bfa14610fe0578063030ed54814610f475780636add1b3f14610cf15780637da4cb5914610c335780638e4e6f0614610bb6578063a38eae9f14610b07578063a84a153514610a21578063a8ef8caf14610960578063b27d8c0214610849578063c7d0b56c146106d7578063cd9be80f14610569578063d188931d14610468578063f1d6ed64146103895763fbcbc0f1146100b4575f80fd5b3461036d5760207ffffffffffffffffffffffffffffffffffffffffffffffffffffffffffffffffc36011261036d576100eb611066565b90806101006040516100fc8161112d565b828152826020820152826040820152826060820152826080820152606060a0820152606060c08201528260e0820152015273ffffffffffffffffffffffffffffffffffffffff604051927ffbcbc0f1000000000000000000000000000000000000000000000000000000008452166004830152808260248173__$e990d9c4ebd8dc1dd043363d95ee352ae8$__5af491821561037c578192610271575b8260405180916020825267ffffffffffffffff8151166020830152602081015160408301526040810151606083015273ffffffffffffffffffffffffffffffffffffffff606082015116608083015267ffffffffffffffff60808201511660a083015261010061025161021d60a084015161012060c087015261014086019061121e565b60c08401517fffffffffffffffffffffffffffffffffffffffffffffffffffffffffffffffe08683030160e087015261121e565b9167ffffffffffffffff60e0820151168285015201516101208301520390f35b9091503d8083833e610283818361114a565b8101906020818303126103745780519067ffffffffffffffff82116103785701906101208282031261037457604051926102bc8461112d565b6102c5836113f4565b845260208301516020850152604083015160408501526102e7606084016113d3565b60608501526102f8608084016113f4565b608085015260a083015167ffffffffffffffff8111610370578261031d918501611456565b60a085015260c08301519067ffffffffffffffff821161036d57508291610348916101009401611456565b60c084015261035960e082016113f4565b60e084015201516101008201525f80610199565b80fd5b5080fd5b8280fd5b8380fd5b50604051903d90823e3d90fd5b503461036d5760407ffffffffffffffffffffffffffffffffffffffffffffffffffffffffffffffffc36011261036d576103c1611066565b816103ca611089565b604051926103d960208561114a565b8284525f36813761041760405194859384937fb27d8c0200000000000000000000000000000000000000000000000000000000855260048501611387565b038173__$e990d9c4ebd8dc1dd043363d95ee352ae8$__5af4801561045d5761043e575080f35b610459903d8084833e610451818361114a565b8101906112ad565b5080f35b6040513d84823e3d90fd5b503461036d5760607ffffffffffffffffffffffffffffffffffffffffffffffffffffffffffffffffc36011261036d57806104a1611066565b6104a9611089565b9060443573ffffffffffffffffffffffffffffffffffffffff81168091036105645773__$e990d9c4ebd8dc1dd043363d95ee352ae8$__90813b1561056057849273ffffffffffffffffffffffffffffffffffffffff926064928460405197889687957fd188931d00000000000000000000000000000000000000000000000000000000875216600486015216602484015260448301525af4801561045d5761054f5750f35b816105599161114a565b61036d5780f35b8480fd5b505050fd5b503461036d5760407ffffffffffffffffffffffffffffffffffffffffffffffffffffffffffffffffc36011261036d5761062e60a06105a6611066565b6105ae611089565b908460806040516105be81611111565b828152826020820152826040820152826060820152015260405193849283927fcd9be80f0000000000000000000000000000000000000000000000000000000084526004840190929173ffffffffffffffffffffffffffffffffffffffff60209181604085019616845216910152565b038173__$e990d9c4ebd8dc1dd043363d95ee352ae8$__5af490811561045d578291610699575b60a082610697604051809260808091805184526020810151602085015267ffffffffffffffff6040820151166040850152606081015160608501520151910152565bf35b905060a03d60a0116106d0575b6106b0818361114a565b81019160a08284031261036d575060a0916106ca91611409565b5f610655565b503d6106a6565b503461036d57807ffffffffffffffffffffffffffffffffffffffffffffffffffffffffffffffffc36011261036d578060a0604051610715816110f5565b82815282602082015282604082015282606082015282608082015201526040517fc7d0b56c00000000000000000000000000000000000000000000000000000000815260c08160048173__$e990d9c4ebd8dc1dd043363d95ee352ae8$__5af490811561045d5782916107cb575b60c08267ffffffffffffffff60a060405192805184526020810151602085015260408101516040850152606081015160608501526080810151608085015201511660a0820152f35b905060c0813d60c011610841575b816107e660c0938361114a565b810103126103705760c0915061083660a060405192610804846110f5565b8051845260208101516020850152604081015160408501526060810151606085015260808101516080850152016113f4565b60a08201525f610783565b3d91506107d9565b503461036d5760c07ffffffffffffffffffffffffffffffffffffffffffffffffffffffffffffffffc36011261036d57610881611066565b8161088a611089565b9160443567ffffffffffffffff8111610374576108ab9036906004016111a3565b9060a43567ffffffffffffffff81168091036103785761092373ffffffffffffffffffffffffffffffffffffffff938460405197889687967fb27d8c0200000000000000000000000000000000000000000000000000000000885216600487015216602485015260c0604485015260c484019061133e565b906064356064840152608435608484015260a4830152038173__$e990d9c4ebd8dc1dd043363d95ee352ae8$__5af4801561045d5761043e575080f35b503461036d5760207ffffffffffffffffffffffffffffffffffffffffffffffffffffffffffffffffc36011261036d5780610999611066565b73__$e990d9c4ebd8dc1dd043363d95ee352ae8$__803b15610a1d576040517fd188931d00000000000000000000000000000000000000000000000000000000815233600482015273ffffffffffffffffffffffffffffffffffffffff9290921660248301525f60448301528290829060649082905af4801561045d5761054f5750f35b5050fd5b5034610b035760407ffffffffffffffffffffffffffffffffffffffffffffffffffffffffffffffffc360112610b0357610a59611066565b610a61611089565b9073__$e990d9c4ebd8dc1dd043363d95ee352ae8$__91823b15610b03576040517fd188931d00000000000000000000000000000000000000000000000000000000815273ffffffffffffffffffffffffffffffffffffffff9283166004820152911660248201525f604482018190529091829060649082905af48015610af857610aea575080f35b610af691505f9061114a565b005b6040513d5f823e3d90fd5b5f80fd5b60207ffffffffffffffffffffffffffffffffffffffffffffffffffffffffffffffffc360112610b0357610b39611066565b73ffffffffffffffffffffffffffffffffffffffff604051917fa38eae9f0000000000000000000000000000000000000000000000000000000083521660048201525f8160248173__$e990d9c4ebd8dc1dd043363d95ee352ae8$__5af48015610af857610ba357005b610af6903d805f833e610451818361114a565b5f7ffffffffffffffffffffffffffffffffffffffffffffffffffffffffffffffffc360112610b03576040517fa38eae9f0000000000000000000000000000000000000000000000000000000081523360048201525f8160248173__$e990d9c4ebd8dc1dd043363d95ee352ae8$__5af48015610af857610ba357005b34610b035760407ffffffffffffffffffffffffffffffffffffffffffffffffffffffffffffffffc360112610b0357610ccc5f610c6e611066565b610c76611089565b6040517f7da4cb5900000000000000000000000000000000000000000000000000000000815273ffffffffffffffffffffffffffffffffffffffff92831660048201529116602482015291829081906044820190565b038173__$e990d9c4ebd8dc1dd043363d95ee352ae8$__5af48015610af857610ba357005b34610b035760207ffffffffffffffffffffffffffffffffffffffffffffffffffffffffffffffffc360112610b0357610d28611066565b5f60c0604051610d37816110ac565b82815282602082015282604082015282606082015260606080820152606060a0820152015273ffffffffffffffffffffffffffffffffffffffff604051917f6add1b3f0000000000000000000000000000000000000000000000000000000083521660048201525f8160248173__$e990d9c4ebd8dc1dd043363d95ee352ae8$__5af4908115610af8575f91610e75575b50604051809160208252805160208301526020810151604083015273ffffffffffffffffffffffffffffffffffffffff604082015116606083015267ffffffffffffffff606082015116608083015260c0610e69610e36608084015160e060a087015261010086019061121e565b60a08401517fffffffffffffffffffffffffffffffffffffffffffffffffffffffffffffffe0868303018487015261121e565b91015160e08301520390f35b90503d805f833e610e86818361114a565b810190602081830312610b035780519067ffffffffffffffff8211610b0357019060e082820312610b035760405191610ebe836110ac565b8051835260208101516020840152610ed8604082016113d3565b6040840152610ee9606082016113f4565b6060840152608081015167ffffffffffffffff8111610b035782610f0e918301611456565b608084015260a081015167ffffffffffffffff8111610b035760c092610f35918301611456565b60a0840152015160c082015281610dc8565b34610b035760607ffffffffffffffffffffffffffffffffffffffffffffffffffffffffffffffffc360112610b0357610f7e611066565b610f86611089565b6044359067ffffffffffffffff8211610b0357610fa85f9236906004016111a3565b92610ccc60405194859384937fb27d8c0200000000000000000000000000000000000000000000000000000000855260048501611387565b34610b035760207ffffffffffffffffffffffffffffffffffffffffffffffffffffffffffffffffc360112610b0357610ccc5f61101b611066565b6040519061102a60208361114a565b8282528236813760405193849283927fb27d8c020000000000000000000000000000000000000000000000000000000084523360048501611387565b6004359073ffffffffffffffffffffffffffffffffffffffff82168203610b0357565b6024359073ffffffffffffffffffffffffffffffffffffffff82168203610b0357565b60e0810190811067ffffffffffffffff8211176110c857604052565b7f4e487b71000000000000000000000000000000000000000000000000000000005f52604160045260245ffd5b60c0810190811067ffffffffffffffff8211176110c857604052565b60a0810190811067ffffffffffffffff8211176110c857604052565b610120810190811067ffffffffffffffff8211176110c857604052565b90601f7fffffffffffffffffffffffffffffffffffffffffffffffffffffffffffffffe0910116810190811067ffffffffffffffff8211176110c857604052565b67ffffffffffffffff81116110c85760051b60200190565b9080601f83011215610b03578135906111bb8261118b565b926111c9604051948561114a565b82845260208085019360051b820101918211610b0357602001915b8183106111f15750505090565b823573ffffffffffffffffffffffffffffffffffffffff81168103610b03578152602092830192016111e4565b90602080835192838152019201905f5b81811061123b5750505090565b909192602060c06001926112a283885173ffffffffffffffffffffffffffffffffffffffff815116845201518483019060808091805184526020810151602085015267ffffffffffffffff6040820151166040850152606081015160608501520151910152565b01940192910161122e565b602081830312610b035780519067ffffffffffffffff8211610b03570181601f82011215610b035780519067ffffffffffffffff82116110c8576040519261131d60207fffffffffffffffffffffffffffffffffffffffffffffffffffffffffffffffe0601f860116018561114a565b82845260208383010111610b0357815f9260208093018386015e8301015290565b90602080835192838152019201905f5b81811061135b5750505090565b825173ffffffffffffffffffffffffffffffffffffffff1684526020938401939092019160010161134e565b93926113c29073ffffffffffffffffffffffffffffffffffffffff5f948160a09516885216602087015260c0604087015260c086019061133e565b938260608201528260808201520152565b519073ffffffffffffffffffffffffffffffffffffffff82168203610b0357565b519067ffffffffffffffff82168203610b0357565b91908260a0910312610b035760405161142181611111565b60808082948051845260208101516020850152611440604082016113f4565b6040850152606081015160608501520151910152565b81601f82011215610b035780519061146d8261118b565b9261147b604051948561114a565b828452602060c0818601940283010191818311610b0357602001925b8284106114a5575050505090565b60c084830312610b035760405190604082019082821067ffffffffffffffff8311176110c85760c0926020926040526114dd876113d3565b81526114eb85848901611409565b8382015281520193019261149756fea2646970667358221220d809c0185bacb11d84424413e9050ff801b13dc0f49cf4710c57df5d991e692564736f6c634300081a0033",
        "linkReferences": {
            "src/wrappers/LibBlob.sol": {
                "LibBlob": [
                    {
                        "start": 400,
                        "length": 20
                    },
                    {
                        "start": 1077,
                        "length": 20
                    },
                    {
                        "start": 1255,
                        "length": 20
                    },
                    {
                        "start": 1612,
                        "length": 20
                    },
                    {
                        "start": 1914,
                        "length": 20
                    },
                    {
                        "start": 2391,
                        "length": 20
                    },
                    {
                        "start": 2485,
                        "length": 20
                    },
                    {
                        "start": 2686,
                        "length": 20
                    },
                    {
                        "start": 2972,
                        "length": 20
                    },
                    {
                        "start": 3116,
                        "length": 20
                    },
                    {
                        "start": 3306,
                        "length": 20
                    },
                    {
                        "start": 3519,
                        "length": 20
                    }
                ]
            }
        }
    },
    "methodIdentifiers": {
        "approveCredit(address)": "01e98bfa",
        "approveCredit(address,address)": "f1d6ed64",
        "approveCredit(address,address,address[])": "030ed548",
        "approveCredit(address,address,address[],uint256,uint256,uint64)": "b27d8c02",
        "buyCredit()": "8e4e6f06",
        "buyCredit(address)": "a38eae9f",
        "getAccount(address)": "fbcbc0f1",
        "getCreditApproval(address,address)": "cd9be80f",
        "getCreditBalance(address)": "6add1b3f",
        "getCreditStats()": "c7d0b56c",
        "revokeCredit(address)": "a8ef8caf",
        "revokeCredit(address,address)": "a84a1535",
        "revokeCredit(address,address,address)": "d188931d",
        "setAccountSponsor(address,address)": "7da4cb59"
    },
    "storageLayout": {
        "storage": [],
        "types": {}
    },
    "id": 178
}