{
    "abi": [
        {
            "type": "function",
            "name": "approveCredit",
            "inputs": [
                {
                    "name": "to",
                    "type": "address",
                    "internalType": "address"
                }
            ],
            "outputs": [],
            "stateMutability": "nonpayable"
        },
        {
            "type": "function",
            "name": "approveCredit",
            "inputs": [
                {
                    "name": "from",
                    "type": "address",
                    "internalType": "address"
                },
                {
                    "name": "to",
                    "type": "address",
                    "internalType": "address"
                },
                {
                    "name": "caller",
                    "type": "address[]",
                    "internalType": "address[]"
                }
            ],
            "outputs": [],
            "stateMutability": "nonpayable"
        },
        {
            "type": "function",
            "name": "approveCredit",
            "inputs": [
                {
                    "name": "from",
                    "type": "address",
                    "internalType": "address"
                },
                {
                    "name": "to",
                    "type": "address",
                    "internalType": "address"
                },
                {
                    "name": "caller",
                    "type": "address[]",
                    "internalType": "address[]"
                },
                {
                    "name": "creditLimit",
                    "type": "uint256",
                    "internalType": "uint256"
                },
                {
                    "name": "gasFeeLimit",
                    "type": "uint256",
                    "internalType": "uint256"
                },
                {
                    "name": "ttl",
                    "type": "uint64",
                    "internalType": "uint64"
                }
            ],
            "outputs": [],
            "stateMutability": "nonpayable"
        },
        {
            "type": "function",
            "name": "approveCredit",
            "inputs": [
                {
                    "name": "from",
                    "type": "address",
                    "internalType": "address"
                },
                {
                    "name": "to",
                    "type": "address",
                    "internalType": "address"
                }
            ],
            "outputs": [],
            "stateMutability": "nonpayable"
        },
        {
            "type": "function",
            "name": "buyCredit",
            "inputs": [],
            "outputs": [],
            "stateMutability": "payable"
        },
        {
            "type": "function",
            "name": "buyCredit",
            "inputs": [
                {
                    "name": "recipient",
                    "type": "address",
                    "internalType": "address"
                }
            ],
            "outputs": [],
            "stateMutability": "payable"
        },
        {
            "type": "function",
            "name": "getAccount",
            "inputs": [
                {
                    "name": "addr",
                    "type": "address",
                    "internalType": "address"
                }
            ],
            "outputs": [
                {
                    "name": "account",
                    "type": "tuple",
                    "internalType": "struct Account",
                    "components": [
                        {
                            "name": "capacityUsed",
                            "type": "uint64",
                            "internalType": "uint64"
                        },
                        {
                            "name": "creditFree",
                            "type": "uint256",
                            "internalType": "uint256"
                        },
                        {
                            "name": "creditCommitted",
                            "type": "uint256",
                            "internalType": "uint256"
                        },
                        {
                            "name": "creditSponsor",
                            "type": "address",
                            "internalType": "address"
                        },
                        {
                            "name": "lastDebitEpoch",
                            "type": "uint64",
                            "internalType": "uint64"
                        },
                        {
                            "name": "approvalsTo",
                            "type": "tuple[]",
                            "internalType": "struct Approval[]",
                            "components": [
                                {
                                    "name": "addr",
                                    "type": "address",
                                    "internalType": "address"
                                },
                                {
                                    "name": "approval",
                                    "type": "tuple",
                                    "internalType": "struct CreditApproval",
                                    "components": [
                                        {
                                            "name": "creditLimit",
                                            "type": "uint256",
                                            "internalType": "uint256"
                                        },
                                        {
                                            "name": "gasFeeLimit",
                                            "type": "uint256",
                                            "internalType": "uint256"
                                        },
                                        {
                                            "name": "expiry",
                                            "type": "uint64",
                                            "internalType": "uint64"
                                        },
                                        {
                                            "name": "creditUsed",
                                            "type": "uint256",
                                            "internalType": "uint256"
                                        },
                                        {
                                            "name": "gasFeeUsed",
                                            "type": "uint256",
                                            "internalType": "uint256"
                                        }
                                    ]
                                }
                            ]
                        },
                        {
                            "name": "approvalsFrom",
                            "type": "tuple[]",
                            "internalType": "struct Approval[]",
                            "components": [
                                {
                                    "name": "addr",
                                    "type": "address",
                                    "internalType": "address"
                                },
                                {
                                    "name": "approval",
                                    "type": "tuple",
                                    "internalType": "struct CreditApproval",
                                    "components": [
                                        {
                                            "name": "creditLimit",
                                            "type": "uint256",
                                            "internalType": "uint256"
                                        },
                                        {
                                            "name": "gasFeeLimit",
                                            "type": "uint256",
                                            "internalType": "uint256"
                                        },
                                        {
                                            "name": "expiry",
                                            "type": "uint64",
                                            "internalType": "uint64"
                                        },
                                        {
                                            "name": "creditUsed",
                                            "type": "uint256",
                                            "internalType": "uint256"
                                        },
                                        {
                                            "name": "gasFeeUsed",
                                            "type": "uint256",
                                            "internalType": "uint256"
                                        }
                                    ]
                                }
                            ]
                        },
                        {
                            "name": "maxTtl",
                            "type": "uint64",
                            "internalType": "uint64"
                        },
                        {
                            "name": "gasAllowance",
                            "type": "uint256",
                            "internalType": "uint256"
                        }
                    ]
                }
            ],
            "stateMutability": "view"
        },
        {
            "type": "function",
            "name": "getCreditApproval",
            "inputs": [
                {
                    "name": "from",
                    "type": "address",
                    "internalType": "address"
                },
                {
                    "name": "to",
                    "type": "address",
                    "internalType": "address"
                }
            ],
            "outputs": [
                {
                    "name": "approval",
                    "type": "tuple",
                    "internalType": "struct CreditApproval",
                    "components": [
                        {
                            "name": "creditLimit",
                            "type": "uint256",
                            "internalType": "uint256"
                        },
                        {
                            "name": "gasFeeLimit",
                            "type": "uint256",
                            "internalType": "uint256"
                        },
                        {
                            "name": "expiry",
                            "type": "uint64",
                            "internalType": "uint64"
                        },
                        {
                            "name": "creditUsed",
                            "type": "uint256",
                            "internalType": "uint256"
                        },
                        {
                            "name": "gasFeeUsed",
                            "type": "uint256",
                            "internalType": "uint256"
                        }
                    ]
                }
            ],
            "stateMutability": "view"
        },
        {
            "type": "function",
            "name": "getCreditBalance",
            "inputs": [
                {
                    "name": "addr",
                    "type": "address",
                    "internalType": "address"
                }
            ],
            "outputs": [
                {
                    "name": "balance",
                    "type": "tuple",
                    "internalType": "struct Balance",
                    "components": [
                        {
                            "name": "creditFree",
                            "type": "uint256",
                            "internalType": "uint256"
                        },
                        {
                            "name": "creditCommitted",
                            "type": "uint256",
                            "internalType": "uint256"
                        },
                        {
                            "name": "creditSponsor",
                            "type": "address",
                            "internalType": "address"
                        },
                        {
                            "name": "lastDebitEpoch",
                            "type": "uint64",
                            "internalType": "uint64"
                        },
                        {
                            "name": "approvalsTo",
                            "type": "tuple[]",
                            "internalType": "struct Approval[]",
                            "components": [
                                {
                                    "name": "addr",
                                    "type": "address",
                                    "internalType": "address"
                                },
                                {
                                    "name": "approval",
                                    "type": "tuple",
                                    "internalType": "struct CreditApproval",
                                    "components": [
                                        {
                                            "name": "creditLimit",
                                            "type": "uint256",
                                            "internalType": "uint256"
                                        },
                                        {
                                            "name": "gasFeeLimit",
                                            "type": "uint256",
                                            "internalType": "uint256"
                                        },
                                        {
                                            "name": "expiry",
                                            "type": "uint64",
                                            "internalType": "uint64"
                                        },
                                        {
                                            "name": "creditUsed",
                                            "type": "uint256",
                                            "internalType": "uint256"
                                        },
                                        {
                                            "name": "gasFeeUsed",
                                            "type": "uint256",
                                            "internalType": "uint256"
                                        }
                                    ]
                                }
                            ]
                        },
                        {
                            "name": "approvalsFrom",
                            "type": "tuple[]",
                            "internalType": "struct Approval[]",
                            "components": [
                                {
                                    "name": "addr",
                                    "type": "address",
                                    "internalType": "address"
                                },
                                {
                                    "name": "approval",
                                    "type": "tuple",
                                    "internalType": "struct CreditApproval",
                                    "components": [
                                        {
                                            "name": "creditLimit",
                                            "type": "uint256",
                                            "internalType": "uint256"
                                        },
                                        {
                                            "name": "gasFeeLimit",
                                            "type": "uint256",
                                            "internalType": "uint256"
                                        },
                                        {
                                            "name": "expiry",
                                            "type": "uint64",
                                            "internalType": "uint64"
                                        },
                                        {
                                            "name": "creditUsed",
                                            "type": "uint256",
                                            "internalType": "uint256"
                                        },
                                        {
                                            "name": "gasFeeUsed",
                                            "type": "uint256",
                                            "internalType": "uint256"
                                        }
                                    ]
                                }
                            ]
                        },
                        {
                            "name": "gasAllowance",
                            "type": "uint256",
                            "internalType": "uint256"
                        }
                    ]
                }
            ],
            "stateMutability": "view"
        },
        {
            "type": "function",
            "name": "getCreditStats",
            "inputs": [],
            "outputs": [
                {
                    "name": "stats",
                    "type": "tuple",
                    "internalType": "struct CreditStats",
                    "components": [
                        {
                            "name": "balance",
                            "type": "uint256",
                            "internalType": "uint256"
                        },
                        {
                            "name": "creditSold",
                            "type": "uint256",
                            "internalType": "uint256"
                        },
                        {
                            "name": "creditCommitted",
                            "type": "uint256",
                            "internalType": "uint256"
                        },
                        {
                            "name": "creditDebited",
                            "type": "uint256",
                            "internalType": "uint256"
                        },
                        {
                            "name": "tokenCreditRate",
                            "type": "uint256",
                            "internalType": "uint256"
                        },
                        {
                            "name": "numAccounts",
                            "type": "uint64",
                            "internalType": "uint64"
                        }
                    ]
                }
            ],
            "stateMutability": "view"
        },
        {
            "type": "function",
            "name": "revokeCredit",
            "inputs": [
                {
                    "name": "from",
                    "type": "address",
                    "internalType": "address"
                },
                {
                    "name": "to",
                    "type": "address",
                    "internalType": "address"
                }
            ],
            "outputs": [],
            "stateMutability": "nonpayable"
        },
        {
            "type": "function",
            "name": "revokeCredit",
            "inputs": [
                {
                    "name": "to",
                    "type": "address",
                    "internalType": "address"
                }
            ],
            "outputs": [],
            "stateMutability": "nonpayable"
        },
        {
            "type": "function",
            "name": "revokeCredit",
            "inputs": [
                {
                    "name": "from",
                    "type": "address",
                    "internalType": "address"
                },
                {
                    "name": "to",
                    "type": "address",
                    "internalType": "address"
                },
                {
                    "name": "caller",
                    "type": "address",
                    "internalType": "address"
                }
            ],
            "outputs": [],
            "stateMutability": "nonpayable"
        },
        {
            "type": "function",
            "name": "setAccountSponsor",
            "inputs": [
                {
                    "name": "from",
                    "type": "address",
                    "internalType": "address"
                },
                {
                    "name": "sponsor",
                    "type": "address",
                    "internalType": "address"
                }
            ],
            "outputs": [],
            "stateMutability": "nonpayable"
        },
        {
            "type": "event",
            "name": "ApproveCredit",
            "inputs": [
                {
                    "name": "from",
                    "type": "address",
                    "indexed": true,
                    "internalType": "address"
                },
                {
                    "name": "to",
                    "type": "address",
                    "indexed": true,
                    "internalType": "address"
                },
                {
                    "name": "caller",
                    "type": "address[]",
                    "indexed": false,
                    "internalType": "address[]"
                },
                {
                    "name": "creditLimit",
                    "type": "uint256",
                    "indexed": false,
                    "internalType": "uint256"
                },
                {
                    "name": "gasFeeLimit",
                    "type": "uint256",
                    "indexed": false,
                    "internalType": "uint256"
                },
                {
                    "name": "ttl",
                    "type": "uint64",
                    "indexed": false,
                    "internalType": "uint64"
                }
            ],
            "anonymous": false
        },
        {
            "type": "event",
            "name": "BuyCredit",
            "inputs": [
                {
                    "name": "addr",
                    "type": "address",
                    "indexed": true,
                    "internalType": "address"
                },
                {
                    "name": "amount",
                    "type": "uint256",
                    "indexed": false,
                    "internalType": "uint256"
                }
            ],
            "anonymous": false
        },
        {
            "type": "event",
            "name": "RevokeCredit",
            "inputs": [
                {
                    "name": "from",
                    "type": "address",
                    "indexed": true,
                    "internalType": "address"
                },
                {
                    "name": "to",
                    "type": "address",
                    "indexed": true,
                    "internalType": "address"
                },
                {
                    "name": "caller",
                    "type": "address",
                    "indexed": true,
                    "internalType": "address"
                }
            ],
            "anonymous": false
        },
        {
            "type": "event",
            "name": "SetAccountSponsor",
            "inputs": [
                {
                    "name": "from",
                    "type": "address",
                    "indexed": true,
                    "internalType": "address"
                },
                {
                    "name": "sponsor",
                    "type": "address",
                    "indexed": true,
                    "internalType": "address"
                }
            ],
            "anonymous": false
        }
    ],
    "bytecode": {
        "object": "0x608080604052346015576113fe908161001a8239f35b5f80fdfe60806040526004361015610011575f80fd5b5f803560e01c806301e98bfa14610ede578063030ed54814610e0a5780636add1b3f14610c295780637da4cb5914610b715780638e4e6f0614610ae6578063a38eae9f14610a46578063a84a153514610965578063a8ef8caf14610892578063b27d8c0214610755578063c7d0b56c1461061b578063cd9be80f146104ef578063d188931d14610408578063f1d6ed64146103125763fbcbc0f1146100b4575f80fd5b346102f65760203660031901126102f6576100cd610fa7565b90806101006040516100de81611038565b828152826020820152826040820152826060820152826080820152606060a0820152606060c08201528260e082015201526040519163fbcbc0f160e01b835260018060a01b03166004830152808260248173__$e990d9c4ebd8dc1dd043363d95ee352ae8$__5af49182156103055781926101fd575b826040518091602082526001600160401b038151166020830152602081015160408301526040810151606083015260018060a01b0360608201511660808301526001600160401b0360808201511660a08301526101006101de6101c860a084015161012060c08701526101408601906110fa565b60c0840151858203601f190160e08701526110fa565b916001600160401b0360e0820151168285015201516101208301520390f35b9091503d8083833e61020f8183611054565b8101906020818303126102fd578051906001600160401b038211610301570190610120828203126102fd576040519261024784611038565b610250836112a4565b8452602083015160208501526040830151604085015261027260608401611290565b6060850152610283608084016112a4565b608085015260a08301516001600160401b0381116102f957826102a7918501611305565b60a085015260c0830151906001600160401b0382116102f6575082916102d1916101009401611305565b60c08401526102e260e082016112a4565b60e084015201516101008201525f80610154565b80fd5b5080fd5b8280fd5b8380fd5b50604051903d90823e3d90fd5b50346102f65760403660031901126102f65761032c610fa7565b610334610fbd565b61036b602091846040516103488582611054565b8181525f3681376040518094819263593ec60160e11b8352858960048501611226565b038173__$e990d9c4ebd8dc1dd043363d95ee352ae8$__5af49081156103fd575f805160206113a9833981519152926103d7926103dd575b50604051936103b28186611054565b868552505f3681376040516001600160a01b0391821695909116939091829182611268565b0390a380f35b6103f8903d8089833e6103f08183611054565b810190611179565b6103a3565b6040513d87823e3d90fd5b50346102f65760603660031901126102f657610422610fa7565b61042a610fbd565b6044356001600160a01b038116929190839003610301578373__$e990d9c4ebd8dc1dd043363d95ee352ae8$__92833b156102f95760405163d188931d60e01b81526001600160a01b0391821660048201819052939091166024820181905260448201869052938290829060649082905af480156104e4576104cf575b50807f1094af57a7dd84b3b21a2aa03a74001ace2e9bbd3ed4d17a884c4fea3dd8da0491a480f35b816104d991611054565b61030157835f6104a7565b6040513d84823e3d90fd5b50346102f65760403660031901126102f65761057360a061050e610fa7565b610516610fbd565b908460806040516105268161101d565b828152602081018390526040808201849052606082018490529101919091525163cd9be80f60e01b81526001600160a01b0391821660048201529116602482015291829081906044820190565b038173__$e990d9c4ebd8dc1dd043363d95ee352ae8$__5af49081156104e45782916105dd575b60a0826105db60405180926080809180518452602081015160208501526001600160401b036040820151166040850152606081015160608501520151910152565bf35b905060a03d60a011610614575b6105f48183611054565b81019160a0828403126102f6575060a09161060e916112b8565b5f61059a565b503d6105ea565b50346102f657806003193601126102f6578060a060405161063b81611002565b82815282602082015282604082015282606082015282608082015201526040516331f42d5b60e21b815260c08160048173__$e990d9c4ebd8dc1dd043363d95ee352ae8$__5af49081156104e45782916106d7575b60c0826001600160401b0360a060405192805184526020810151602085015260408101516040850152606081015160608501526080810151608085015201511660a0820152f35b905060c0813d60c01161074d575b816106f260c09383611054565b810103126102f95760c0915061074260a06040519261071084611002565b8051845260208101516020850152604081015160408501526060810151606085015260808101516080850152016112a4565b60a08201525f610690565b3d91506106e5565b50346102f65760c03660031901126102f65761076f610fa7565b610777610fbd565b6044356001600160401b0381116103015761079690369060040161108c565b91606435926084359060a435946001600160401b03861680960361088e5760405163593ec60160e11b81526001600160a01b0394851660048201819052959094166024850181905260c06044860152958785806107f660c48201876111ea565b8560648301528760848301528460a4830152038173__$e990d9c4ebd8dc1dd043363d95ee352ae8$__5af4938415610883575f805160206113a9833981519152956108559561086b575b506040519485946080865260808601906111ea565b926020850152604084015260608301520390a380f35b61087e903d808c833e6103f08183611054565b610840565b6040513d8a823e3d90fd5b8680fd5b50346102f65760203660031901126102f657806108ad610fa7565b73__$e990d9c4ebd8dc1dd043363d95ee352ae8$__803b156109615760405163d188931d60e01b81523360048201526001600160a01b03831660248201525f6044820152908390829060649082905af490811561095657839161093e575b50506001600160a01b0316337f1094af57a7dd84b3b21a2aa03a74001ace2e9bbd3ed4d17a884c4fea3dd8da048380a480f35b8161094891611054565b61095357815f61090b565b50fd5b6040513d85823e3d90fd5b5050fd5b5034610a42576040366003190112610a425761097f610fa7565b90610988610fbd565b9173__$e990d9c4ebd8dc1dd043363d95ee352ae8$__92833b15610a425760405163d188931d60e01b81526001600160a01b038381166004830152821660248201525f604482018190529094859060649082905af48015610a3757610a21575b91925082916001600160a01b0390811691167f1094af57a7dd84b3b21a2aa03a74001ace2e9bbd3ed4d17a884c4fea3dd8da048380a480f35b9150915f610a2e91611054565b5f9082906109e8565b6040513d5f823e3d90fd5b5f80fd5b6020366003190112610a4257610a5a610fa7565b60405163a38eae9f60e01b81526001600160a01b0390911660048201819052905f8160248173__$e990d9c4ebd8dc1dd043363d95ee352ae8$__5af48015610a3757610ace575b507f62bc306e27ea992b4fe17bf6ae7d2618241afa1a5cc4dd29590e0613dc77f47e6020604051348152a2005b610ae1903d805f833e6103f08183611054565b610aa1565b5f366003190112610a425760405163a38eae9f60e01b81523360048201525f8160248173__$e990d9c4ebd8dc1dd043363d95ee352ae8$__5af48015610a3757610b59575b6040513481527f62bc306e27ea992b4fe17bf6ae7d2618241afa1a5cc4dd29590e0613dc77f47e60203392a2005b610b6c903d805f833e6103f08183611054565b610b2b565b34610a42576040366003190112610a4257610b8a610fa7565b610b92610fbd565b604051637da4cb5960e01b81526001600160a01b038381166004830152821660248201525f8160448173__$e990d9c4ebd8dc1dd043363d95ee352ae8$__5af48015610a3757610c11575b506001600160a01b0390811691167fbd98d32ccce3028acdec2583bf5ec3b4b7af4631150beeff94c2157d257a0d1a5f80a3005b610c24903d805f833e6103f08183611054565b610bdd565b34610a42576020366003190112610a4257610c42610fa7565b5f60c0604051610c5181610fd3565b82815282602082015282604082015282606082015260606080820152606060a0820152015260405190636add1b3f60e01b825260018060a01b031660048201525f8160248173__$e990d9c4ebd8dc1dd043363d95ee352ae8$__5af4908115610a37575f91610d3b575b50604051809160208252805160208301526020810151604083015260018060a01b0360408201511660608301526001600160401b03606082015116608083015260c0610d2f610d1a608084015160e060a08701526101008601906110fa565b60a0840151858203601f1901848701526110fa565b91015160e08301520390f35b90503d805f833e610d4c8183611054565b810190602081830312610a42578051906001600160401b038211610a4257019060e082820312610a425760405191610d8383610fd3565b8051835260208101516020840152610d9d60408201611290565b6040840152610dae606082016112a4565b606084015260808101516001600160401b038111610a425782610dd2918301611305565b608084015260a08101516001600160401b038111610a425760c092610df8918301611305565b60a0840152015160c082015281610cbb565b34610a42576060366003190112610a4257610e23610fa7565b610e2b610fbd565b6044356001600160401b038111610a4257610e4a90369060040161108c565b60405163593ec60160e11b815290915f8280610e6b86858960048501611226565b038173__$e990d9c4ebd8dc1dd043363d95ee352ae8$__5af4908115610a37575f805160206113a983398151915292610ec192610ec6575b506040516001600160a01b0391821695909116939091829182611268565b0390a3005b610ed9903d805f833e6103f08183611054565b610ea3565b34610a42576020366003190112610a4257610ef7610fa7565b6020610f2d5f604051610f0a8482611054565b818152813681376040518093819263593ec60160e11b8352873360048501611226565b038173__$e990d9c4ebd8dc1dd043363d95ee352ae8$__5af48015610a3757610f8f575b5060405190610f608183611054565b5f8252505f3681375f805160206113a98339815191526040519260018060a01b03169280610ec1339482611268565b610fa2903d805f833e6103f08183611054565b610f51565b600435906001600160a01b0382168203610a4257565b602435906001600160a01b0382168203610a4257565b60e081019081106001600160401b03821117610fee57604052565b634e487b7160e01b5f52604160045260245ffd5b60c081019081106001600160401b03821117610fee57604052565b60a081019081106001600160401b03821117610fee57604052565b61012081019081106001600160401b03821117610fee57604052565b90601f801991011681019081106001600160401b03821117610fee57604052565b6001600160401b038111610fee5760051b60200190565b9080601f83011215610a42578135906110a482611075565b926110b26040519485611054565b82845260208085019360051b820101918211610a4257602001915b8183106110da5750505090565b82356001600160a01b0381168103610a42578152602092830192016110cd565b90602080835192838152019201905f5b8181106111175750505090565b909192602060c060019261116e838851868060a01b0381511684520151848301906080809180518452602081015160208501526001600160401b036040820151166040850152606081015160608501520151910152565b01940192910161110a565b602081830312610a42578051906001600160401b038211610a42570181601f82011215610a42578051906001600160401b038211610fee57604051926111c9601f8401601f191660200185611054565b82845260208383010111610a4257815f9260208093018386015e8301015290565b90602080835192838152019201905f5b8181106112075750505090565b82516001600160a01b03168452602093840193909201916001016111fa565b6001600160a01b0391821681529116602082015260c0604082018190529092915f9160a091611257918601906111ea565b938260608201528260808201520152565b9190606061127f5f926080865260808601906111ea565b938260208201528260408201520152565b51906001600160a01b0382168203610a4257565b51906001600160401b0382168203610a4257565b91908260a0910312610a42576040516112d08161101d565b608080829480518452602081015160208501526112ef604082016112a4565b6040850152606081015160608501520151910152565b81601f82011215610a425780519061131c82611075565b9261132a6040519485611054565b828452602060c0818601940283010191818311610a4257602001925b828410611354575050505090565b60c084830312610a42576040519060408201908282106001600160401b03831117610fee5760c09260209260405261138b87611290565b8152611399858489016112b8565b8382015281520193019261134656fef1e8b649400fb34983240f0c15dec3833f6443dc9fe19f0093285e3595277d83a26469706673582212201cf129d1d3982e320b885155f751629aebb1ff75b727b32aceb11e2331103bf164736f6c634300081a0033",
        "linkReferences": {
            "src/wrappers/LibBlob.sol": {
                "LibBlob": [
                    {
                        "start": 331,
                        "length": 20
                    },
                    {
                        "start": 905,
                        "length": 20
                    },
                    {
                        "start": 1118,
                        "length": 20
                    },
                    {
                        "start": 1425,
                        "length": 20
                    },
                    {
                        "start": 1671,
                        "length": 20
                    },
                    {
                        "start": 2086,
                        "length": 20
                    },
                    {
                        "start": 2249,
                        "length": 20
                    },
                    {
                        "start": 2469,
                        "length": 20
                    },
                    {
                        "start": 2715,
                        "length": 20
                    },
                    {
                        "start": 2853,
                        "length": 20
                    },
                    {
                        "start": 3031,
                        "length": 20
                    },
                    {
                        "start": 3250,
                        "length": 20
                    },
                    {
                        "start": 3721,
                        "length": 20
                    },
                    {
                        "start": 3915,
                        "length": 20
                    }
                ]
            }
        }
    },
    "methodIdentifiers": {
        "approveCredit(address)": "01e98bfa",
        "approveCredit(address,address)": "f1d6ed64",
        "approveCredit(address,address,address[])": "030ed548",
        "approveCredit(address,address,address[],uint256,uint256,uint64)": "b27d8c02",
        "buyCredit()": "8e4e6f06",
        "buyCredit(address)": "a38eae9f",
        "getAccount(address)": "fbcbc0f1",
        "getCreditApproval(address,address)": "cd9be80f",
        "getCreditBalance(address)": "6add1b3f",
        "getCreditStats()": "c7d0b56c",
        "revokeCredit(address)": "a8ef8caf",
        "revokeCredit(address,address)": "a84a1535",
        "revokeCredit(address,address,address)": "d188931d",
        "setAccountSponsor(address,address)": "7da4cb59"
    },
    "storageLayout": {
        "storage": [],
        "types": {}
    },
    "id": 56
}