{
    "abi": [
        {
            "type": "function",
            "name": "addStake",
            "inputs": [
                {
                    "name": "amount",
                    "type": "uint256",
                    "internalType": "uint256"
                }
            ],
            "outputs": [],
            "stateMutability": "payable"
        },
        {
            "type": "function",
            "name": "fund",
            "inputs": [
                {
                    "name": "subnetId",
                    "type": "tuple",
                    "internalType": "struct SubnetID",
                    "components": [
                        {
                            "name": "root",
                            "type": "uint64",
                            "internalType": "uint64"
                        },
                        {
                            "name": "route",
                            "type": "address[]",
                            "internalType": "address[]"
                        }
                    ]
                },
                {
                    "name": "to",
                    "type": "tuple",
                    "internalType": "struct FvmAddress",
                    "components": [
                        {
                            "name": "addrType",
                            "type": "uint8",
                            "internalType": "uint8"
                        },
                        {
                            "name": "payload",
                            "type": "bytes",
                            "internalType": "bytes"
                        }
                    ]
                }
            ],
            "outputs": [],
            "stateMutability": "payable"
        },
        {
            "type": "function",
            "name": "fundWithToken",
            "inputs": [
                {
                    "name": "subnetId",
                    "type": "tuple",
                    "internalType": "struct SubnetID",
                    "components": [
                        {
                            "name": "root",
                            "type": "uint64",
                            "internalType": "uint64"
                        },
                        {
                            "name": "route",
                            "type": "address[]",
                            "internalType": "address[]"
                        }
                    ]
                },
                {
                    "name": "to",
                    "type": "tuple",
                    "internalType": "struct FvmAddress",
                    "components": [
                        {
                            "name": "addrType",
                            "type": "uint8",
                            "internalType": "uint8"
                        },
                        {
                            "name": "payload",
                            "type": "bytes",
                            "internalType": "bytes"
                        }
                    ]
                },
                {
                    "name": "amount",
                    "type": "uint256",
                    "internalType": "uint256"
                }
            ],
            "outputs": [],
            "stateMutability": "nonpayable"
        },
        {
            "type": "function",
            "name": "kill",
            "inputs": [],
            "outputs": [],
            "stateMutability": "nonpayable"
        },
        {
            "type": "function",
            "name": "register",
            "inputs": [
                {
                    "name": "genesisCircSupply",
                    "type": "uint256",
                    "internalType": "uint256"
                },
                {
                    "name": "collateral",
                    "type": "uint256",
                    "internalType": "uint256"
                }
            ],
            "outputs": [],
            "stateMutability": "payable"
        },
        {
            "type": "function",
            "name": "release",
            "inputs": [
                {
                    "name": "to",
                    "type": "tuple",
                    "internalType": "struct FvmAddress",
                    "components": [
                        {
                            "name": "addrType",
                            "type": "uint8",
                            "internalType": "uint8"
                        },
                        {
                            "name": "payload",
                            "type": "bytes",
                            "internalType": "bytes"
                        }
                    ]
                }
            ],
            "outputs": [],
            "stateMutability": "payable"
        },
        {
            "type": "function",
            "name": "releaseStake",
            "inputs": [
                {
                    "name": "amount",
                    "type": "uint256",
                    "internalType": "uint256"
                }
            ],
            "outputs": [],
            "stateMutability": "nonpayable"
        },
        {
            "type": "event",
            "name": "NewBottomUpMsgBatch",
            "inputs": [
                {
                    "name": "epoch",
                    "type": "uint256",
                    "indexed": true,
                    "internalType": "uint256"
                }
            ],
            "anonymous": false
        },
        {
            "type": "event",
            "name": "NewTopDownMessage",
            "inputs": [
                {
                    "name": "subnet",
                    "type": "address",
                    "indexed": true,
                    "internalType": "address"
                },
                {
                    "name": "message",
                    "type": "tuple",
                    "indexed": false,
                    "internalType": "struct IpcEnvelope",
                    "components": [
                        {
                            "name": "kind",
                            "type": "uint8",
                            "internalType": "enum IpcMsgKind"
                        },
                        {
                            "name": "to",
                            "type": "tuple",
                            "internalType": "struct IPCAddress",
                            "components": [
                                {
                                    "name": "subnetId",
                                    "type": "tuple",
                                    "internalType": "struct SubnetID",
                                    "components": [
                                        {
                                            "name": "root",
                                            "type": "uint64",
                                            "internalType": "uint64"
                                        },
                                        {
                                            "name": "route",
                                            "type": "address[]",
                                            "internalType": "address[]"
                                        }
                                    ]
                                },
                                {
                                    "name": "rawAddress",
                                    "type": "tuple",
                                    "internalType": "struct FvmAddress",
                                    "components": [
                                        {
                                            "name": "addrType",
                                            "type": "uint8",
                                            "internalType": "uint8"
                                        },
                                        {
                                            "name": "payload",
                                            "type": "bytes",
                                            "internalType": "bytes"
                                        }
                                    ]
                                }
                            ]
                        },
                        {
                            "name": "from",
                            "type": "tuple",
                            "internalType": "struct IPCAddress",
                            "components": [
                                {
                                    "name": "subnetId",
                                    "type": "tuple",
                                    "internalType": "struct SubnetID",
                                    "components": [
                                        {
                                            "name": "root",
                                            "type": "uint64",
                                            "internalType": "uint64"
                                        },
                                        {
                                            "name": "route",
                                            "type": "address[]",
                                            "internalType": "address[]"
                                        }
                                    ]
                                },
                                {
                                    "name": "rawAddress",
                                    "type": "tuple",
                                    "internalType": "struct FvmAddress",
                                    "components": [
                                        {
                                            "name": "addrType",
                                            "type": "uint8",
                                            "internalType": "uint8"
                                        },
                                        {
                                            "name": "payload",
                                            "type": "bytes",
                                            "internalType": "bytes"
                                        }
                                    ]
                                }
                            ]
                        },
                        {
                            "name": "nonce",
                            "type": "uint64",
                            "internalType": "uint64"
                        },
                        {
                            "name": "value",
                            "type": "uint256",
                            "internalType": "uint256"
                        },
                        {
                            "name": "message",
                            "type": "bytes",
                            "internalType": "bytes"
                        }
                    ]
                }
            ],
            "anonymous": false
        },
        {
            "type": "error",
            "name": "AddressEmptyCode",
            "inputs": [
                {
                    "name": "target",
                    "type": "address",
                    "internalType": "address"
                }
            ]
        },
        {
            "type": "error",
            "name": "AddressInsufficientBalance",
            "inputs": [
                {
                    "name": "account",
                    "type": "address",
                    "internalType": "address"
                }
            ]
        },
        {
            "type": "error",
            "name": "AlreadyRegisteredSubnet",
            "inputs": []
        },
        {
            "type": "error",
            "name": "CallFailed",
            "inputs": []
        },
        {
            "type": "error",
            "name": "CannotReleaseZero",
            "inputs": []
        },
        {
            "type": "error",
            "name": "FailedInnerCall",
            "inputs": []
        },
        {
            "type": "error",
            "name": "InsufficientFunds",
            "inputs": []
        },
        {
            "type": "error",
            "name": "InvalidActorAddress",
            "inputs": []
        },
        {
            "type": "error",
            "name": "InvalidXnetMessage",
            "inputs": [
                {
                    "name": "reason",
                    "type": "uint8",
                    "internalType": "enum InvalidXnetMessageReason"
                }
            ]
        },
        {
            "type": "error",
            "name": "MethodNotAllowed",
            "inputs": [
                {
                    "name": "reason",
                    "type": "string",
                    "internalType": "string"
                }
            ]
        },
        {
            "type": "error",
            "name": "NotEmptySubnetCircSupply",
            "inputs": []
        },
        {
            "type": "error",
            "name": "NotEnoughBalance",
            "inputs": []
        },
        {
            "type": "error",
            "name": "NotEnoughFunds",
            "inputs": []
        },
        {
            "type": "error",
            "name": "NotEnoughFundsToRelease",
            "inputs": []
        },
        {
            "type": "error",
            "name": "NotRegisteredSubnet",
            "inputs": []
        },
        {
            "type": "error",
            "name": "ReentrancyError",
            "inputs": []
        },
        {
            "type": "error",
            "name": "SafeERC20FailedOperation",
            "inputs": [
                {
                    "name": "token",
                    "type": "address",
                    "internalType": "address"
                }
            ]
        }
    ],
    "bytecode": {
        "object": "0x608080604052346100165761291a908161001b8239f35b5f80fdfe608060409080825260049081361015610016575f80fd5b5f3560e01c9081630517e1aa14610a3b5750806318f44b70146107fd57806341c0e1b51461066957806345f544851461056d5780636b2c1eef14610447578063d66d6c10146101265763eb4f16b51461006d575f80fd5b6020366003190112610122578035908115610114578251632d9e5f4f60e21b815283818381335afa90811561010a576100af9184915f916100dd575b5061164f565b506100b933611b0c565b9390156100d057836100cc848254611493565b9055005b51630e991abd60e41b8152fd5b6100fd9150863d8811610103575b6100f58183610d26565b810190610e94565b5f6100a9565b503d6100eb565b84513d5f823e3d90fd5b8251631036b5ad60e31b8152fd5b5f80fd5b509080600319360112610122578135906024359160135490600191600181018091116104345760ff6006541611156103ce578061039c575b8361034d575b6101a294610170611277565b915f73__$3fbe32418a9ca7804328967972fb037388$__9386518099819263aa5106cb60e01b835233908784016114ea565b0381865af4968715610343575f9761031f575b506101bf87611542565b9061030f57828101966001600160401b0397888a51166001600160401b03198254161790556005820195602096878b0151908151918b83116102fc57899061020784846113c2565b01905f52885f205f5b8381106102e25750505091835550504360018201556002015583516390ba52cf60e01b815290810183905293948291859182908190610253906024830190610e3d565b03915af49182156102d957505f916102a9575b836102708361282e565b506003549061028e6001600160401b0360801b918360801c16611512565b60801b1667ffffffffffffffff60801b199190911617600355005b905081813d83116102d2575b6102bf8183610d26565b810103126101225761027090515f610266565b503d6102b5565b513d5f823e3d90fd5b82516001600160a01b031682820155918a01918401610210565b604188634e487b7160e01b5f525260245ffd5b8551631b538cdf60e11b81528390fd5b61033c9197503d805f833e6103348183610d26565b8101906114c5565b955f6101b5565b85513d5f823e3d90fd5b8251632d9e5f4f60e21b81529483868281335afa95861561010a57856101a29761037d925f91610385575061164f565b509450610164565b6100fd9150873d8911610103576100f58183610d26565b82516380875df760e01b815283818781335afa90811561010a576103c89183915f916100dd575061164f565b5061015e565b602085610430858051906103e182610d0b565b602382527f5375626e657420646f6573206e6f7420616c6c6f77206368696c64207375626e858301526265747360e81b818301525193849363015538b160e01b855284015260248301906114a0565b0390fd5b601186634e487b7160e01b5f525260245ffd5b50906003196020368201126101225782356001600160401b0381116101225782828236030112610122573415610556578251630c30422f60e11b8152608085820152915f91839182916104b891906104a160848501611415565b91336024860152848303016044850152880161114a565b346064830152038173__$c0560e63386df2470ca6214f90e7038fc9$__5af490811561054c57906104f0915f9161052a575b5061237f565b34471061051d575f8080803460635af16105086126f5565b501561051057005b51633204506f60e01b8152fd5b5163356680b760e01b8152fd5b61054691503d805f833e61053e8183610d26565b810190611094565b5f6104ea565b82513d5f823e3d90fd5b825163bc0f01cf60e01b8152600381860152602490fd5b50346101225760203660031901126101225780357f691bb03ffc16c56fc96b82fd16cd1b3715f0bc3cdc6407005f49bb620586009591600183541461065b5760018355811561064d576105bf33611b0c565b901561063e57805483811061062e57836105d8916113f4565b90558380518092632d9e5f4f60e21b825281335afa90811561010a579061060c92915f958692610611575b50503390611ba3565b505055005b6106279250803d10610103576100f58183610d26565b5f80610603565b85516379b33e7960e01b81528390fd5b508351630e991abd60e41b8152fd5b835163c79cad7b60e01b8152fd5b83516329f745a760e01b8152fd5b5034610122575f3660031901126101225761068333611b0c565b9190156107ef5760028201546107e1576106a0818354930161130f565b6106c68451916390ba52cf60e01b83528280602093849384888401526024830190610e3d565b038173__$3fbe32418a9ca7804328967972fb037388$__5af4918215610343575f926107b2575b506003546001600160401b035f19818360801c160190811161079f5791601f9161076594936001600160401b0360801b9060801b16906001600160401b0360801b191617600355825f52526107606005865f205f81555f60018201555f60028201555f60038201555f868201550161139f565b612759565b508280518092632d9e5f4f60e21b825281335afa90811561079557610793935f926106115750503390611ba3565b005b83513d5f823e3d90fd5b601185634e487b7160e01b5f525260245ffd5b9080925081813d83116107da575b6107ca8183610d26565b810103126101225751905f6106ed565b503d6107c0565b8251637c67c70160e11b8152fd5b8251630e991abd60e41b8152fd5b50600319908282360112610122578035906001600160401b03928383116101225784818484019436030112610122576024359384116101225784908436030112610122573415610a24576108596108543684610d86565b611542565b5015610a165761089061086c3684610d86565b85805191632cff562160e11b83528280602095869384898401526024830190610e3d565b038173__$3fbe32418a9ca7804328967972fb037388$__5af48015610a0c5784925f916109d3575b5081516380875df760e01b815292839182906001600160a01b03165afa9081156109c9575f916109ac575b50516002811015610999576109645750905f916109188551948593849363266a83ad60e21b85523492810191339186016111b4565b038173__$c0560e63386df2470ca6214f90e7038fc9$__5af490811561054c5761079392505f9161094a575b50611905565b61095e91503d805f833e61053e8183610d26565b5f610944565b845162461bcd60e51b815291820152601060248201526f155b995e1c1958dd195908185cdcd95d60821b604482015260649150fd5b602183634e487b7160e01b5f525260245ffd5b6109c39150863d8811610103576100f58183610d26565b5f6108e3565b86513d5f823e3d90fd5b925050508181813d8311610a05575b6109ec8183610d26565b8101031261012257856109ff8492610e29565b5f6108b8565b503d6109e2565b50513d5f823e3d90fd5b8351630e991abd60e41b8152fd5b602490600385519163bc0f01cf60e01b8352820152fd5b919050346101225760031990606036830112610122578035916001600160401b03908184116101225785818585019536030112610122576024359182116101225785908236030112610122576044357f691bb03ffc16c56fc96b82fd16cd1b3715f0bc3cdc6407005f49bb6205860095946001865414610cb35750600185558015610c9c57610acd6108543686610d86565b5015610c8c57610add3685610d86565b610b0487805192632cff562160e11b845283806020948593848b8401526024830190610e3d565b038173__$3fbe32418a9ca7804328967972fb037388$__5af48015610a0c5786935f91610c53575b5081516380875df760e01b815293849182906001600160a01b03165afa918215610c49575f92610c2a575b5081516002811015610c1757600103610be25750610b7b5f949392610b989261164f565b875163266a83ad60e21b81529586948594810191339186016111b4565b038173__$c0560e63386df2470ca6214f90e7038fc9$__5af49283156102d957505f92610bcb918491610bce5750611905565b55005b61095e91503d8086833e61053e8183610d26565b8460649189519162461bcd60e51b8352820152601060248201526f155b995e1c1958dd195908185cdcd95d60821b6044820152fd5b602186634e487b7160e01b5f525260245ffd5b610c42919250883d8a11610103576100f58183610d26565b905f610b57565b88513d5f823e3d90fd5b935050508082813d8311610c85575b610c6c8183610d26565b810103126101225787610c7f8693610e29565b5f610b2c565b503d610c62565b8551630e991abd60e41b81528390fd5b855163bc0f01cf60e01b8152600381850152602490fd5b6329f745a760e01b81528390fd5b604081019081106001600160401b03821117610cdc57604052565b634e487b7160e01b5f52604160045260245ffd5b60c081019081106001600160401b03821117610cdc57604052565b606081019081106001600160401b03821117610cdc57604052565b90601f801991011681019081106001600160401b03821117610cdc57604052565b35906001600160401b038216820361012257565b6001600160401b038111610cdc5760051b60200190565b35906001600160a01b038216820361012257565b91906040838203126101225760405192610d9f84610cc1565b83610da982610d47565b815260209182810135906001600160401b03821161012257019280601f85011215610122578335610dd981610d5b565b94610de76040519687610d26565b818652848087019260051b8201019283116101225784809101915b838310610e1157505050500152565b8190610e1c84610d72565b8152019101908490610e02565b51906001600160a01b038216820361012257565b604082016001600160401b038251168352602060608180940151946040838201528551809452019301915f5b828110610e77575050505090565b83516001600160a01b031685529381019392810192600101610e69565b908160409103126101225760405190610eac82610cc1565b80516002811015610122578252610ec590602001610e29565b602082015290565b51906001600160401b038216820361012257565b91906040838203126101225760405192610efa84610cc1565b83610f0482610ecd565b815260209182810151906001600160401b03821161012257019280601f85011215610122578351610f3481610d5b565b94610f426040519687610d26565b818652848087019260051b8201019283116101225784809101915b838310610f6c57505050500152565b8190610f7784610e29565b8152019101908490610f5d565b6001600160401b038111610cdc57601f01601f191660200190565b5f5b838110610fb05750505f910152565b8181015183820152602001610fa1565b81601f82011215610122578051610fd681610f84565b92610fe46040519485610d26565b81845260208284010111610122576110029160208085019101610f9f565b90565b9190604083820312610122576040519261101e84610cc1565b838151916001600160401b0392838111610122578461103e918301610ee1565b82526020810151908382116101225701604081850312610122576040519361106585610cc1565b815160ff8116810361012257855260208201519384116101225760209361108c9201610fc0565b828401520152565b906020828203126101225781516001600160401b039283821161012257019060c08282031261012257604051926110ca84610cf0565b82516003811015610122578452602083015181811161012257826110ef918501611005565b60208501526040830151818111610122578261110c918501611005565b604085015261111d60608401610ecd565b60608501526080830151608085015260a0830151908111610122576111429201610fc0565b60a082015290565b803560ff81168091036101225782526020810135601e1982360301811215610122570190602082359201916001600160401b038111610122578036038313610122578060609360406020850152816040850152848401375f828201840152601f01601f1916010190565b94939290916080865260c086016001600160401b0393846111d482610d47565b1660808901526020906020810135601e1982360301811215610122570191602083359301958311610122578260051b3603861361012257604060a08a015282905260e088019491905f5b82811061125057505050506001600160a01b03166020860152848203604086015260609161124b9161114a565b930152565b909192958280600192838060a01b036112688b610d72565b1681520197019392910161121e565b6040519061128482610cc1565b816001600160401b036012541681526040518091826013549283815260208091019360135f527f66de8ffda797e3de9c05e8fc57b3bf0ec28a930d40b0d285d93c06501cf6a090915f905b8282106112ec57505050506112e8906020930384610d26565b0152565b83546001600160a01b0316875295860195879450600193840193909101906112cf565b906040519161131d83610cc1565b826001600160401b0382541681526001809201916040519283849282548083526020809301935f5260205f20925f905b828210611368575050505050602092916112e8910384610d26565b84546001600160a01b0316865288965094850194938301939083019061134d565b818110611394575050565b5f8155600101611389565b80545f8255806113ad575050565b6113c0915f5260205f2090810190611389565b565b90600160401b8111610cdc578154908083558181106113e057505050565b6113c0925f5260205f209182019101611389565b9190820391821161140157565b634e487b7160e01b5f52601160045260245ffd5b60408101906001600160401b03601254168152606060209160406020820152601354809452019160135f527f66de8ffda797e3de9c05e8fc57b3bf0ec28a930d40b0d285d93c06501cf6a090915f905b828210611473575050505090565b83546001600160a01b031685529384019360019384019390910190611465565b9190820180921161140157565b906020916114b981518092818552858086019101610f9f565b601f01601f1916010190565b906020828203126101225781516001600160401b038111610122576110029201610ee1565b90611502602091949394604084526040840190610e3d565b6001600160a01b03909416910152565b9060016001600160401b038093160191821161140157565b90816020910312610122575180151581036101225790565b61158073__$3fbe32418a9ca7804328967972fb037388$__91604051906390ba52cf60e01b8252818060209485938460048401526024830190610e3d565b0381865af4908115611617575f91611622575b505f52601f81526115d28160405f20936115af6004860161130f565b906040518080958194630c133d1360e31b83528660048401526024830190610e3d565b03915af4918215611617575f926115ea575b50501591565b6116099250803d10611610575b6116018183610d26565b81019061152a565b5f806115e4565b503d6115f7565b6040513d5f823e3d90fd5b90508181813d8311611648575b6116398183610d26565b8101031261012257515f611593565b503d61162f565b9190825160028110156118655760010361181e576020928360018060a01b03910151166040938451926370a0823160e01b80855230600486015260249183868481885afa958615610c49575f966117ef575b508751848101916323b872dd60e01b8352338583015230604483015260648201526064815260a081018181106001600160401b038211176117dc578952516116fa915f91829182895af16116f36126f5565b9086612881565b8051908482151592836117c3575b5050506117ad5782908288518096819382523060048301525afa9283156109c9575f9361177e575b50838311156117465750506110029293506113f4565b90601360649287519262461bcd60e51b84526004840152820152724e6f2062616c616e636520696e63726561736560681b6044820152fd5b9092508181813d83116117a6575b6117968183610d26565b810103126101225751915f611730565b503d61178c565b508551635274afe760e01b815260048101849052fd5b6117d3935082018101910161152a565b155f8481611708565b84634e487b7160e01b5f5260416004525ffd5b9095508381813d8311611817575b6118078183610d26565b810103126101225751945f6116a1565b503d6117fd565b80919250341061182b5790565b60405162461bcd60e51b8152602060048201526012602482015271496e73756666696369656e742066756e647360701b6044820152606490fd5b634e487b7160e01b5f52602160045260245ffd5b91908251906040815260808101936001600160401b038351166040830152602080930151946040606084015285518091528360a084019601905f5b8181106118e8575050509360408381938161100297980151908281860391015260ff815116845201519382015201906114a0565b82516001600160a01b0316885296850196918501916001016118b4565b611961602091828101928351519373__$3fbe32418a9ca7804328967972fb037388$__5f6119506040978851978892839263089032d560e01b84528b60048501526044840190610e3d565b828103600319016024840152611415565b0381845af49485156109c9575f95611af0575b5061197e85611542565b9015611adf57808460036119f79301978854946001600160401b03998a8716968b6119af60608d0199808b52611512565b16906001600160401b03191617905560808901936119d4600286519201918254611493565b90558a5180809681946304e384ff60e21b83528660048401526024830190610e3d565b03915af4918215610c49575f92611aa8575b508751958587528051916003831015611865577ffdd39ce2560484814971f663392e78ae37dc62ba184b3370d830371dd271a8b798611a7a611a628c60c0611aa39a60a0988e9d8e015251918c015260e08b0190611879565b9b8401519b601f199c8d8b83030160608c0152611879565b95511660808801525182870152015184830390970160c08501526001600160a01b0316956114a0565b0390a2565b9091508481813d8311611ad8575b611ac08183610d26565b8101031261012257611ad190610e29565b905f611a09565b503d611ab6565b8651630e991abd60e41b8152600490fd5b611b059195503d805f833e6103348183610d26565b935f611974565b6001600160a01b03811615611b91575f611b4391611b28611277565b60405163aa5106cb60e01b81529384928392600484016114ea565b038173__$3fbe32418a9ca7804328967972fb037388$__5af4801561161757611b73915f91611b77575b50611542565b9091565b611b8b91503d805f833e6103348183610d26565b5f611b6d565b6040516370e4510960e01b8152600490fd5b5f906060908051600281101561186557611c1457505050814710611c02575f918291829182916001600160a01b03165af190611bdd6126f5565b5060405191602083018381106001600160401b03821117610cdc576040525f83529190565b60405163569d45cf60e11b8152600490fd5b8095939194929551600281101561186557600114611c3157505050565b5f945084939550602091849160018060a01b0393849101511693604051936020850192168252604084015260408352611c6983610d0b565b611ca160246040518093611c91602083019763a9059cbb60e01b895251809285850190610f9f565b8101036004810184520182610d26565b51925af1906110026126f5565b60138114611d2d57601354906001600160401b038211610cdc57611cd282826113c2565b5f908152602081207f66de8ffda797e3de9c05e8fc57b3bf0ec28a930d40b0d285d93c06501cf6a09080545b848410611d0c575050505050565b600191820180546001600160a01b0390921684860155939091019290611cfe565b50565b8054821015611d49575f52600c60205f20910201905f90565b634e487b7160e01b5f52603260045260245ffd5b90600182811c92168015611d8b575b6020831014611d7757565b634e487b7160e01b5f52602260045260245ffd5b91607f1691611d6c565b8054600160401b811015610cdc57611db4906001928382018155611d30565b9190916121d15782519060038210156118655760ff199160ff8385541691161783558083019060209384860151928351946001600160401b039586815116926001600160401b03199384825416179055876002850191015190815191888311610cdc578990611e2384846113c2565b01905f52885f20865f5b8481106121b657505050505086600384019501519460ff865116828254161790558660048401950151948551878111610cdc57611e6a8254611d5d565b96601f978a898211612189575b5050899088831160011461212957611ea692915f9183611fd6575b50508160011b915f199060031b1c19161790565b90555b600583016040890151908151908882511685825416179055886006860191015190815191898311610cdc578a90611ee084846113c2565b01905f52895f20875f5b84811061210e57505050505087600785019101519160ff835116908254161790558660088401910151805190878211610cdc57611f278354611d5d565b8781116120e2575b5088908783116001146120775782600b959360a0979593611f64935f92611fd65750508160011b915f199060031b1c19161790565b90555b60098201908760608b015116908254161790556080880151600a82015501950151938451938411610cdc57611f9c8654611d5d565b838111612041575b5080928411600114611fe15750508190611fd2935f92611fd65750508160011b915f199060031b1c19161790565b9055565b015190505f80611e92565b91909383601f198116875f52845f20945f905b88838310612027575050501061200f575b505050811b019055565b01515f1960f88460031b161c191690555f8080612005565b858701518855909601959485019487935090810190611ff4565b61206890875f52825f208580880160051c82019285891061206e575b0160051c0190611389565b5f611fa4565b9250819261205d565b869291601f19831691855f528b5f20925f5b8d8282106120cc57505091600b979593918560a09a989694106120b4575b505050811b019055611f67565b01515f1960f88460031b161c191690555f80806120a7565b8385015186558b97909501949384019301612089565b61210890845f528a5f208980860160051c8201928d871061206e570160051c0190611389565b5f611f2f565b83516001600160a01b031683820155928c0192899101611eea565b879291601f19831691855f528c5f20928d5f905b828210612172575050841161215a575b505050811b019055611ea9565b01515f1960f88460031b161c191690555f808061214d565b8385015186558c979095019493840193018e61213d565b6121af91855f528a825f209181870160051c830193871061206e570160051c0190611389565b5f8a611e77565b83516001600160a01b031683820155928b0192889101611e2d565b634e487b7160e01b5f525f60045260245ffd5b604051906121f182610cc1565b60606020835f81520152565b6040519061220a82610cc1565b816122136121e4565b8152602061221f6121e4565b910152565b8051821015611d495760209160051b010190565b9060405191825f825461224a81611d5d565b908184526020946001916001811690815f146122b65750600114612278575b5050506113c092500383610d26565b5f90815285812095935091905b81831061229e5750506113c093508201015f8080612269565b85548884018501529485019487945091830191612285565b925050506113c094925060ff191682840152151560051b8201015f8080612269565b90604051916122e683610cc1565b6020836122f28361130f565b815261108c60036040519461230686610cc1565b60ff600282015416865201612238565b6123208154611d5d565b908161232a575050565b81601f5f931160011461233b575055565b90808391825261235a601f60208420940160051c840160018501611389565b5555565b60036113c0915f81556123736001820161139f565b5f600282015501612316565b60019081546001600160401b039080156126e1578082431604848101809111611401578181029181830414901517156114015760039182549080821691816123ce6060948060608a0152611512565b166001600160401b0319809216178555835f52602060238152604094855f2090600282018054156126a25750508601948554875460c01c145f146126915785549761241889610d5b565b9661242583519889610d26565b898852601f196124348b610d5b565b01845f5b82811061264c5750505082519960608b018b811088821117610cdc57845261245e611277565b8b52848b0197438952848c01998a528c5f5b8381106125bd57505050437f4ecfe3c1ed32ef0a63d3801d51eb20214db90b14dc5fd1ca58a9de54f16f46a65f80a25f825580612557575b50906124b391611d95565b84515f52602382525f209651918383511690885416178755808888019201518051938411610cdc5781906124ea85859a999a6113c2565b01915f52805f2090885f5b85811061253c57505050505050516002830155805151925f9201915b83811061251f575050505050565b8061253661252f87938551612224565b5185611d95565b01612511565b84516001600160a01b031684820155938201938a91016124f5565b600c9080600c0290600c82040361140157825f52855f20908101905b8d828210612583575050506124a8565b9061259384925f8355820161235e565b61259f6005820161235e565b5f60098201555f600a8201556125b7600b8201612316565b01612573565b6125c78186611d30565b508d8d5189516125d681610cf0565b60ff845416928310156118655761262e600b8f95612643968f8f908a9887526126008c85016122d8565b90870152612610600584016122d8565b908601526009820154168a850152600a810154608085015201612238565b60a082015261263d8383612224565b52612224565b50018d90612470565b855161265781610cf0565b5f81526126626121fd565b8382015261266e6121fd565b878201525f8b8201525f60808201528a60a082015282828d010152018590612438565b505050505090506113c09250611d95565b94939180975060129196506113c09a9350036126c3575b5050505501611d95565b6126d99260125416908654161785558401611cae565b5f80806126b9565b634e487b7160e01b5f52601260045260245ffd5b3d1561271f573d9061270682610f84565b916127146040519384610d26565b82523d5f602084013e565b606090565b602454811015611d495760245f527f7cd332d19b93bcabe3cce7ca0c18a052f57e5fd03b4758a09f30f5ddc4b22ec401905f90565b5f818152602560205260409020548015612828575f19908082018181116114015760245490838201918211611401578181036127de575b50505060245480156127ca578101906127a882612724565b909182549160031b1b191690556024555f5260256020525f6040812055600190565b634e487b7160e01b5f52603160045260245ffd5b6128126127ed6127fc93612724565b90549060031b1c928392612724565b819391549060031b91821b915f19901b19161790565b90555f52602560205260405f20555f8080612790565b50505f90565b805f52602560205260405f2054155f1461287c57602454600160401b811015610cdc576128656127fc826001859401602455612724565b9055602454905f52602560205260405f2055600190565b505f90565b906128a8575080511561289657805190602001fd5b604051630a12f52160e11b8152600490fd5b815115806128db575b6128b9575090565b604051639996b31560e01b81526001600160a01b039091166004820152602490fd5b50803b156128b156fea26469706673582212208f6fba656a005c138215863fd0a468a70efa8b35455fcda59d7de63ff3b8966864736f6c63430008170033",
        "linkReferences": {
            "contracts/lib/CrossMsgHelper.sol": {
                "CrossMsgHelper": [
                    {
                        "start": 1245,
                        "length": 20
                    },
                    {
                        "start": 2359,
                        "length": 20
                    },
                    {
                        "start": 2999,
                        "length": 20
                    }
                ]
            },
            "contracts/lib/SubnetIDHelper.sol": {
                "SubnetIDHelper": [
                    {
                        "start": 399,
                        "length": 20
                    },
                    {
                        "start": 1765,
                        "length": 20
                    },
                    {
                        "start": 2223,
                        "length": 20
                    },
                    {
                        "start": 2851,
                        "length": 20
                    },
                    {
                        "start": 5474,
                        "length": 20
                    },
                    {
                        "start": 6448,
                        "length": 20
                    },
                    {
                        "start": 7010,
                        "length": 20
                    }
                ]
            }
        }
    },
    "methodIdentifiers": {
        "addStake(uint256)": "eb4f16b5",
        "fund((uint64,address[]),(uint8,bytes))": "18f44b70",
        "fundWithToken((uint64,address[]),(uint8,bytes),uint256)": "0517e1aa",
        "kill()": "41c0e1b5",
        "register(uint256,uint256)": "d66d6c10",
        "release((uint8,bytes))": "6b2c1eef",
        "releaseStake(uint256)": "45f54485"
    },
    "id": 13
}