{
    "abi": [
        {
            "type": "function",
            "name": "addStake",
            "inputs": [
                {
                    "name": "amount",
                    "type": "uint256",
                    "internalType": "uint256"
                }
            ],
            "outputs": [],
            "stateMutability": "payable"
        },
        {
            "type": "function",
            "name": "fund",
            "inputs": [
                {
                    "name": "subnetId",
                    "type": "tuple",
                    "internalType": "struct SubnetID",
                    "components": [
                        {
                            "name": "root",
                            "type": "uint64",
                            "internalType": "uint64"
                        },
                        {
                            "name": "route",
                            "type": "address[]",
                            "internalType": "address[]"
                        }
                    ]
                },
                {
                    "name": "to",
                    "type": "tuple",
                    "internalType": "struct FvmAddress",
                    "components": [
                        {
                            "name": "addrType",
                            "type": "uint8",
                            "internalType": "uint8"
                        },
                        {
                            "name": "payload",
                            "type": "bytes",
                            "internalType": "bytes"
                        }
                    ]
                }
            ],
            "outputs": [],
            "stateMutability": "payable"
        },
        {
            "type": "function",
            "name": "fundWithToken",
            "inputs": [
                {
                    "name": "subnetId",
                    "type": "tuple",
                    "internalType": "struct SubnetID",
                    "components": [
                        {
                            "name": "root",
                            "type": "uint64",
                            "internalType": "uint64"
                        },
                        {
                            "name": "route",
                            "type": "address[]",
                            "internalType": "address[]"
                        }
                    ]
                },
                {
                    "name": "to",
                    "type": "tuple",
                    "internalType": "struct FvmAddress",
                    "components": [
                        {
                            "name": "addrType",
                            "type": "uint8",
                            "internalType": "uint8"
                        },
                        {
                            "name": "payload",
                            "type": "bytes",
                            "internalType": "bytes"
                        }
                    ]
                },
                {
                    "name": "amount",
                    "type": "uint256",
                    "internalType": "uint256"
                }
            ],
            "outputs": [],
            "stateMutability": "nonpayable"
        },
        {
            "type": "function",
            "name": "kill",
            "inputs": [],
            "outputs": [],
            "stateMutability": "nonpayable"
        },
        {
            "type": "function",
            "name": "register",
            "inputs": [
                {
                    "name": "genesisCircSupply",
                    "type": "uint256",
                    "internalType": "uint256"
                },
                {
                    "name": "collateral",
                    "type": "uint256",
                    "internalType": "uint256"
                }
            ],
            "outputs": [],
            "stateMutability": "payable"
        },
        {
            "type": "function",
            "name": "release",
            "inputs": [
                {
                    "name": "to",
                    "type": "tuple",
                    "internalType": "struct FvmAddress",
                    "components": [
                        {
                            "name": "addrType",
                            "type": "uint8",
                            "internalType": "uint8"
                        },
                        {
                            "name": "payload",
                            "type": "bytes",
                            "internalType": "bytes"
                        }
                    ]
                }
            ],
            "outputs": [],
            "stateMutability": "payable"
        },
        {
            "type": "function",
            "name": "releaseStake",
            "inputs": [
                {
                    "name": "amount",
                    "type": "uint256",
                    "internalType": "uint256"
                }
            ],
            "outputs": [],
            "stateMutability": "nonpayable"
        },
        {
            "type": "event",
            "name": "NewBottomUpMsgBatch",
            "inputs": [
                {
                    "name": "epoch",
                    "type": "uint256",
                    "indexed": true,
                    "internalType": "uint256"
                }
            ],
            "anonymous": false
        },
        {
            "type": "event",
            "name": "NewTopDownMessage",
            "inputs": [
                {
                    "name": "subnet",
                    "type": "address",
                    "indexed": true,
                    "internalType": "address"
                },
                {
                    "name": "message",
                    "type": "tuple",
                    "indexed": false,
                    "internalType": "struct IpcEnvelope",
                    "components": [
                        {
                            "name": "kind",
                            "type": "uint8",
                            "internalType": "enum IpcMsgKind"
                        },
                        {
                            "name": "localNonce",
                            "type": "uint64",
                            "internalType": "uint64"
                        },
                        {
                            "name": "originalNonce",
                            "type": "uint64",
                            "internalType": "uint64"
                        },
                        {
                            "name": "value",
                            "type": "uint256",
                            "internalType": "uint256"
                        },
                        {
                            "name": "to",
                            "type": "tuple",
                            "internalType": "struct IPCAddress",
                            "components": [
                                {
                                    "name": "subnetId",
                                    "type": "tuple",
                                    "internalType": "struct SubnetID",
                                    "components": [
                                        {
                                            "name": "root",
                                            "type": "uint64",
                                            "internalType": "uint64"
                                        },
                                        {
                                            "name": "route",
                                            "type": "address[]",
                                            "internalType": "address[]"
                                        }
                                    ]
                                },
                                {
                                    "name": "rawAddress",
                                    "type": "tuple",
                                    "internalType": "struct FvmAddress",
                                    "components": [
                                        {
                                            "name": "addrType",
                                            "type": "uint8",
                                            "internalType": "uint8"
                                        },
                                        {
                                            "name": "payload",
                                            "type": "bytes",
                                            "internalType": "bytes"
                                        }
                                    ]
                                }
                            ]
                        },
                        {
                            "name": "from",
                            "type": "tuple",
                            "internalType": "struct IPCAddress",
                            "components": [
                                {
                                    "name": "subnetId",
                                    "type": "tuple",
                                    "internalType": "struct SubnetID",
                                    "components": [
                                        {
                                            "name": "root",
                                            "type": "uint64",
                                            "internalType": "uint64"
                                        },
                                        {
                                            "name": "route",
                                            "type": "address[]",
                                            "internalType": "address[]"
                                        }
                                    ]
                                },
                                {
                                    "name": "rawAddress",
                                    "type": "tuple",
                                    "internalType": "struct FvmAddress",
                                    "components": [
                                        {
                                            "name": "addrType",
                                            "type": "uint8",
                                            "internalType": "uint8"
                                        },
                                        {
                                            "name": "payload",
                                            "type": "bytes",
                                            "internalType": "bytes"
                                        }
                                    ]
                                }
                            ]
                        },
                        {
                            "name": "message",
                            "type": "bytes",
                            "internalType": "bytes"
                        }
                    ]
                },
                {
                    "name": "id",
                    "type": "bytes32",
                    "indexed": true,
                    "internalType": "bytes32"
                }
            ],
            "anonymous": false
        },
        {
            "type": "event",
            "name": "QueuedBottomUpMessage",
            "inputs": [
                {
                    "name": "id",
                    "type": "bytes32",
                    "indexed": true,
                    "internalType": "bytes32"
                }
            ],
            "anonymous": false
        },
        {
            "type": "event",
            "name": "SubnetDestroyed",
            "inputs": [
                {
                    "name": "id",
                    "type": "tuple",
                    "indexed": false,
                    "internalType": "struct SubnetID",
                    "components": [
                        {
                            "name": "root",
                            "type": "uint64",
                            "internalType": "uint64"
                        },
                        {
                            "name": "route",
                            "type": "address[]",
                            "internalType": "address[]"
                        }
                    ]
                }
            ],
            "anonymous": false
        },
        {
            "type": "error",
            "name": "AddressEmptyCode",
            "inputs": [
                {
                    "name": "target",
                    "type": "address",
                    "internalType": "address"
                }
            ]
        },
        {
            "type": "error",
            "name": "AddressInsufficientBalance",
            "inputs": [
                {
                    "name": "account",
                    "type": "address",
                    "internalType": "address"
                }
            ]
        },
        {
            "type": "error",
            "name": "AlreadyRegisteredSubnet",
            "inputs": []
        },
        {
            "type": "error",
            "name": "CallFailed",
            "inputs": []
        },
        {
            "type": "error",
            "name": "CannotReleaseZero",
            "inputs": []
        },
        {
            "type": "error",
            "name": "FailedInnerCall",
            "inputs": []
        },
        {
            "type": "error",
            "name": "InsufficientFunds",
            "inputs": []
        },
        {
            "type": "error",
            "name": "InvalidActorAddress",
            "inputs": []
        },
        {
            "type": "error",
            "name": "InvalidXnetMessage",
            "inputs": [
                {
                    "name": "reason",
                    "type": "uint8",
                    "internalType": "enum InvalidXnetMessageReason"
                }
            ]
        },
        {
            "type": "error",
            "name": "MethodNotAllowed",
            "inputs": [
                {
                    "name": "reason",
                    "type": "string",
                    "internalType": "string"
                }
            ]
        },
        {
            "type": "error",
            "name": "NotEmptySubnetCircSupply",
            "inputs": []
        },
        {
            "type": "error",
            "name": "NotEnoughBalance",
            "inputs": []
        },
        {
            "type": "error",
            "name": "NotEnoughFunds",
            "inputs": []
        },
        {
            "type": "error",
            "name": "NotEnoughFundsToRelease",
            "inputs": []
        },
        {
            "type": "error",
            "name": "NotRegisteredSubnet",
            "inputs": []
        },
        {
            "type": "error",
            "name": "ReentrancyError",
            "inputs": []
        },
        {
            "type": "error",
            "name": "SafeERC20FailedOperation",
            "inputs": [
                {
                    "name": "token",
                    "type": "address",
                    "internalType": "address"
                }
            ]
        }
    ],
    "bytecode": {
        "object": "0x6080806040523461001657612cc0908161001b8239f35b5f80fdfe608060409080825260049081361015610016575f80fd5b5f3560e01c9081630517e1aa14610ae95750806318f44b70146108b357806341c0e1b5146106cb57806345f54485146105cf5780636b2c1eef1461044e578063d66d6c10146101265763eb4f16b51461006d575f80fd5b6020366003190112610122578035908115610114578251632d9e5f4f60e21b815283818381335afa90811561010a576100af9184915f916100dd575b5061168e565b506100b933611c07565b9390156100d057836100cc8482546114d2565b9055005b51630e991abd60e41b8152fd5b6100fd9150863d8811610103575b6100f58183610de1565b810190610f4f565b5f6100a9565b503d6100eb565b84513d5f823e3d90fd5b8251631036b5ad60e31b8152fd5b5f80fd5b508160031936011261012257803590602435916013546001906001810180911161043b5760ff6006541611156103d55761015e611387565b906101935f73__$3fbe32418a9ca7804328967972fb037388$__9388518093819263aa5106cb60e01b835233908a8401611529565b0381865af4908115610369575f916103b3575b506101b081611581565b93906103a357858401936001600160401b0394858451166001600160401b03198254161790556005810193602094858501519081519188831161039057908783926101fe8c9796958461147f565b01905f52875f205f5b838110610373575050508a835550504360018201556002015587516390ba52cf60e01b81528681018490529291829184918290819061024a906024830190610ef8565b03915af4908115610369575f91610339575b506102679150612bb4565b50600354906102856001600160401b0360801b918360801c16611551565b60801b16906001600160401b0360801b191617600355806102fe575b50816102a957005b8280518092632d9e5f4f60e21b825281335afa9081156102f4576102d5935f926102d7575b505061168e565b005b6102ed9250803d10610103576100f58183610de1565b5f806102ce565b83513d5f823e3d90fd5b83516380875df760e01b81529084828481335afa801561032f57610328925f916100dd575061168e565b505f6102a1565b85513d5f823e3d90fd5b905081813d8311610362575b61034f8183610de1565b810103126101225761026790515f61025c565b503d610345565b87513d5f823e3d90fd5b82516001600160a01b0316818301558b9650918901918401610207565b60418b634e487b7160e01b5f525260245ffd5b8751631b538cdf60e11b81528690fd5b6103cf91503d805f833e6103c78183610de1565b810190611504565b5f6101a6565b602083610437878051906103e882610dc6565b602382527f5375626e657420646f6573206e6f7420616c6c6f77206368696c64207375626e858301526265747360e81b818301525193849363015538b160e01b855284015260248301906114df565b0390fd5b601184634e487b7160e01b5f525260245ffd5b5090600319602036820181136101225783356001600160401b039283821161012257848183360301126101225734156105b8578451630c30422f60e11b8152608087820152601254909416608485015260a484018590526013805460c486018190525f91825260e4860194869493925f80516020612c6b83398151915292915b82821061059557505050505f9383926104f7923360248601528483030160448501528801611216565b346064830152038173__$c0560e63386df2470ca6214f90e7038fc9$__5af490811561058b579061052f915f91610569575b506124ac565b34471061055c575f8080803460635af16105476129d9565b501561054f57005b51633204506f60e01b8152fd5b5163356680b760e01b8152fd5b61058591503d805f833e61057d8183610de1565b81019061114f565b5f610529565b82513d5f823e3d90fd5b83546001600160a01b0316885296870196889650600193840193909101906104ce565b845163bc0f01cf60e01b8152600381880152602490fd5b50346101225760203660031901126101225780357f691bb03ffc16c56fc96b82fd16cd1b3715f0bc3cdc6407005f49bb62058600959160018354146106bd576001835581156106af5761062133611c07565b90156106a0578054838110610690578361063a916114b1565b90558380518092632d9e5f4f60e21b825281335afa90811561010a579061066e92915f958692610673575b50503390611c9e565b505055005b6106899250803d10610103576100f58183610de1565b5f80610665565b85516379b33e7960e01b81528390fd5b508351630e991abd60e41b8152fd5b835163c79cad7b60e01b8152fd5b83516329f745a760e01b8152fd5b5034610122575f366003190112610122576106e533611c07565b90156108a45760028101546108955780549061072b838201926107078461140c565b948651956390ba52cf60e01b87528680602095869384868401526024830190610ef8565b038173__$3fbe32418a9ca7804328967972fb037388$__5af4958615610369575f96610866575b50600354956001600160401b03965f19888260801c160188811161043b57906107cc92916001600160401b0360801b9060801b16906001600160401b0360801b191617600355805f52601f85526107c760058a5f205f81555f60018201555f60028201555f60038201555f868201550161145c565b612adf565b508680518092632d9e5f4f60e21b825281335afa908115610369577f60dc29147d9c6e493f02de6d79356195ea83f691b55fddd559e933b41befe6959792610844959492610823925f91610849575b503390611c9e565b50508151958695828752541690850152808401526005606084019101611343565b0390a1005b6108609150853d8711610103576100f58183610de1565b5f61081b565b9095508281813d831161088e575b61087e8183610de1565b810103126101225751945f610752565b503d610874565b509051637c67c70160e11b8152fd5b509051630e991abd60e41b8152fd5b506003199082823601126101225780356001600160401b03928382116101225784818385019336030112610122576024359384116101225784908436030112610122573415610ad25761090e6109093683610e41565b611581565b929015610ac4576109466109223684610e41565b86805191632cff562160e11b83528280602095869384898401526024830190610ef8565b038173__$3fbe32418a9ca7804328967972fb037388$__5af48015610aba5784925f91610a81575b5081516380875df760e01b815292839182906001600160a01b03165afa908115610369575f91610a64575b50516002811015610a5157610a1c5750905f916109ce8651958693849363266a83ad60e21b8552349281019133918601611280565b038173__$c0560e63386df2470ca6214f90e7038fc9$__5af49182156102f4576102d593505f92610a00575b50611965565b610a159192503d805f833e61057d8183610de1565b905f6109fa565b855162461bcd60e51b815291820152601060248201526f155b995e1c1958dd195908185cdcd95d60821b604482015260649150fd5b602183634e487b7160e01b5f525260245ffd5b610a7b9150873d8911610103576100f58183610de1565b5f610999565b925050508181813d8311610ab3575b610a9a8183610de1565b810103126101225786610aad8492610ee4565b5f61096e565b503d610a90565b50513d5f823e3d90fd5b8451630e991abd60e41b8152fd5b835163bc0f01cf60e01b8152600381840152602490fd5b919050346101225760031990606036830112610122578035906001600160401b0392838311610122578581848401943603011261012257602435938411610122578590843603011261012257604435927f691bb03ffc16c56fc96b82fd16cd1b3715f0bc3cdc6407005f49bb6205860095946001865414610d6e5750600185558315610d5757610b7c6109093685610e41565b949015610d4757610b8d3685610e41565b610bb488805192632cff562160e11b845283806020948593848b8401526024830190610ef8565b038173__$3fbe32418a9ca7804328967972fb037388$__5af48015610aba5786935f91610d0e575b5081516380875df760e01b815293849182906001600160a01b03165afa918215610d04575f92610ce5575b5081516002811015610cd257600103610c9d5750610c2b5f949392610c489261168e565b885163266a83ad60e21b8152958694859481019133918601611280565b038173__$c0560e63386df2470ca6214f90e7038fc9$__5af4938415610c94575092610c7c915f948592610c7f5750611965565b55005b610a159192503d8087833e61057d8183610de1565b513d5f823e3d90fd5b846064918a519162461bcd60e51b8352820152601060248201526f155b995e1c1958dd195908185cdcd95d60821b6044820152fd5b602186634e487b7160e01b5f525260245ffd5b610cfd919250893d8b11610103576100f58183610de1565b905f610c07565b89513d5f823e3d90fd5b935050508082813d8311610d40575b610d278183610de1565b810103126101225788610d3a8693610ee4565b5f610bdc565b503d610d1d565b8651630e991abd60e41b81528390fd5b855163bc0f01cf60e01b8152600381840152602490fd5b6329f745a760e01b81529050fd5b604081019081106001600160401b03821117610d9757604052565b634e487b7160e01b5f52604160045260245ffd5b60e081019081106001600160401b03821117610d9757604052565b606081019081106001600160401b03821117610d9757604052565b90601f801991011681019081106001600160401b03821117610d9757604052565b35906001600160401b038216820361012257565b6001600160401b038111610d975760051b60200190565b35906001600160a01b038216820361012257565b91906040838203126101225760405192610e5a84610d7c565b83610e6482610e02565b815260209182810135906001600160401b03821161012257019280601f85011215610122578335610e9481610e16565b94610ea26040519687610de1565b818652848087019260051b8201019283116101225784809101915b838310610ecc57505050500152565b8190610ed784610e2d565b8152019101908490610ebd565b51906001600160a01b038216820361012257565b604082016001600160401b038251168352602060608180940151946040838201528551809452019301915f5b828110610f32575050505090565b83516001600160a01b031685529381019392810192600101610f24565b908160409103126101225760405190610f6782610d7c565b80516002811015610122578252610f8090602001610ee4565b602082015290565b51906001600160401b038216820361012257565b91906040838203126101225760405192610fb584610d7c565b83610fbf82610f88565b815260209182810151906001600160401b03821161012257019280601f85011215610122578351610fef81610e16565b94610ffd6040519687610de1565b818652848087019260051b8201019283116101225784809101915b83831061102757505050500152565b819061103284610ee4565b8152019101908490611018565b6001600160401b038111610d9757601f01601f191660200190565b5f5b83811061106b5750505f910152565b818101518382015260200161105c565b81601f820112156101225780516110918161103f565b9261109f6040519485610de1565b81845260208284010111610122576110bd916020808501910161105a565b90565b919060408382031261012257604051926110d984610d7c565b838151916001600160401b039283811161012257846110f9918301610f9c565b82526020810151908382116101225701604081850312610122576040519361112085610d7c565b815160ff81168103610122578552602082015193841161012257602093611147920161107b565b828401520152565b906020828203126101225781516001600160401b039283821161012257019060e082820312610122576040519261118584610dab565b8251600381101561012257845261119e60208401610f88565b60208501526111af60408401610f88565b604085015260608301516060850152608083015181811161012257826111d69185016110c0565b608085015260a083015181811161012257826111f39185016110c0565b60a085015260c08301519081116101225761120e920161107b565b60c082015290565b803560ff81168091036101225782526020810135601e1982360301811215610122570190602082359201916001600160401b038111610122578036038313610122578060609360406020850152816040850152848401375f828201840152601f01601f1916010190565b94939290916080865260c086016001600160401b0393846112a082610e02565b1660808901526020906020810135601e1982360301811215610122570191602083359301958311610122578260051b3603861361012257604060a08a015282905260e088019491905f5b82811061131c57505050506001600160a01b03166020860152848203604086015260609161131791611216565b930152565b909192958280600192838060a01b036113348b610e2d565b168152019701939291016112ea565b9081548082526020809201925f5260205f20915f905b828210611367575050505090565b83546001600160a01b031685529384019360019384019390910190611359565b6040519061139482610d7c565b816001600160401b036012541681526040518091826013549283815260208091019360135f525f80516020612c6b833981519152915f905b8282106113e957505050506113e5906020930384610de1565b0152565b83546001600160a01b0316875295860195879450600193840193909101906113cc565b906001602060405161141d81610d7c565b6113e581956001600160401b03815416835261143f6040518096819301611343565b0384610de1565b818110611451575050565b5f8155600101611446565b80545f82558061146a575050565b61147d915f5260205f2090810190611446565b565b90600160401b8111610d975781549080835581811061149d57505050565b61147d925f5260205f209182019101611446565b919082039182116114be57565b634e487b7160e01b5f52601160045260245ffd5b919082018092116114be57565b906020916114f88151809281855285808601910161105a565b601f01601f1916010190565b906020828203126101225781516001600160401b038111610122576110bd9201610f9c565b90611541602091949394604084526040840190610ef8565b6001600160a01b03909416910152565b9060016001600160401b03809316019182116114be57565b90816020910312610122575180151581036101225790565b6115bf73__$3fbe32418a9ca7804328967972fb037388$__91604051906390ba52cf60e01b8252818060209485938460048401526024830190610ef8565b0381865af4908115611656575f91611661575b505f52601f81526116118160405f20936115ee6004860161140c565b906040518080958194630c133d1360e31b83528660048401526024830190610ef8565b03915af4918215611656575f92611629575b50501591565b6116489250803d1061164f575b6116408183610de1565b810190611569565b5f80611623565b503d611636565b6040513d5f823e3d90fd5b90508181813d8311611687575b6116788183610de1565b8101031261012257515f6115d2565b503d61166e565b9190825160028110156118b857600103611871576020928360018060a01b03910151166040938451926370a0823160e01b80855230600486015260249183868481885afa958615611867575f96611838575b508751848101916323b872dd60e01b8352338583015230604483015260648201526064815260a081018181106001600160401b0382111761182557895251611739915f91829182895af16117326129d9565b9086612c07565b80519084821515928361180c575b5050506117f65782908288518096819382523060048301525afa9283156117ec575f936117bd575b50838311156117855750506110bd9293506114b1565b90601360649287519262461bcd60e51b84526004840152820152724e6f2062616c616e636520696e63726561736560681b6044820152fd5b9092508181813d83116117e5575b6117d58183610de1565b810103126101225751915f61176f565b503d6117cb565b86513d5f823e3d90fd5b508551635274afe760e01b815260048101849052fd5b61181c9350820181019101611569565b155f8481611747565b84634e487b7160e01b5f5260416004525ffd5b9095508381813d8311611860575b6118508183610de1565b810103126101225751945f6116e0565b503d611846565b88513d5f823e3d90fd5b80919250341061187e5790565b60405162461bcd60e51b8152602060048201526012602482015271496e73756666696369656e742066756e647360701b6044820152606490fd5b634e487b7160e01b5f52602160045260245ffd5b9060038210156118b85752565b91908251906040815260808101936001600160401b038351166040830152602080930151946040606084015285518091528360a084019601905f5b81811061194857505050936040838193816110bd97980151908281860391015260ff815116845201519382015201906114df565b82516001600160a01b031688529685019691850191600101611914565b9060038201906001600160401b0380835416936020918284019580875260a08501958651519173__$3fbe32418a9ca7804328967972fb037388$__9160048601916119cc88604096875192839163c836244d60e01b83528960048401526044830190610ef8565b6003198282030160248301528881018a8854168252606060058d01928b86820152835480935201915f52835f20905f5b818110611be55750505081900381885af49081156117ec579287611a4084611a6d958a8f8f9a97611a8f9f9e9d9c9a5f91611bc8575b50611bbe575b505050611551565b166001600160401b031982541617905560608a0196611a666002895192019182546114d2565b905561140c565b90835180809881946304e384ff60e21b83528660048401526024830190610ef8565b03915af4938415610aba575f94611b56575b5092611b519282611aeb96958894611ad97fb6eb2e0545704059166f88153086a5814637ddce7139f55009632d8ca40683589a612a08565b9b825199898b9a8b528a0188516118cc565b51168188015284015116606086015251608085015260c0611b34611b1f608085015160e060a08901526101008801906118d9565b985198601f19998a88830301848901526118d9565b92015184830390970160e08501526001600160a01b0316956114df565b0390a3565b9295919480945083813d8311611bb7575b611b718183610de1565b81010312610122577fb6eb2e0545704059166f88153086a5814637ddce7139f55009632d8ca406835895611aeb95611bab611b5195610ee4565b95965092965092611aa1565b503d611b67565b015280898f611a38565b611bdf91508c8d3d1061164f576116408183610de1565b5f611a32565b82546001600160a01b031684528e9587955090930192600192830192016119fc565b6001600160a01b03811615611c8c575f611c3e91611c23611387565b60405163aa5106cb60e01b8152938492839260048401611529565b038173__$3fbe32418a9ca7804328967972fb037388$__5af4801561165657611c6e915f91611c72575b50611581565b9091565b611c8691503d805f833e6103c78183610de1565b5f611c68565b6040516370e4510960e01b8152600490fd5b5f90606090805160028110156118b857611d0f57505050814710611cfd575f918291829182916001600160a01b03165af190611cd86129d9565b5060405191602083018381106001600160401b03821117610d97576040525f83529190565b60405163569d45cf60e11b8152600490fd5b809593919492955160028110156118b857600114611d2c57505050565b5f945084939550602091849160018060a01b0393849101511693604051936020850192168252604084015260408352611d6483610dc6565b611d9c60246040518093611d8c602083019763a9059cbb60e01b89525180928585019061105a565b8101036004810184520182610de1565b51925af1906110bd6129d9565b60138114611e1557601354906001600160401b038211610d9757611dcd828261147f565b5f908152602081205f80516020612c6b83398151915280545b848410611df4575050505050565b600191820180546001600160a01b0390921684860155939091019290611de6565b50565b8054821015611e31575f52600b60205f20910201905f90565b634e487b7160e01b5f52603260045260245ffd5b90600182811c92168015611e73575b6020831014611e5f57565b634e487b7160e01b5f52602260045260245ffd5b91607f1691611e54565b8054600160401b811015610d9757611e9c906001928382018155611e18565b6122fe5782519060038210156118b8578054602085810151604087015170ffffffffffffffffffffffffffffffffff1990931660ff959095169490941760089490941b68ffffffffffffffff00169390931760489190911b70ffffffffffffffff0000000000000000001617815560608401518382015560808401518051805160028401805467ffffffffffffffff199081166001600160401b039384161790915591850151805192969195939491939260ff19916003840190888311610d97578590611f69848461147f565b01905f52845f20865f5b8481106122e357505050505082600483019501519460ff8651168282541617905560059683888401960151958651888111610d9757611fb28254611e45565b97601f988981116122b8575b50869089831160011461225a57611fec92915f9183612100575b50508160011b915f199060031b1c19161790565b90555b600683019060a08a0151918251918983511690825416179055846007850191015190815191898311610d97578690612027848461147f565b01905f52855f20875f5b84811061223f57505050505083600884019101519160ff835116908254161790558260098301910151805190878211610d975761206e8354611e45565b87811161220b575b5084908783116001146121a1578260c09593600a95936120aa935f926121005750508160011b915f199060031b1c19161790565b90555b01960151948551948511610d97576120c58754611e45565b84811161216b575b50508092841160011461210b57505081906120fc935f926121005750508160011b915f199060031b1c19161790565b9055565b015190505f80611fd8565b91909383601f198116875f52845f20945f905b888383106121515750505010612139575b505050811b019055565b01515f1960f88460031b161c191690555f808061212f565b85870151885590960195948501948793509081019061211e565b61219191885f52835f209086808901821c830193868a10612198575b01901c0190611446565b5f806120cd565b93508293612187565b869291601f19831691855f52875f20925f5b898282106121f55750509160c09795939185600a989694106121dd575b505050811b0190556120ad565b01515f1960f88460031b161c191690555f80806121d0565b8385015186558b979095019493840193016121b3565b61223090845f52865f20898086018d1c820192898710612236575b018c1c0190611446565b5f612076565b92508192612226565b83516001600160a01b03168382015592880192899101612031565b889291601f19831691855f52895f20925f5b8b8282106122a2575050841161228a575b505050811b019055611fef565b01515f1960f88460031b161c191690555f808061227d565b8385015186558d9790950194938401930161226c565b6122dd90845f52885f208d8c808701821c8301938c88106121985701901c0190611446565b5f611fbe565b83516001600160a01b03168382015592870192889101611f73565b634e487b7160e01b5f525f60045260245ffd5b6040519061231e82610d7c565b60606020835f81520152565b6040519061233782610d7c565b81612340612311565b8152602061234c612311565b910152565b8051821015611e315760209160051b010190565b9060405191825f825461237781611e45565b908184526020946001916001811690815f146123e357506001146123a5575b50505061147d92500383610de1565b5f90815285812095935091905b8183106123cb57505061147d93508201015f8080612396565b855488840185015294850194879450918301916123b2565b9250505061147d94925060ff191682840152151560051b8201015f8080612396565b906040519161241383610d7c565b60208361241f8361140c565b815261114760036040519461243386610d7c565b60ff600282015416865201612365565b61244d8154611e45565b9081612457575050565b81601f5f9311600114612468575055565b908083918252612487601f60208420940160051c840160018501611446565b5555565b600361147d915f81556124a06001820161145c565b5f600282015501612443565b60015480156129c557806001600160401b03431604600181018091116114be578181029181830414901517156114be576001600160401b0360035416602083015261251760a08301515160405191829163c836244d60e01b8352604060048401526044830190610ef8565b600319828203016024830152606060408201916001600160401b0360125416815260406020820152601354809352019060135f525f80516020612c6b833981519152905f5b8181106129a3575050509080602092038173__$3fbe32418a9ca7804328967972fb037388$__5af4908115611656575f91612984575b5061296e575b6003546001600160401b036125ae818316611551565b16906001600160401b03191617600355805f52602560205260405f209060028201805415612925575050600381015460035460c01c145f1461290f576003810154906125f982610e16565b916126076040519384610de1565b808352601f1961261682610e16565b015f5b8181106128bf575050604051928360608101106001600160401b03606086011117610d975790849160608501604052612650611387565b855243602086015260408501525f5b81811061280b5750437f4ecfe3c1ed32ef0a63d3801d51eb20214db90b14dc5fd1ca58a9de54f16f46a65f80a25f60038401558061279e575b5060036126a59201611e7d565b60208101515f52602560205260405f209080516001600160401b038151166001600160401b0319845416178355602060018401910151908151916001600160401b038311610d97576020906126fa848461147f565b01905f5260205f205f5b83811061278157505050602082015160028401555060408101515191600301905f5b838110612760575050505061273a90612a08565b7f9fca8d7f48c38bf83a8ad097637c3e1e42dcb831eec5b6138e0b505397ac315f5f80a2565b8061277b6127746001936040860151612351565b5185611e7d565b01612726565b82516001600160a01b031681830155602090920191600101612704565b600b915081810290828204036114be57908491600384015f5260205f20908101905b8181106127ce575050612698565b8293505f81939293555f60018201556127e96002820161248b565b6127f56006820161248b565b612801600a8201612443565b01908592916127c0565b90915061281b8160038501611e18565b50906040850151916040519261283084610dab565b815490600360ff831610156118b8576001946128a0600a6128b5956001600160401b038660ff8a98168652818160081c16602087015260481c16604085015288810154606085015261288460028201612405565b608085015261289560068201612405565b60a085015201612365565b60c08201526128af8383612351565b52612351565b500190849161265f565b6020906040516128ce81610dab565b5f81525f838201525f60408201525f60608201526128ea61232a565b60808201526128f761232a565b60a0820152606060c082015282828801015201612619565b9061292081600361273a9401611e7d565b612a08565b926003836129209361273a966012859703612942575b5501611e7d565b6001600160401b03601254166001600160401b031984541617835561296960018401611da9565b61293b565b6001600160401b03600354166040830152612598565b61299d915060203d60201161164f576116408183610de1565b5f612592565b82546001600160a01b031684528594506020909301926001928301920161255c565b634e487b7160e01b5f52601260045260245ffd5b3d15612a03573d906129ea8261103f565b916129f86040519384610de1565b82523d5f602084013e565b606090565b80519060038210156118b857612aa4816080612a6a93015160a082015191612a9260608201516001600160401b03604060c08501519401511692612a7d604051988996612a5960208901809d6118cc565b60c0604089015260e08801906118d9565b601f1997888883030160608901526118d9565b916080860152858583030160a08601526114df565b9060c083015203908101835282610de1565b51902090565b602654811015611e315760265f527f744a2cf8fd7008e3d53b67916e73460df9fa5214e3ef23dd4259ca09493a359401905f90565b5f818152602760205260409020548015612bae575f19908082018181116114be57602654908382019182116114be57818103612b64575b5050506026548015612b5057810190612b2e82612aaa565b909182549160031b1b191690556026555f5260276020525f6040812055600190565b634e487b7160e01b5f52603160045260245ffd5b612b98612b73612b8293612aaa565b90549060031b1c928392612aaa565b819391549060031b91821b915f19901b19161790565b90555f52602760205260405f20555f8080612b16565b50505f90565b805f52602760205260405f2054155f14612c0257602654600160401b811015610d9757612beb612b82826001859401602655612aaa565b9055602654905f52602760205260405f2055600190565b505f90565b90612c2e5750805115612c1c57805190602001fd5b604051630a12f52160e11b8152600490fd5b81511580612c61575b612c3f575090565b604051639996b31560e01b81526001600160a01b039091166004820152602490fd5b50803b15612c3756fe66de8ffda797e3de9c05e8fc57b3bf0ec28a930d40b0d285d93c06501cf6a090a264697066735822122004aceab00795ab429150f8185c5a3ed551a8db9214b678c1524769a66ba7c37864736f6c63430008170033",
        "linkReferences": {
            "contracts/lib/CrossMsgHelper.sol": {
                "CrossMsgHelper": [
                    {
                        "start": 1308,
                        "length": 20
                    },
                    {
                        "start": 2541,
                        "length": 20
                    },
                    {
                        "start": 3175,
                        "length": 20
                    }
                ]
            },
            "contracts/lib/SubnetIDHelper.sol": {
                "SubnetIDHelper": [
                    {
                        "start": 384,
                        "length": 20
                    },
                    {
                        "start": 1866,
                        "length": 20
                    },
                    {
                        "start": 2405,
                        "length": 20
                    },
                    {
                        "start": 3027,
                        "length": 20
                    },
                    {
                        "start": 5537,
                        "length": 20
                    },
                    {
                        "start": 6568,
                        "length": 20
                    },
                    {
                        "start": 7261,
                        "length": 20
                    },
                    {
                        "start": 9610,
                        "length": 20
                    }
                ]
            }
        }
    },
    "methodIdentifiers": {
        "addStake(uint256)": "eb4f16b5",
        "fund((uint64,address[]),(uint8,bytes))": "18f44b70",
        "fundWithToken((uint64,address[]),(uint8,bytes),uint256)": "0517e1aa",
        "kill()": "41c0e1b5",
        "register(uint256,uint256)": "d66d6c10",
        "release((uint8,bytes))": "6b2c1eef",
        "releaseStake(uint256)": "45f54485"
    },
    "id": 13
}